{
  "contractName": "Crowdsource",
  "abi": [
    {
      "inputs": [],
      "stateMutability": "nonpayable",
      "type": "constructor"
    },
    {
      "anonymous": false,
      "inputs": [
        {
          "indexed": false,
          "internalType": "string",
          "name": "_myString",
          "type": "string"
        },
        {
          "indexed": false,
          "internalType": "uint256",
          "name": "round",
          "type": "uint256"
        }
      ],
      "name": "Log",
      "type": "event"
    },
    {
      "inputs": [],
      "name": "evaluator",
      "outputs": [
        {
          "internalType": "address",
          "name": "",
          "type": "address"
        }
      ],
      "stateMutability": "view",
      "type": "function",
      "constant": true
    },
    {
      "inputs": [],
      "name": "genesis",
      "outputs": [
        {
          "internalType": "bytes32",
          "name": "",
          "type": "bytes32"
        }
      ],
      "stateMutability": "view",
      "type": "function",
      "constant": true
    },
    {
      "inputs": [],
      "name": "modelArchitecture",
      "outputs": [
        {
          "internalType": "bytes32",
          "name": "",
          "type": "bytes32"
        }
      ],
      "stateMutability": "view",
      "type": "function",
      "constant": true
    },
    {
      "inputs": [
        {
          "internalType": "bytes32",
          "name": "_cid",
          "type": "bytes32"
        },
        {
          "internalType": "uint256",
          "name": "_round",
          "type": "uint256"
        }
      ],
      "name": "saveGlobalmodel",
      "outputs": [],
      "stateMutability": "nonpayable",
      "type": "function"
    },
    {
      "inputs": [
        {
          "internalType": "uint256",
          "name": "_round",
          "type": "uint256"
        }
      ],
      "name": "getGlobalmodel",
      "outputs": [
        {
          "internalType": "bytes32",
          "name": "",
          "type": "bytes32"
        }
      ],
      "stateMutability": "view",
      "type": "function",
      "constant": true
    },
    {
      "inputs": [
        {
          "internalType": "bytes32",
          "name": "_cid",
          "type": "bytes32"
        },
        {
          "internalType": "address",
          "name": "_address",
          "type": "address"
        },
        {
          "internalType": "int256",
          "name": "_score",
          "type": "int256"
        }
      ],
      "name": "saveScores",
      "outputs": [],
      "stateMutability": "nonpayable",
      "type": "function"
    },
    {
      "inputs": [
        {
          "internalType": "bytes32",
          "name": "_cid",
          "type": "bytes32"
        }
      ],
      "name": "getScores",
      "outputs": [
        {
          "components": [
            {
              "internalType": "address",
              "name": "account",
              "type": "address"
            },
            {
              "internalType": "int256",
              "name": "score",
              "type": "int256"
            }
          ],
          "internalType": "struct Crowdsource.ScoreandAccount",
          "name": "",
          "type": "tuple"
        }
      ],
      "stateMutability": "view",
      "type": "function",
      "constant": true
    },
    {
      "inputs": [
        {
          "internalType": "uint256",
          "name": "_round",
          "type": "uint256"
        }
      ],
      "name": "completeEval",
      "outputs": [],
      "stateMutability": "nonpayable",
      "type": "function"
    },
    {
      "inputs": [
        {
          "internalType": "uint256",
          "name": "_round",
          "type": "uint256"
        }
      ],
      "name": "getCurTrainers",
      "outputs": [
        {
          "internalType": "address[]",
          "name": "trainers",
          "type": "address[]"
        }
      ],
      "stateMutability": "view",
      "type": "function",
      "constant": true
    },
    {
      "inputs": [
        {
          "internalType": "address",
          "name": "_address",
          "type": "address"
        },
        {
          "internalType": "uint256",
          "name": "_round",
          "type": "uint256"
        }
      ],
      "name": "isTrainer",
      "outputs": [
        {
          "internalType": "bool",
          "name": "trainCheckFlag",
          "type": "bool"
        }
      ],
      "stateMutability": "view",
      "type": "function",
      "constant": true
    },
    {
      "inputs": [
        {
          "internalType": "address[]",
          "name": "_address",
          "type": "address[]"
        },
        {
          "internalType": "uint256",
          "name": "_round",
          "type": "uint256"
        }
      ],
      "name": "setCurTrainer",
      "outputs": [],
      "stateMutability": "nonpayable",
      "type": "function"
    },
    {
      "inputs": [
        {
          "internalType": "uint256",
          "name": "_maxNum",
          "type": "uint256"
        }
      ],
      "name": "changeMaxNumUpdates",
      "outputs": [],
      "stateMutability": "nonpayable",
      "type": "function"
    },
    {
      "inputs": [],
      "name": "currentRound",
      "outputs": [
        {
          "internalType": "uint256",
          "name": "round",
          "type": "uint256"
        }
      ],
      "stateMutability": "view",
      "type": "function",
      "constant": true
    },
    {
      "inputs": [],
      "name": "secondsRemaining",
      "outputs": [
        {
          "internalType": "uint256",
          "name": "remaining",
          "type": "uint256"
        }
      ],
      "stateMutability": "view",
      "type": "function",
      "constant": true
    },
    {
      "inputs": [
        {
          "internalType": "uint256",
          "name": "_round",
          "type": "uint256"
        }
      ],
      "name": "updates",
      "outputs": [
        {
          "internalType": "bytes32[]",
          "name": "",
          "type": "bytes32[]"
        }
      ],
      "stateMutability": "view",
      "type": "function",
      "constant": true
    },
    {
      "inputs": [
        {
          "internalType": "address",
          "name": "_address",
          "type": "address"
        },
        {
          "internalType": "uint256",
          "name": "_round",
          "type": "uint256"
        }
      ],
      "name": "countTokens",
      "outputs": [
        {
          "internalType": "uint256",
          "name": "count",
          "type": "uint256"
        }
      ],
      "stateMutability": "view",
      "type": "function",
      "constant": true
    },
    {
      "inputs": [
        {
          "internalType": "uint256",
          "name": "_round",
          "type": "uint256"
        }
      ],
      "name": "countTotalTokens",
      "outputs": [
        {
          "internalType": "uint256",
          "name": "count",
          "type": "uint256"
        }
      ],
      "stateMutability": "view",
      "type": "function",
      "constant": true
    },
    {
      "inputs": [
        {
          "internalType": "address",
          "name": "_address",
          "type": "address"
        },
        {
          "internalType": "uint256",
          "name": "_round",
          "type": "uint256"
        }
      ],
      "name": "madeContribution",
      "outputs": [
        {
          "internalType": "bool",
          "name": "",
          "type": "bool"
        }
      ],
      "stateMutability": "view",
      "type": "function",
      "constant": true
    },
    {
      "inputs": [
        {
          "internalType": "address",
          "name": "_newEvaluator",
          "type": "address"
        }
      ],
      "name": "setEvaluator",
      "outputs": [],
      "stateMutability": "nonpayable",
      "type": "function"
    },
    {
      "inputs": [
        {
          "internalType": "bytes32",
          "name": "_cid",
          "type": "bytes32"
        }
      ],
      "name": "setGenesis",
      "outputs": [],
      "stateMutability": "nonpayable",
      "type": "function"
    },
    {
      "inputs": [
        {
          "internalType": "bytes32",
          "name": "_cid",
          "type": "bytes32"
        }
      ],
      "name": "setModelArchitecture",
      "outputs": [],
      "stateMutability": "nonpayable",
      "type": "function"
    },
    {
      "inputs": [],
      "name": "getModelArchitecture",
      "outputs": [
        {
          "internalType": "bytes32",
          "name": "",
          "type": "bytes32"
        }
      ],
      "stateMutability": "view",
      "type": "function",
      "constant": true
    },
    {
      "inputs": [],
      "name": "getGenesis",
      "outputs": [
        {
          "internalType": "bytes32",
          "name": "",
          "type": "bytes32"
        }
      ],
      "stateMutability": "view",
      "type": "function",
      "constant": true
    },
    {
      "inputs": [
        {
          "internalType": "bytes32",
          "name": "_cid",
          "type": "bytes32"
        },
        {
          "internalType": "uint256",
          "name": "_round",
          "type": "uint256"
        }
      ],
      "name": "addModelUpdate",
      "outputs": [],
      "stateMutability": "nonpayable",
      "type": "function"
    },
    {
      "inputs": [
        {
          "internalType": "uint256",
          "name": "_round",
          "type": "uint256"
        }
      ],
      "name": "skipRound",
      "outputs": [],
      "stateMutability": "nonpayable",
      "type": "function"
    },
    {
      "inputs": [
        {
          "internalType": "uint256",
          "name": "_round",
          "type": "uint256"
        }
      ],
      "name": "waitTrainers",
      "outputs": [
        {
          "internalType": "bool",
          "name": "",
          "type": "bool"
        }
      ],
      "stateMutability": "view",
      "type": "function",
      "constant": true
    },
    {
      "inputs": [],
      "name": "getmaxNum",
      "outputs": [
        {
          "internalType": "uint256",
          "name": "",
          "type": "uint256"
        }
      ],
      "stateMutability": "view",
      "type": "function",
      "constant": true
    },
    {
      "inputs": [
        {
          "internalType": "bytes32",
          "name": "_cid",
          "type": "bytes32"
        }
      ],
      "name": "getAccountfromUpdate",
      "outputs": [
        {
          "internalType": "address",
          "name": "",
          "type": "address"
        }
      ],
      "stateMutability": "view",
      "type": "function",
      "constant": true
    },
    {
      "inputs": [
        {
          "internalType": "bytes32",
          "name": "_cid",
          "type": "bytes32"
        },
        {
          "internalType": "uint256",
          "name": "_numTokens",
          "type": "uint256"
        }
      ],
      "name": "setTokens",
      "outputs": [],
      "stateMutability": "nonpayable",
      "type": "function"
    }
  ],
  "bytecode": "0x608060405234801561001057600080fd5b50326000806101000a81548173ffffffffffffffffffffffffffffffffffffffff021916908373ffffffffffffffffffffffffffffffffffffffff1602179055506123fc806100606000396000f3fe608060405234801561001057600080fd5b50600436106101cf5760003560e01c8063a7f0b3de11610104578063c3f53731116100a2578063f451145d11610071578063f451145d1461053c578063f490f00e1461055a578063fba41de71461058a578063fbaa430d146105a8576101cf565b8063c3f5373114610490578063cfd1e42d146104c0578063eaec0b19146104f0578063ebe328f81461050c576101cf565b8063b4c2f727116100de578063b4c2f7271461040c578063b4ccfd0b1461043c578063b9ee7dee14610458578063be9edc4814610474576101cf565b8063a7f0b3de146103b4578063af768471146103d2578063afb70ee9146103f0576101cf565b806352c42d5c116101715780637552538c1161014b5780637552538c1461032a5780638a19c8bc1461035a578063940ebef7146103785780639cb93dd114610396576101cf565b806352c42d5c146102c257806366b80b7b146102f25780636f8518621461030e576101cf565b80631a43bcb5116101ad5780631a43bcb51461023c57806332fd011d1461025a57806340032e8f14610276578063465286dd14610292576101cf565b806302dbbbac146101d45780630879416a146101f0578063189d7dca1461020c575b600080fd5b6101ee60048036038101906101e99190611794565b6105d8565b005b61020a6004803603810190610205919061191d565b6106a9565b005b610226600480360381019061022191906117c1565b6106d8565b6040516102339190611df5565b60405180910390f35b610244610808565b6040516102519190611c83565b60405180910390f35b610274600480360381019061026f91906118dd565b61085a565b005b610290600480360381019061028b919061185d565b610ab4565b005b6102ac60048036038101906102a791906117c1565b610ad6565b6040516102b99190611c68565b60405180910390f35b6102dc60048036038101906102d791906117c1565b610ba4565b6040516102e99190611c68565b60405180910390f35b61030c600480360381019061030791906118dd565b610c9c565b005b610328600480360381019061032391906118dd565b610cb8565b005b610344600480360381019061033f919061191d565b610def565b6040516103519190611c68565b60405180910390f35b610362610e23565b60405161036f9190611df5565b60405180910390f35b610380610e63565b60405161038d9190611df5565b60405180910390f35b61039e610ea4565b6040516103ab9190611c09565b60405180910390f35b6103bc610ec8565b6040516103c99190611c83565b60405180910390f35b6103da610ece565b6040516103e79190611c83565b60405180910390f35b61040a6004803603810190610405919061185d565b610ed4565b005b6104266004803603810190610421919061191d565b610ede565b6040516104339190611c46565b60405180910390f35b6104566004803603810190610451919061191d565b610f49565b005b610472600480360381019061046d919061191d565b610fd7565b005b61048e60048036038101906104899190611801565b61106f565b005b6104aa60048036038101906104a5919061191d565b6111af565b6040516104b79190611c83565b60405180910390f35b6104da60048036038101906104d5919061191d565b6111cc565b6040516104e79190611c24565b60405180910390f35b61050a6004803603810190610505919061188a565b61126d565b005b6105266004803603810190610521919061191d565b611392565b6040516105339190611df5565b60405180910390f35b6105446114be565b6040516105519190611df5565b60405180910390f35b610574600480360381019061056f919061185d565b6114c8565b6040516105819190611c09565b60405180910390f35b610592611505565b60405161059f9190611c83565b60405180910390f35b6105c260048036038101906105bd919061185d565b611557565b6040516105cf9190611dda565b60405180910390f35b60008054906101000a900473ffffffffffffffffffffffffffffffffffffffff1673ffffffffffffffffffffffffffffffffffffffff163273ffffffffffffffffffffffffffffffffffffffff1614610666576040517f08c379a000000000000000000000000000000000000000000000000000000000815260040161065d90611dba565b60405180910390fd5b806000806101000a81548173ffffffffffffffffffffffffffffffffffffffff021916908373ffffffffffffffffffffffffffffffffffffffff16021790555050565b6001600e600083815260200190815260200160002060006101000a81548160ff02191690831515021790555050565b600080600960008573ffffffffffffffffffffffffffffffffffffffff1673ffffffffffffffffffffffffffffffffffffffff16815260200190815260200160002080548060200260200160405190810160405280929190818152602001828054801561076457602002820191906000526020600020905b815481526020019060010190808311610750575b5050505050905060005b815181101561080057600082828151811061078c5761078b612104565b5b60200260200101519050846008600083815260200190815260200160002054116107ec57600c60008484815181106107c7576107c6612104565b5b6020026020010151815260200190815260200160002054846107e99190611ee4565b93505b5080806107f89061202c565b91505061076e565b505092915050565b60008060001b6001541415610852576040517f08c379a000000000000000000000000000000000000000000000000000000000815260040161084990611cec565b60405180910390fd5b600154905090565b7fdd970dd9b5bfe707922155b058a407655cb18288b807e2216442bca8ad83d6b5610883610e23565b6040516108909190611d2c565b60405180910390a17fdd970dd9b5bfe707922155b058a407655cb18288b807e2216442bca8ad83d6b5816040516108c79190611cbe565b60405180910390a160008111610912576040517f08c379a000000000000000000000000000000000000000000000000000000000815260040161090990611d9a565b60405180910390fd5b61091a610e23565b81101561095c576040517f08c379a000000000000000000000000000000000000000000000000000000000815260040161095390611d5a565b60405180910390fd5b610964610e23565b8111156109a6576040517f08c379a000000000000000000000000000000000000000000000000000000000815260040161099d90611c9e565b60405180910390fd5b60076000828152602001908152602001600020829080600181540180825580915050600190039060005260206000200160009091909190915055600960003273ffffffffffffffffffffffffffffffffffffffff1673ffffffffffffffffffffffffffffffffffffffff16815260200190815260200160002082908060018154018082558091505060019003906000526020600020016000909190919091505532600a600084815260200190815260200160002060006101000a81548173ffffffffffffffffffffffffffffffffffffffff021916908373ffffffffffffffffffffffffffffffffffffffff1602179055508060086000848152602001908152602001600020819055505050565b8060018190555042600281905550614e20600481905550600260058190555050565b6000805b600d600084815260200190815260200160002080549050811015610b9d578373ffffffffffffffffffffffffffffffffffffffff16600d60008581526020019081526020016000208281548110610b3457610b33612104565b5b9060005260206000200160009054906101000a900473ffffffffffffffffffffffffffffffffffffffff1673ffffffffffffffffffffffffffffffffffffffff161415610b845760019150610b89565b610b8a565b5b8080610b959061202c565b915050610ada565b5092915050565b600080600090505b600960008573ffffffffffffffffffffffffffffffffffffffff1673ffffffffffffffffffffffffffffffffffffffff16815260200190815260200160002080549050811015610c90576000600960008673ffffffffffffffffffffffffffffffffffffffff1673ffffffffffffffffffffffffffffffffffffffff1681526020019081526020016000208281548110610c4957610c48612104565b5b906000526020600020015490508360086000838152602001908152602001600020541415610c7c57600192505050610c96565b508080610c889061202c565b915050610bac565b50600090505b92915050565b81600f6000838152602001908152602001600020819055505050565b60008054906101000a900473ffffffffffffffffffffffffffffffffffffffff1673ffffffffffffffffffffffffffffffffffffffff163273ffffffffffffffffffffffffffffffffffffffff1614610d46576040517f08c379a0000000000000000000000000000000000000000000000000000000008152600401610d3d90611dba565b60405180910390fd5b600b600083815260200190815260200160002060009054906101000a900460ff1615610da7576040517f08c379a0000000000000000000000000000000000000000000000000000000008152600401610d9e90611d0c565b60405180910390fd5b80600c6000848152602001908152602001600020819055506001600b600084815260200190815260200160002060006101000a81548160ff0219169083151502179055505050565b6000600554600760008481526020019081526020016000208054905010610e195760019050610e1e565b600090505b919050565b60008060025442600654610e379190611ee4565b610e419190611f6b565b905060045481610e519190611f3a565b6001610e5d9190611ee4565b91505090565b60008060025442600654610e779190611ee4565b610e819190611f6b565b905060045481610e919190612075565b600454610e9e9190611f6b565b91505090565b60008054906101000a900473ffffffffffffffffffffffffffffffffffffffff1681565b60015481565b60035481565b8060038190555050565b606060076000838152602001908152602001600020805480602002602001604051908101604052809291908181526020018280548015610f3d57602002820191906000526020600020905b815481526020019060010190808311610f29575b50505050509050919050565b6000600554118015610f735750600554600760008381526020019081526020016000208054905010155b8015610fae575060011515600e600083815260200190815260200160002060009054906101000a900460ff1615151480610fad5750600181145b5b15610fd457610fbb610e63565b60066000828254610fcc9190611ee4565b925050819055505b50565b60008054906101000a900473ffffffffffffffffffffffffffffffffffffffff1673ffffffffffffffffffffffffffffffffffffffff163273ffffffffffffffffffffffffffffffffffffffff1614611065576040517f08c379a000000000000000000000000000000000000000000000000000000000815260040161105c90611dba565b60405180910390fd5b8060058190555050565b60008054906101000a900473ffffffffffffffffffffffffffffffffffffffff1673ffffffffffffffffffffffffffffffffffffffff163273ffffffffffffffffffffffffffffffffffffffff16146110fd576040517f08c379a00000000000000000000000000000000000000000000000000000000081526004016110f490611dba565b60405180910390fd5b60005b82518110156111aa57600d600083815260200190815260200160002083828151811061112f5761112e612104565b5b60200260200101519080600181540180825580915050600190039060005260206000200160009091909190916101000a81548173ffffffffffffffffffffffffffffffffffffffff021916908373ffffffffffffffffffffffffffffffffffffffff16021790555080806111a29061202c565b915050611100565b505050565b6000600f6000838152602001908152602001600020549050919050565b6060600d600083815260200190815260200160002080548060200260200160405190810160405280929190818152602001828054801561126157602002820191906000526020600020905b8160009054906101000a900473ffffffffffffffffffffffffffffffffffffffff1673ffffffffffffffffffffffffffffffffffffffff1681526020019060010190808311611217575b50505050509050919050565b60008054906101000a900473ffffffffffffffffffffffffffffffffffffffff1673ffffffffffffffffffffffffffffffffffffffff163273ffffffffffffffffffffffffffffffffffffffff16146112fb576040517f08c379a00000000000000000000000000000000000000000000000000000000081526004016112f290611dba565b60405180910390fd5b60405180604001604052808373ffffffffffffffffffffffffffffffffffffffff168152602001828152506010600085815260200190815260200160002060008201518160000160006101000a81548173ffffffffffffffffffffffffffffffffffffffff021916908373ffffffffffffffffffffffffffffffffffffffff16021790555060208201518160010155905050505050565b600080600190505b6113a2610e23565b81116114b85760006007600083815260200190815260200160002080548060200260200160405190810160405280929190818152602001828054801561140757602002820191906000526020600020905b8154815260200190600101908083116113f3575b5050505050905060005b81518110156114a357600082828151811061142f5761142e612104565b5b602002602001015190508560086000838152602001908152602001600020541161148f57600c600084848151811061146a57611469612104565b5b60200260200101518152602001908152602001600020548561148c9190611ee4565b94505b50808061149b9061202c565b915050611411565b505080806114b09061202c565b91505061139a565b50919050565b6000600554905090565b6000600a600083815260200190815260200160002060009054906101000a900473ffffffffffffffffffffffffffffffffffffffff169050919050565b60008060001b600354141561154f576040517f08c379a000000000000000000000000000000000000000000000000000000000815260040161154690611d7a565b60405180910390fd5b600354905090565b61155f611672565b60008054906101000a900473ffffffffffffffffffffffffffffffffffffffff1673ffffffffffffffffffffffffffffffffffffffff163273ffffffffffffffffffffffffffffffffffffffff16146115ed576040517f08c379a00000000000000000000000000000000000000000000000000000000081526004016115e490611dba565b60405180910390fd5b601060008381526020019081526020016000206040518060400160405290816000820160009054906101000a900473ffffffffffffffffffffffffffffffffffffffff1673ffffffffffffffffffffffffffffffffffffffff1673ffffffffffffffffffffffffffffffffffffffff1681526020016001820154815250509050919050565b6040518060400160405280600073ffffffffffffffffffffffffffffffffffffffff168152602001600081525090565b60006116b56116b084611e35565b611e10565b905080838252602082019050828560208602820111156116d8576116d7612167565b5b60005b8581101561170857816116ee8882611712565b8452602084019350602083019250506001810190506116db565b5050509392505050565b6000813590506117218161236a565b92915050565b600082601f83011261173c5761173b612162565b5b813561174c8482602086016116a2565b91505092915050565b60008135905061176481612381565b92915050565b60008135905061177981612398565b92915050565b60008135905061178e816123af565b92915050565b6000602082840312156117aa576117a9612171565b5b60006117b884828501611712565b91505092915050565b600080604083850312156117d8576117d7612171565b5b60006117e685828601611712565b92505060206117f78582860161177f565b9150509250929050565b6000806040838503121561181857611817612171565b5b600083013567ffffffffffffffff8111156118365761183561216c565b5b61184285828601611727565b92505060206118538582860161177f565b9150509250929050565b60006020828403121561187357611872612171565b5b600061188184828501611755565b91505092915050565b6000806000606084860312156118a3576118a2612171565b5b60006118b186828701611755565b93505060206118c286828701611712565b92505060406118d38682870161176a565b9150509250925092565b600080604083850312156118f4576118f3612171565b5b600061190285828601611755565b92505060206119138582860161177f565b9150509250929050565b60006020828403121561193357611932612171565b5b60006119418482850161177f565b91505092915050565b6000611956838361197a565b60208301905092915050565b600061196e8383611a63565b60208301905092915050565b61198381611f9f565b82525050565b61199281611f9f565b82525050565b60006119a382611e81565b6119ad8185611eb1565b93506119b883611e61565b8060005b838110156119e95781516119d0888261194a565b97506119db83611e97565b9250506001810190506119bc565b5085935050505092915050565b6000611a0182611e8c565b611a0b8185611ec2565b9350611a1683611e71565b8060005b83811015611a47578151611a2e8882611962565b9750611a3983611ea4565b925050600181019050611a1a565b5085935050505092915050565b611a5d81611fb1565b82525050565b611a6c81611fbd565b82525050565b611a7b81611fbd565b82525050565b611a8a81611fc7565b82525050565b6000611a9d602783611ed3565b9150611aa882612187565b604082019050919050565b6000611ac0601183611ed3565b9150611acb826121d6565b602082019050919050565b6000611ae3601783611ed3565b9150611aee826121ff565b602082019050919050565b6000611b06602083611ed3565b9150611b1182612228565b602082019050919050565b6000611b29600b83611ed3565b9150611b3482612251565b602082019050919050565b6000611b4c602583611ed3565b9150611b578261227a565b604082019050919050565b6000611b6f601c83611ed3565b9150611b7a826122c9565b602082019050919050565b6000611b92602a83611ed3565b9150611b9d826122f2565b604082019050919050565b6000611bb5601c83611ed3565b9150611bc082612341565b602082019050919050565b604082016000820151611be1600085018261197a565b506020820151611bf46020850182611a81565b50505050565b611c0381611ff1565b82525050565b6000602082019050611c1e6000830184611989565b92915050565b60006020820190508181036000830152611c3e8184611998565b905092915050565b60006020820190508181036000830152611c6081846119f6565b905092915050565b6000602082019050611c7d6000830184611a54565b92915050565b6000602082019050611c986000830184611a72565b92915050565b60006020820190508181036000830152611cb781611a90565b9050919050565b60006040820190508181036000830152611cd781611ab3565b9050611ce66020830184611bfa565b92915050565b60006020820190508181036000830152611d0581611ad6565b9050919050565b60006020820190508181036000830152611d2581611af9565b9050919050565b60006040820190508181036000830152611d4581611b1c565b9050611d546020830184611bfa565b92915050565b60006020820190508181036000830152611d7381611b3f565b9050919050565b60006020820190508181036000830152611d9381611b62565b9050919050565b60006020820190508181036000830152611db381611b85565b9050919050565b60006020820190508181036000830152611dd381611ba8565b9050919050565b6000604082019050611def6000830184611bcb565b92915050565b6000602082019050611e0a6000830184611bfa565b92915050565b6000611e1a611e2b565b9050611e268282611ffb565b919050565b6000604051905090565b600067ffffffffffffffff821115611e5057611e4f612133565b5b602082029050602081019050919050565b6000819050602082019050919050565b6000819050602082019050919050565b600081519050919050565b600081519050919050565b6000602082019050919050565b6000602082019050919050565b600082825260208201905092915050565b600082825260208201905092915050565b600082825260208201905092915050565b6000611eef82611ff1565b9150611efa83611ff1565b9250827fffffffffffffffffffffffffffffffffffffffffffffffffffffffffffffffff03821115611f2f57611f2e6120a6565b5b828201905092915050565b6000611f4582611ff1565b9150611f5083611ff1565b925082611f6057611f5f6120d5565b5b828204905092915050565b6000611f7682611ff1565b9150611f8183611ff1565b925082821015611f9457611f936120a6565b5b828203905092915050565b6000611faa82611fd1565b9050919050565b60008115159050919050565b6000819050919050565b6000819050919050565b600073ffffffffffffffffffffffffffffffffffffffff82169050919050565b6000819050919050565b61200482612176565b810181811067ffffffffffffffff8211171561202357612022612133565b5b80604052505050565b600061203782611ff1565b91507fffffffffffffffffffffffffffffffffffffffffffffffffffffffffffffffff82141561206a576120696120a6565b5b600182019050919050565b600061208082611ff1565b915061208b83611ff1565b92508261209b5761209a6120d5565b5b828206905092915050565b7f4e487b7100000000000000000000000000000000000000000000000000000000600052601160045260246000fd5b7f4e487b7100000000000000000000000000000000000000000000000000000000600052601260045260246000fd5b7f4e487b7100000000000000000000000000000000000000000000000000000000600052603260045260246000fd5b7f4e487b7100000000000000000000000000000000000000000000000000000000600052604160045260246000fd5b600080fd5b600080fd5b600080fd5b600080fd5b6000601f19601f8301169050919050565b7f43616e6e6f742061646420616e2075706461746520666f72206120667574757260008201527f6520726f756e6400000000000000000000000000000000000000000000000000602082015250565b7f696e73657274656420526f756e64203a20000000000000000000000000000000600082015250565b7f47656e65736973206d6f64656c206e6f74206578697374000000000000000000600082015250565b7f5570646174652068617320616c7265616479206265656e207265776172646564600082015250565b7f637572526f756e64203a20000000000000000000000000000000000000000000600082015250565b7f43616e6e6f742061646420616e2075706461746520666f72206120706173742060008201527f726f756e64000000000000000000000000000000000000000000000000000000602082015250565b7f4d6f64656c20617263686974656374757265206e6f7420657869737400000000600082015250565b7f43616e6e6f742061646420616e2075706461746520666f72207468652067656e60008201527f6573697320726f756e6400000000000000000000000000000000000000000000602082015250565b7f4e6f74207468652072656769737465726564206576616c7561746f7200000000600082015250565b61237381611f9f565b811461237e57600080fd5b50565b61238a81611fbd565b811461239557600080fd5b50565b6123a181611fc7565b81146123ac57600080fd5b50565b6123b881611ff1565b81146123c357600080fd5b5056fea26469706673582212203899ef3563011541fe16cb69679ac63f36581a15cc5783ffc389f8e16625fab164736f6c63430008060033",
  "immutableReferences": {},
  "source": "// pragma solidity >=0.4.21 <0.7.0;\npragma solidity ^0.8.6;\npragma experimental ABIEncoderV2;\n\n/// @title Records contributions made to a Crowdsourcing Federated Learning process\n/// @author Harry Cai\ncontract Crowdsource {\n    /// @notice Address of contract creator, who evaluates updates\n    address public evaluator;\n\n    /// @notice IPFS CID of genesis model\n    bytes32 public genesis;\n\n    /// @dev The timestamp when the genesis model was upload\n    uint256 internal genesisTimestamp;\n\n    /// @notice IPFS CID of model architecture\n    bytes32 public modelArchitecture;\n\n    /// @dev Duration of each training round in seconds\n    uint256 internal roundDuration;\n\n    /// @dev Number of updates before training round automatically ends. (If 0, always wait the full roundDuration)\n    uint256 internal maxNumUpdates;\n\n    /// @dev Total number of seconds skipped when training rounds finish early\n    uint256 internal timeSkipped;\n\n    /// @dev The IPFS CIDs of model updates in each round\n    mapping(uint256 => bytes32[]) internal updatesInRound;\n\n    /// @dev The round to which each model update belongs\n    mapping(bytes32 => uint256) internal updateRound;\n\n    /// @dev The IPFS CIDs of model updates made by each address\n    mapping(address => bytes32[]) internal updatesFromAddress;\n\n    /// @dev The Account of model updates \n    mapping( bytes32 => address) internal accountsFromUpdate;\n\n    /// @dev Whether or not each model update has been evaluated\n    mapping(bytes32 => bool) internal tokensAssigned;\n\n    /// @dev The contributivity score for each model update, if evaluated\n    mapping(bytes32 => uint256) internal tokens;\n\n    /// @dev Current Round's Trainer list\n    mapping(uint256 => address[]) internal curTrainers;\n\n    /// @dev Current Round's Evaluation complete flag\n    mapping(uint256 => bool) internal evalflag;\n\n    /// @dev Global model for each rounds\n    mapping(uint256 => bytes32) internal globalmodel;\n\n    struct ScoreandAccount {\n        address account;\n        int256 score;\n    }\n\n    /// @dev Account, Scores by cids \n    mapping(bytes32 => ScoreandAccount) internal score;\n\n    event Log(string _myString , uint256 round);\n\n    /// @notice Constructor. The address that deploys the contract is set as the evaluator.\n    constructor() public {\n        // evaluator = msg.sender;\n        evaluator = tx.origin;\n    }\n\n    modifier evaluatorOnly() {\n        // require(msg.sender == evaluator, \"Not the registered evaluator\");\n        require(tx.origin == evaluator, \"Not the registered evaluator\");\n        _;\n    }\n\n    function saveGlobalmodel(bytes32 _cid, uint256 _round) external {\n        globalmodel[_round] = _cid;\n    }\n\n    function getGlobalmodel (uint256 _round) external view returns (bytes32){\n        return globalmodel[_round];\n    }\n\n    function saveScores(bytes32 _cid, address _address, int256 _score) external evaluatorOnly(){\n        score[_cid] = ScoreandAccount(_address,_score);\n    }\n\n    function getScores(bytes32 _cid) external view evaluatorOnly returns(ScoreandAccount memory){\n        return score[_cid];\n    }\n\n    function completeEval(uint256 _round) external {\n//        require(evalflag[_round] == false,\"evaluation completed already.\");\n        evalflag[_round] = true;\n    }\n\n    function getCurTrainers (uint256 _round) external view returns (address[] memory  trainers){\n        trainers = curTrainers[_round];\n    }\n\n    function isTrainer(address _address, uint256 _round) external view returns (bool trainCheckFlag){\n        trainCheckFlag=false;\n        \n        for(uint i = 0; i < curTrainers[_round].length ; i++){\n            if(curTrainers[_round][i] == _address){\n                trainCheckFlag= true;\n            }else{\n                continue;\n            }\n        } \n        return trainCheckFlag;\n    }\n\n    function setCurTrainer(address[] memory _address, uint256 _round) public evaluatorOnly() {\n        for (uint i = 0; i<_address.length; i++){\n             curTrainers[_round].push(_address[i]);\n        }\n    }\n\n    function changeMaxNumUpdates(uint256 _maxNum) external evaluatorOnly(){\n        maxNumUpdates = _maxNum;\n    }\n\n    /// @return round The index of the current training round.\n    function currentRound() public view returns (uint256 round) {\n        uint256 timeElapsed = timeSkipped + block.timestamp - genesisTimestamp;\n        round = 1 + (timeElapsed / roundDuration);\n    }\n\n\n    /// @return remaining The number of seconds remaining in the current training round.\n    function secondsRemaining() public view returns (uint256 remaining) {\n        uint256 timeElapsed = timeSkipped + block.timestamp - genesisTimestamp;\n        remaining = roundDuration - (timeElapsed % roundDuration);\n    }\n\n    /// @return The CID's of updates in the given training round.\n    function updates(uint256 _round) external view returns (bytes32[] memory) {\n        return updatesInRound[_round];\n    }\n\n    /// @return count Token count of the given address up to and including the given round.\n    function countTokens(address _address, uint256 _round)\n        external\n        view\n        returns (uint256 count)\n    {\n        bytes32[] memory updates = updatesFromAddress[_address];\n        for (uint256 i = 0; i < updates.length; i++) {\n            bytes32 update = updates[i];\n            if (updateRound[update] <= _round) {\n                count += tokens[updates[i]];\n            }\n        }\n    }\n\n    /// @return count Total number of tokens up to and including the given round.\n    function countTotalTokens(uint256 _round) external view returns (uint256 count) {\n        for (uint256 i = 1; i <= currentRound(); i++) {\n            bytes32[] memory updates = updatesInRound[i];\n            for (uint256 j = 0; j < updates.length; j++) {\n                bytes32 update = updates[j];\n                if (updateRound[update] <= _round){\n                    count += tokens[updates[j]];\n                }\n            }\n        }\n    }\n\n    /// @return Whether the given address made a contribution in the given round.\n    function madeContribution(address _address, uint256 _round)\n        public\n        view\n        returns (bool)\n    {\n        for (uint256 i = 0; i < updatesFromAddress[_address].length; i++) {\n            bytes32 update = updatesFromAddress[_address][i];\n            if (updateRound[update] == _round) {\n                return true;\n            }\n        }\n        return false;\n    }\n\n    /// @notice Sets a new evaluator.\n    function setEvaluator(address _newEvaluator) external evaluatorOnly() {\n        evaluator = _newEvaluator;\n    }\n\n    /// @notice Starts training by setting the genesis model. Can only be called once.\n    /// @param _cid The CID of the genesis model\n    function setGenesis(\n        bytes32 _cid\n    ) public {\n        //require(genesis == 0, \"Genesis has already been set\");\n        genesis = _cid;\n        genesisTimestamp = block.timestamp;\n        roundDuration = 20000;\n        maxNumUpdates = 2;\n    }\n\n    function setModelArchitecture(\n        bytes32 _cid\n    ) public {\n        modelArchitecture = _cid;\n    }\n\n    function getModelArchitecture() external view returns (bytes32){\n        require(modelArchitecture != 0, \"Model architecture not exist\");\n        return modelArchitecture;\n    }\n\n    function getGenesis() external view returns (bytes32){\n        require(genesis != 0, \"Genesis model not exist\");\n        return genesis;\n    }\n    /// @notice Records a training contribution in the current round.\n    function addModelUpdate(bytes32 _cid, uint256 _round) external {\n        emit Log(\"curRound : \", currentRound());\n        emit Log(\"inserted Round : \", _round);\n        require(_round > 0, \"Cannot add an update for the genesis round\");\n        require(\n            _round >= currentRound(),\n            \"Cannot add an update for a past round\"\n        );\n        require(\n            _round <= currentRound(),\n            \"Cannot add an update for a future round\"\n        );\n//        require(\n//            // !madeContribution(msg.sender, _round),\n//            !madeContribution(tx.origin, _round),\n//            \"Already added an update for this round\"\n//        );\n\n        updatesInRound[_round].push(_cid);\n        // updatesFromAddress[msg.sender].push(_cid);\n        // accountsFromUpdate[_cid] = msg.sender;\n        updatesFromAddress[tx.origin].push(_cid);\n        accountsFromUpdate[_cid] = tx.origin;\n        updateRound[_cid] = _round;\n\n        // if (\n        //     maxNumUpdates > 0 && updatesInRound[_round].length >= maxNumUpdates && _round == 1\n        // ) {\n        //     // Skip to the end of training round\n        //     timeSkipped += secondsRemaining();\n        // }\n    }\n\n     function skipRound(uint256 _round) \n        external\n    {\n        // require( maxNumUpdates > 0 && updatesInRound[_round].length >= maxNumUpdates, \"trainers did not finish their training process\");\n        // require( evalflag[_round] == true, \"evaluation is not completed\");\n        // timeSkipped += secondsRemaining();\n        if (\n            maxNumUpdates > 0 && updatesInRound[_round].length >= maxNumUpdates && (evalflag[_round] == true || _round ==1)\n        ) {\n            // Skip to the end of training round\n            timeSkipped += secondsRemaining();\n        }\n    }\n\n    function waitTrainers (uint256 _round) external view returns (bool) {\n        if(updatesInRound[_round].length >= maxNumUpdates){\n            return true;\n        }else{\n            return false;\n        }\n    }\n\n    function getmaxNum () public view returns (uint256) {\n        return maxNumUpdates;\n    }\n\n    function getAccountfromUpdate (bytes32 _cid) external view returns(address ){\n        return accountsFromUpdate[_cid];\n    }\n\n    /// @notice Assigns a token count to an update.\n    /// @param _cid The update being rewarded\n    /// @param _numTokens The number of tokens to award; should be based on marginal value contribution\n    function setTokens(bytes32 _cid, uint256 _numTokens)\n        external\n        evaluatorOnly()\n    {\n        require(!tokensAssigned[_cid], \"Update has already been rewarded\");\n        tokens[_cid] = _numTokens;\n        tokensAssigned[_cid] = true;\n    }\n}\n",
  "sourcePath": "/media/hdd1/es_workspace/D-DES/src/py/flwr/client/eth_client/contracts/Crowdsource.sol",
  "compiler": {
    "name": "solc",
    "version": "0.8.6+commit.11564f7e.Emscripten.clang"
  },
  "schemaVersion": "3.4.11",
  "updatedAt": "2023-05-16T05:39:44.578Z",
  "networkType": "ethereum",
  "devdoc": {
    "author": "Harry Cai",
    "kind": "dev",
    "methods": {
      "countTokens(address,uint256)": {
        "returns": {
          "count": "Token count of the given address up to and including the given round."
        }
      },
      "countTotalTokens(uint256)": {
        "returns": {
          "count": "Total number of tokens up to and including the given round."
        }
      },
      "currentRound()": {
        "returns": {
          "round": "The index of the current training round."
        }
      },
      "madeContribution(address,uint256)": {
        "returns": {
          "_0": "Whether the given address made a contribution in the given round."
        }
      },
      "secondsRemaining()": {
        "returns": {
          "remaining": "The number of seconds remaining in the current training round."
        }
      },
      "setGenesis(bytes32)": {
        "params": {
          "_cid": "The CID of the genesis model"
        }
      },
      "setTokens(bytes32,uint256)": {
        "params": {
          "_cid": "The update being rewarded",
          "_numTokens": "The number of tokens to award; should be based on marginal value contribution"
        }
      },
      "updates(uint256)": {
        "returns": {
          "_0": "The CID's of updates in the given training round."
        }
      }
    },
    "stateVariables": {
      "accountsFromUpdate": {
        "details": "The Account of model updates "
      },
      "curTrainers": {
        "details": "Current Round's Trainer list"
      },
      "evalflag": {
        "details": "Current Round's Evaluation complete flag"
      },
      "genesisTimestamp": {
        "details": "The timestamp when the genesis model was upload"
      },
      "globalmodel": {
        "details": "Global model for each rounds"
      },
      "maxNumUpdates": {
        "details": "Number of updates before training round automatically ends. (If 0, always wait the full roundDuration)"
      },
      "roundDuration": {
        "details": "Duration of each training round in seconds"
      },
      "score": {
        "details": "Account, Scores by cids "
      },
      "timeSkipped": {
        "details": "Total number of seconds skipped when training rounds finish early"
      },
      "tokens": {
        "details": "The contributivity score for each model update, if evaluated"
      },
      "tokensAssigned": {
        "details": "Whether or not each model update has been evaluated"
      },
      "updateRound": {
        "details": "The round to which each model update belongs"
      },
      "updatesFromAddress": {
        "details": "The IPFS CIDs of model updates made by each address"
      },
      "updatesInRound": {
        "details": "The IPFS CIDs of model updates in each round"
      }
    },
    "title": "Records contributions made to a Crowdsourcing Federated Learning process",
    "version": 1
  },
  "userdoc": {
    "kind": "user",
    "methods": {
      "addModelUpdate(bytes32,uint256)": {
        "notice": "Records a training contribution in the current round."
      },
      "constructor": {
        "notice": "Constructor. The address that deploys the contract is set as the evaluator."
      },
      "evaluator()": {
        "notice": "Address of contract creator, who evaluates updates"
      },
      "genesis()": {
        "notice": "IPFS CID of genesis model"
      },
      "modelArchitecture()": {
        "notice": "IPFS CID of model architecture"
      },
      "setEvaluator(address)": {
        "notice": "Sets a new evaluator."
      },
      "setGenesis(bytes32)": {
        "notice": "Starts training by setting the genesis model. Can only be called once."
      },
      "setTokens(bytes32,uint256)": {
        "notice": "Assigns a token count to an update."
      }
    },
    "version": 1
  }
}