{
  "contractName": "Crowdsource",
  "abi": [
    {
      "inputs": [],
      "stateMutability": "nonpayable",
      "type": "constructor"
    },
    {
      "anonymous": false,
      "inputs": [
        {
          "indexed": true,
          "internalType": "address",
          "name": "owner",
          "type": "address"
        },
        {
          "indexed": true,
          "internalType": "address",
          "name": "spender",
          "type": "address"
        },
        {
          "indexed": false,
          "internalType": "uint256",
          "name": "value",
          "type": "uint256"
        }
      ],
      "name": "Approval",
      "type": "event"
    },
    {
      "anonymous": false,
      "inputs": [
        {
          "indexed": false,
          "internalType": "string",
          "name": "_myString",
          "type": "string"
        },
        {
          "indexed": false,
          "internalType": "uint256",
          "name": "round",
          "type": "uint256"
        }
      ],
      "name": "Log",
      "type": "event"
    },
    {
      "anonymous": false,
      "inputs": [
        {
          "indexed": true,
          "internalType": "address",
          "name": "from",
          "type": "address"
        },
        {
          "indexed": true,
          "internalType": "address",
          "name": "to",
          "type": "address"
        },
        {
          "indexed": false,
          "internalType": "uint256",
          "name": "value",
          "type": "uint256"
        }
      ],
      "name": "Transfer",
      "type": "event"
    },
    {
      "inputs": [
        {
          "internalType": "address",
          "name": "owner",
          "type": "address"
        },
        {
          "internalType": "address",
          "name": "spender",
          "type": "address"
        }
      ],
      "name": "allowance",
      "outputs": [
        {
          "internalType": "uint256",
          "name": "",
          "type": "uint256"
        }
      ],
      "stateMutability": "view",
      "type": "function",
      "constant": true
    },
    {
      "inputs": [
        {
          "internalType": "address",
          "name": "spender",
          "type": "address"
        },
        {
          "internalType": "uint256",
          "name": "amount",
          "type": "uint256"
        }
      ],
      "name": "approve",
      "outputs": [
        {
          "internalType": "bool",
          "name": "",
          "type": "bool"
        }
      ],
      "stateMutability": "nonpayable",
      "type": "function"
    },
    {
      "inputs": [
        {
          "internalType": "address",
          "name": "account",
          "type": "address"
        }
      ],
      "name": "balanceOf",
      "outputs": [
        {
          "internalType": "uint256",
          "name": "",
          "type": "uint256"
        }
      ],
      "stateMutability": "view",
      "type": "function",
      "constant": true
    },
    {
      "inputs": [],
      "name": "decimals",
      "outputs": [
        {
          "internalType": "uint8",
          "name": "",
          "type": "uint8"
        }
      ],
      "stateMutability": "view",
      "type": "function",
      "constant": true
    },
    {
      "inputs": [
        {
          "internalType": "address",
          "name": "spender",
          "type": "address"
        },
        {
          "internalType": "uint256",
          "name": "subtractedValue",
          "type": "uint256"
        }
      ],
      "name": "decreaseAllowance",
      "outputs": [
        {
          "internalType": "bool",
          "name": "",
          "type": "bool"
        }
      ],
      "stateMutability": "nonpayable",
      "type": "function"
    },
    {
      "inputs": [],
      "name": "evaluator",
      "outputs": [
        {
          "internalType": "address",
          "name": "",
          "type": "address"
        }
      ],
      "stateMutability": "view",
      "type": "function",
      "constant": true
    },
    {
      "inputs": [],
      "name": "genesis",
      "outputs": [
        {
          "internalType": "bytes32",
          "name": "",
          "type": "bytes32"
        }
      ],
      "stateMutability": "view",
      "type": "function",
      "constant": true
    },
    {
      "inputs": [
        {
          "internalType": "address",
          "name": "spender",
          "type": "address"
        },
        {
          "internalType": "uint256",
          "name": "addedValue",
          "type": "uint256"
        }
      ],
      "name": "increaseAllowance",
      "outputs": [
        {
          "internalType": "bool",
          "name": "",
          "type": "bool"
        }
      ],
      "stateMutability": "nonpayable",
      "type": "function"
    },
    {
      "inputs": [],
      "name": "modelArchitecture",
      "outputs": [
        {
          "internalType": "bytes32",
          "name": "",
          "type": "bytes32"
        }
      ],
      "stateMutability": "view",
      "type": "function",
      "constant": true
    },
    {
      "inputs": [],
      "name": "name",
      "outputs": [
        {
          "internalType": "string",
          "name": "",
          "type": "string"
        }
      ],
      "stateMutability": "view",
      "type": "function",
      "constant": true
    },
    {
      "inputs": [],
      "name": "symbol",
      "outputs": [
        {
          "internalType": "string",
          "name": "",
          "type": "string"
        }
      ],
      "stateMutability": "view",
      "type": "function",
      "constant": true
    },
    {
      "inputs": [],
      "name": "totalSupply",
      "outputs": [
        {
          "internalType": "uint256",
          "name": "",
          "type": "uint256"
        }
      ],
      "stateMutability": "view",
      "type": "function",
      "constant": true
    },
    {
      "inputs": [
        {
          "internalType": "address",
          "name": "to",
          "type": "address"
        },
        {
          "internalType": "uint256",
          "name": "amount",
          "type": "uint256"
        }
      ],
      "name": "transfer",
      "outputs": [
        {
          "internalType": "bool",
          "name": "",
          "type": "bool"
        }
      ],
      "stateMutability": "nonpayable",
      "type": "function"
    },
    {
      "inputs": [
        {
          "internalType": "address",
          "name": "from",
          "type": "address"
        },
        {
          "internalType": "address",
          "name": "to",
          "type": "address"
        },
        {
          "internalType": "uint256",
          "name": "amount",
          "type": "uint256"
        }
      ],
      "name": "transferFrom",
      "outputs": [
        {
          "internalType": "bool",
          "name": "",
          "type": "bool"
        }
      ],
      "stateMutability": "nonpayable",
      "type": "function"
    },
    {
      "inputs": [
        {
          "internalType": "bytes32",
          "name": "_cid",
          "type": "bytes32"
        },
        {
          "internalType": "uint256",
          "name": "_round",
          "type": "uint256"
        }
      ],
      "name": "saveGlobalmodel",
      "outputs": [],
      "stateMutability": "nonpayable",
      "type": "function"
    },
    {
      "inputs": [
        {
          "internalType": "uint256",
          "name": "_round",
          "type": "uint256"
        }
      ],
      "name": "getGlobalmodel",
      "outputs": [
        {
          "internalType": "bytes32",
          "name": "",
          "type": "bytes32"
        }
      ],
      "stateMutability": "view",
      "type": "function",
      "constant": true
    },
    {
      "inputs": [
        {
          "internalType": "bytes32",
          "name": "_cid",
          "type": "bytes32"
        },
        {
          "internalType": "address",
          "name": "_address",
          "type": "address"
        },
        {
          "internalType": "int256",
          "name": "_score",
          "type": "int256"
        }
      ],
      "name": "saveScores",
      "outputs": [],
      "stateMutability": "nonpayable",
      "type": "function"
    },
    {
      "inputs": [
        {
          "internalType": "bytes32",
          "name": "_cid",
          "type": "bytes32"
        }
      ],
      "name": "getScores",
      "outputs": [
        {
          "components": [
            {
              "internalType": "address",
              "name": "account",
              "type": "address"
            },
            {
              "internalType": "int256",
              "name": "score",
              "type": "int256"
            }
          ],
          "internalType": "struct Crowdsource.ScoreandAccount",
          "name": "",
          "type": "tuple"
        }
      ],
      "stateMutability": "view",
      "type": "function",
      "constant": true
    },
    {
      "inputs": [
        {
          "internalType": "uint256",
          "name": "_round",
          "type": "uint256"
        }
      ],
      "name": "completeEval",
      "outputs": [],
      "stateMutability": "nonpayable",
      "type": "function"
    },
    {
      "inputs": [
        {
          "internalType": "uint256",
          "name": "_round",
          "type": "uint256"
        }
      ],
      "name": "getCurTrainers",
      "outputs": [
        {
          "internalType": "address[]",
          "name": "trainers",
          "type": "address[]"
        }
      ],
      "stateMutability": "view",
      "type": "function",
      "constant": true
    },
    {
      "inputs": [
        {
          "internalType": "address",
          "name": "_address",
          "type": "address"
        },
        {
          "internalType": "uint256",
          "name": "_round",
          "type": "uint256"
        }
      ],
      "name": "isTrainer",
      "outputs": [
        {
          "internalType": "bool",
          "name": "trainCheckFlag",
          "type": "bool"
        }
      ],
      "stateMutability": "view",
      "type": "function",
      "constant": true
    },
    {
      "inputs": [
        {
          "internalType": "address[]",
          "name": "_address",
          "type": "address[]"
        },
        {
          "internalType": "uint256",
          "name": "_round",
          "type": "uint256"
        }
      ],
      "name": "setCurTrainer",
      "outputs": [],
      "stateMutability": "nonpayable",
      "type": "function"
    },
    {
      "inputs": [
        {
          "internalType": "uint256",
          "name": "_maxNum",
          "type": "uint256"
        }
      ],
      "name": "changeMaxNumUpdates",
      "outputs": [],
      "stateMutability": "nonpayable",
      "type": "function"
    },
    {
      "inputs": [],
      "name": "currentRound",
      "outputs": [
        {
          "internalType": "uint256",
          "name": "round",
          "type": "uint256"
        }
      ],
      "stateMutability": "view",
      "type": "function",
      "constant": true
    },
    {
      "inputs": [],
      "name": "secondsRemaining",
      "outputs": [
        {
          "internalType": "uint256",
          "name": "remaining",
          "type": "uint256"
        }
      ],
      "stateMutability": "view",
      "type": "function",
      "constant": true
    },
    {
      "inputs": [
        {
          "internalType": "uint256",
          "name": "_round",
          "type": "uint256"
        }
      ],
      "name": "updates",
      "outputs": [
        {
          "internalType": "bytes32[]",
          "name": "",
          "type": "bytes32[]"
        }
      ],
      "stateMutability": "view",
      "type": "function",
      "constant": true
    },
    {
      "inputs": [
        {
          "internalType": "address",
          "name": "_address",
          "type": "address"
        },
        {
          "internalType": "uint256",
          "name": "_round",
          "type": "uint256"
        }
      ],
      "name": "countTokens",
      "outputs": [
        {
          "internalType": "uint256",
          "name": "count",
          "type": "uint256"
        }
      ],
      "stateMutability": "view",
      "type": "function",
      "constant": true
    },
    {
      "inputs": [
        {
          "internalType": "uint256",
          "name": "_round",
          "type": "uint256"
        }
      ],
      "name": "countTotalTokens",
      "outputs": [
        {
          "internalType": "uint256",
          "name": "count",
          "type": "uint256"
        }
      ],
      "stateMutability": "view",
      "type": "function",
      "constant": true
    },
    {
      "inputs": [
        {
          "internalType": "address",
          "name": "_address",
          "type": "address"
        },
        {
          "internalType": "uint256",
          "name": "_round",
          "type": "uint256"
        }
      ],
      "name": "madeContribution",
      "outputs": [
        {
          "internalType": "bool",
          "name": "",
          "type": "bool"
        }
      ],
      "stateMutability": "view",
      "type": "function",
      "constant": true
    },
    {
      "inputs": [
        {
          "internalType": "address",
          "name": "_newEvaluator",
          "type": "address"
        }
      ],
      "name": "setEvaluator",
      "outputs": [],
      "stateMutability": "nonpayable",
      "type": "function"
    },
    {
      "inputs": [
        {
          "internalType": "bytes32",
          "name": "_cid",
          "type": "bytes32"
        }
      ],
      "name": "setGenesis",
      "outputs": [],
      "stateMutability": "nonpayable",
      "type": "function"
    },
    {
      "inputs": [
        {
          "internalType": "bytes32",
          "name": "_cid",
          "type": "bytes32"
        }
      ],
      "name": "setModelArchitecture",
      "outputs": [],
      "stateMutability": "nonpayable",
      "type": "function"
    },
    {
      "inputs": [],
      "name": "getModelArchitecture",
      "outputs": [
        {
          "internalType": "bytes32",
          "name": "",
          "type": "bytes32"
        }
      ],
      "stateMutability": "view",
      "type": "function",
      "constant": true
    },
    {
      "inputs": [],
      "name": "getGenesis",
      "outputs": [
        {
          "internalType": "bytes32",
          "name": "",
          "type": "bytes32"
        }
      ],
      "stateMutability": "view",
      "type": "function",
      "constant": true
    },
    {
      "inputs": [
        {
          "internalType": "bytes32",
          "name": "_cid",
          "type": "bytes32"
        },
        {
          "internalType": "uint256",
          "name": "_round",
          "type": "uint256"
        }
      ],
      "name": "addModelUpdate",
      "outputs": [],
      "stateMutability": "nonpayable",
      "type": "function"
    },
    {
      "inputs": [
        {
          "internalType": "uint256",
          "name": "_round",
          "type": "uint256"
        }
      ],
      "name": "skipRound",
      "outputs": [],
      "stateMutability": "nonpayable",
      "type": "function"
    },
    {
      "inputs": [
        {
          "internalType": "uint256",
          "name": "_round",
          "type": "uint256"
        }
      ],
      "name": "waitTrainers",
      "outputs": [
        {
          "internalType": "bool",
          "name": "",
          "type": "bool"
        }
      ],
      "stateMutability": "view",
      "type": "function",
      "constant": true
    },
    {
      "inputs": [],
      "name": "getmaxNum",
      "outputs": [
        {
          "internalType": "uint256",
          "name": "",
          "type": "uint256"
        }
      ],
      "stateMutability": "view",
      "type": "function",
      "constant": true
    },
    {
      "inputs": [
        {
          "internalType": "bytes32",
          "name": "_cid",
          "type": "bytes32"
        }
      ],
      "name": "getAccountfromUpdate",
      "outputs": [
        {
          "internalType": "address",
          "name": "",
          "type": "address"
        }
      ],
      "stateMutability": "view",
      "type": "function",
      "constant": true
    },
    {
      "inputs": [
        {
          "internalType": "bytes32",
          "name": "_cid",
          "type": "bytes32"
        },
        {
          "internalType": "uint256",
          "name": "_numTokens",
          "type": "uint256"
        }
      ],
      "name": "setTokens",
      "outputs": [],
      "stateMutability": "nonpayable",
      "type": "function"
    }
  ],
  "bytecode": "0x60806040523480156200001157600080fd5b506040518060400160405280600781526020017f464c546f6b656e000000000000000000000000000000000000000000000000008152506040518060400160405280600381526020017f464c5400000000000000000000000000000000000000000000000000000000008152508160039080519060200190620000969291906200028e565b508060049080519060200190620000af9291906200028e565b505050620000cf336a084595161401484a0000006200011660201b60201c565b32600560006101000a81548173ffffffffffffffffffffffffffffffffffffffff021916908373ffffffffffffffffffffffffffffffffffffffff160217905550620004ea565b600073ffffffffffffffffffffffffffffffffffffffff168273ffffffffffffffffffffffffffffffffffffffff16141562000189576040517f08c379a0000000000000000000000000000000000000000000000000000000008152600401620001809062000376565b60405180910390fd5b6200019d600083836200028460201b60201c565b8060026000828254620001b19190620003c6565b92505081905550806000808473ffffffffffffffffffffffffffffffffffffffff1673ffffffffffffffffffffffffffffffffffffffff168152602001908152602001600020600082825401925050819055508173ffffffffffffffffffffffffffffffffffffffff16600073ffffffffffffffffffffffffffffffffffffffff167fddf252ad1be2c89b69c2b068fc378daa952ba7f163c4a11628f55a4df523b3ef8360405162000264919062000398565b60405180910390a362000280600083836200028960201b60201c565b5050565b505050565b505050565b8280546200029c906200042d565b90600052602060002090601f016020900481019282620002c057600085556200030c565b82601f10620002db57805160ff19168380011785556200030c565b828001600101855582156200030c579182015b828111156200030b578251825591602001919060010190620002ee565b5b5090506200031b91906200031f565b5090565b5b808211156200033a57600081600090555060010162000320565b5090565b60006200034d601f83620003b5565b91506200035a82620004c1565b602082019050919050565b620003708162000423565b82525050565b6000602082019050818103600083015262000391816200033e565b9050919050565b6000602082019050620003af600083018462000365565b92915050565b600082825260208201905092915050565b6000620003d38262000423565b9150620003e08362000423565b9250827fffffffffffffffffffffffffffffffffffffffffffffffffffffffffffffffff0382111562000418576200041762000463565b5b828201905092915050565b6000819050919050565b600060028204905060018216806200044657607f821691505b602082108114156200045d576200045c62000492565b5b50919050565b7f4e487b7100000000000000000000000000000000000000000000000000000000600052601160045260246000fd5b7f4e487b7100000000000000000000000000000000000000000000000000000000600052602260045260246000fd5b7f45524332303a206d696e7420746f20746865207a65726f206164647265737300600082015250565b6133f280620004fa6000396000f3fe608060405234801561001057600080fd5b50600436106102485760003560e01c806395d89b411161013b578063be9edc48116100b8578063ebe328f81161007c578063ebe328f81461074d578063f451145d1461077d578063f490f00e1461079b578063fba41de7146107cb578063fbaa430d146107e957610248565b8063be9edc4814610685578063c3f53731146106a1578063cfd1e42d146106d1578063dd62ed3e14610701578063eaec0b191461073157610248565b8063af768471116100ff578063af768471146105e3578063afb70ee914610601578063b4c2f7271461061d578063b4ccfd0b1461064d578063b9ee7dee1461066957610248565b806395d89b41146105295780639cb93dd114610547578063a457c2d714610565578063a7f0b3de14610595578063a9059cbb146105b357610248565b806339509351116101c95780636f8518621161018d5780636f8518621461047157806370a082311461048d5780637552538c146104bd5780638a19c8bc146104ed578063940ebef71461050b57610248565b806339509351146103a957806340032e8f146103d9578063465286dd146103f557806352c42d5c1461042557806366b80b7b1461045557610248565b8063189d7dca11610210578063189d7dca146102f15780631a43bcb51461032157806323b872dd1461033f578063313ce5671461036f57806332fd011d1461038d57610248565b806302dbbbac1461024d57806306fdde03146102695780630879416a14610287578063095ea7b3146102a357806318160ddd146102d3575b600080fd5b610267600480360381019061026291906121ee565b610819565b005b6102716108ed565b60405161027e91906128c8565b60405180910390f35b6102a1600480360381019061029c919061240a565b61097f565b005b6102bd60048036038101906102b891906122ae565b6109ae565b6040516102ca9190612892565b60405180910390f35b6102db6109d1565b6040516102e89190612b21565b60405180910390f35b61030b600480360381019061030691906122ae565b6109db565b6040516103189190612b21565b60405180910390f35b610329610b0b565b60405161033691906128ad565b60405180910390f35b6103596004803603810190610354919061225b565b610b5d565b6040516103669190612892565b60405180910390f35b610377610b8c565b6040516103849190612b3c565b60405180910390f35b6103a760048036038101906103a291906123ca565b610b95565b005b6103c360048036038101906103be91906122ae565b610def565b6040516103d09190612892565b60405180910390f35b6103f360048036038101906103ee919061234a565b610e26565b005b61040f600480360381019061040a91906122ae565b610e48565b60405161041c9190612892565b60405180910390f35b61043f600480360381019061043a91906122ae565b610f16565b60405161044c9190612892565b60405180910390f35b61046f600480360381019061046a91906123ca565b61100e565b005b61048b600480360381019061048691906123ca565b61102a565b005b6104a760048036038101906104a291906121ee565b611163565b6040516104b49190612b21565b60405180910390f35b6104d760048036038101906104d2919061240a565b6111ab565b6040516104e49190612892565b60405180910390f35b6104f56111df565b6040516105029190612b21565b60405180910390f35b61051361121f565b6040516105209190612b21565b60405180910390f35b610531611260565b60405161053e91906128c8565b60405180910390f35b61054f6112f2565b60405161055c9190612833565b60405180910390f35b61057f600480360381019061057a91906122ae565b611318565b60405161058c9190612892565b60405180910390f35b61059d61138f565b6040516105aa91906128ad565b60405180910390f35b6105cd60048036038101906105c891906122ae565b611395565b6040516105da9190612892565b60405180910390f35b6105eb6113b8565b6040516105f891906128ad565b60405180910390f35b61061b6004803603810190610616919061234a565b6113be565b005b6106376004803603810190610632919061240a565b6113c8565b6040516106449190612870565b60405180910390f35b6106676004803603810190610662919061240a565b611433565b005b610683600480360381019061067e919061240a565b6114c1565b005b61069f600480360381019061069a91906122ee565b61155b565b005b6106bb60048036038101906106b6919061240a565b61169d565b6040516106c891906128ad565b60405180910390f35b6106eb60048036038101906106e6919061240a565b6116ba565b6040516106f8919061284e565b60405180910390f35b61071b6004803603810190610716919061221b565b61175b565b6040516107289190612b21565b60405180910390f35b61074b60048036038101906107469190612377565b6117e2565b005b6107676004803603810190610762919061240a565b611909565b6040516107749190612b21565b60405180910390f35b610785611a35565b6040516107929190612b21565b60405180910390f35b6107b560048036038101906107b0919061234a565b611a3f565b6040516107c29190612833565b60405180910390f35b6107d3611a7c565b6040516107e091906128ad565b60405180910390f35b61080360048036038101906107fe919061234a565b611ace565b6040516108109190612b06565b60405180910390f35b600560009054906101000a900473ffffffffffffffffffffffffffffffffffffffff1673ffffffffffffffffffffffffffffffffffffffff163273ffffffffffffffffffffffffffffffffffffffff16146108a9576040517f08c379a00000000000000000000000000000000000000000000000000000000081526004016108a090612ae6565b60405180910390fd5b80600560006101000a81548173ffffffffffffffffffffffffffffffffffffffff021916908373ffffffffffffffffffffffffffffffffffffffff16021790555050565b6060600380546108fc90612d8d565b80601f016020809104026020016040519081016040528092919081815260200182805461092890612d8d565b80156109755780601f1061094a57610100808354040283529160200191610975565b820191906000526020600020905b81548152906001019060200180831161095857829003601f168201915b5050505050905090565b60016013600083815260200190815260200160002060006101000a81548160ff02191690831515021790555050565b6000806109b9611beb565b90506109c6818585611bf3565b600191505092915050565b6000600254905090565b600080600e60008573ffffffffffffffffffffffffffffffffffffffff1673ffffffffffffffffffffffffffffffffffffffff168152602001908152602001600020805480602002602001604051908101604052809291908181526020018280548015610a6757602002820191906000526020600020905b815481526020019060010190808311610a53575b5050505050905060005b8151811015610b03576000828281518110610a8f57610a8e612ef7565b5b6020026020010151905084600d60008381526020019081526020016000205411610aef5760116000848481518110610aca57610ac9612ef7565b5b602002602001015181526020019081526020016000205484610aec9190612c36565b93505b508080610afb90612df0565b915050610a71565b505092915050565b60008060001b6006541415610b55576040517f08c379a0000000000000000000000000000000000000000000000000000000008152600401610b4c906129b8565b60405180910390fd5b600654905090565b600080610b68611beb565b9050610b75858285611dbe565b610b80858585611e4a565b60019150509392505050565b60006012905090565b7fdd970dd9b5bfe707922155b058a407655cb18288b807e2216442bca8ad83d6b5610bbe6111df565b604051610bcb91906129f8565b60405180910390a17fdd970dd9b5bfe707922155b058a407655cb18288b807e2216442bca8ad83d6b581604051610c02919061298a565b60405180910390a160008111610c4d576040517f08c379a0000000000000000000000000000000000000000000000000000000008152600401610c4490612ac6565b60405180910390fd5b610c556111df565b811015610c97576040517f08c379a0000000000000000000000000000000000000000000000000000000008152600401610c8e90612a66565b60405180910390fd5b610c9f6111df565b811115610ce1576040517f08c379a0000000000000000000000000000000000000000000000000000000008152600401610cd89061294a565b60405180910390fd5b600c6000828152602001908152602001600020829080600181540180825580915050600190039060005260206000200160009091909190915055600e60003273ffffffffffffffffffffffffffffffffffffffff1673ffffffffffffffffffffffffffffffffffffffff16815260200190815260200160002082908060018154018082558091505060019003906000526020600020016000909190919091505532600f600084815260200190815260200160002060006101000a81548173ffffffffffffffffffffffffffffffffffffffff021916908373ffffffffffffffffffffffffffffffffffffffff16021790555080600d6000848152602001908152602001600020819055505050565b600080610dfa611beb565b9050610e1b818585610e0c858961175b565b610e169190612c36565b611bf3565b600191505092915050565b8060068190555042600781905550614e206009819055506002600a8190555050565b6000805b6012600084815260200190815260200160002080549050811015610f0f578373ffffffffffffffffffffffffffffffffffffffff16601260008581526020019081526020016000208281548110610ea657610ea5612ef7565b5b9060005260206000200160009054906101000a900473ffffffffffffffffffffffffffffffffffffffff1673ffffffffffffffffffffffffffffffffffffffff161415610ef65760019150610efb565b610efc565b5b8080610f0790612df0565b915050610e4c565b5092915050565b600080600090505b600e60008573ffffffffffffffffffffffffffffffffffffffff1673ffffffffffffffffffffffffffffffffffffffff16815260200190815260200160002080549050811015611002576000600e60008673ffffffffffffffffffffffffffffffffffffffff1673ffffffffffffffffffffffffffffffffffffffff1681526020019081526020016000208281548110610fbb57610fba612ef7565b5b9060005260206000200154905083600d6000838152602001908152602001600020541415610fee57600192505050611008565b508080610ffa90612df0565b915050610f1e565b50600090505b92915050565b8160146000838152602001908152602001600020819055505050565b600560009054906101000a900473ffffffffffffffffffffffffffffffffffffffff1673ffffffffffffffffffffffffffffffffffffffff163273ffffffffffffffffffffffffffffffffffffffff16146110ba576040517f08c379a00000000000000000000000000000000000000000000000000000000081526004016110b190612ae6565b60405180910390fd5b6010600083815260200190815260200160002060009054906101000a900460ff161561111b576040517f08c379a0000000000000000000000000000000000000000000000000000000008152600401611112906129d8565b60405180910390fd5b80601160008481526020019081526020016000208190555060016010600084815260200190815260200160002060006101000a81548160ff0219169083151502179055505050565b60008060008373ffffffffffffffffffffffffffffffffffffffff1673ffffffffffffffffffffffffffffffffffffffff168152602001908152602001600020549050919050565b6000600a54600c600084815260200190815260200160002080549050106111d557600190506111da565b600090505b919050565b60008060075442600b546111f39190612c36565b6111fd9190612cbd565b90506009548161120d9190612c8c565b60016112199190612c36565b91505090565b60008060075442600b546112339190612c36565b61123d9190612cbd565b90506009548161124d9190612e39565b60095461125a9190612cbd565b91505090565b60606004805461126f90612d8d565b80601f016020809104026020016040519081016040528092919081815260200182805461129b90612d8d565b80156112e85780601f106112bd576101008083540402835291602001916112e8565b820191906000526020600020905b8154815290600101906020018083116112cb57829003601f168201915b5050505050905090565b600560009054906101000a900473ffffffffffffffffffffffffffffffffffffffff1681565b600080611323611beb565b90506000611331828661175b565b905083811015611376576040517f08c379a000000000000000000000000000000000000000000000000000000000815260040161136d90612aa6565b60405180910390fd5b6113838286868403611bf3565b60019250505092915050565b60065481565b6000806113a0611beb565b90506113ad818585611e4a565b600191505092915050565b60085481565b8060088190555050565b6060600c600083815260200190815260200160002080548060200260200160405190810160405280929190818152602001828054801561142757602002820191906000526020600020905b815481526020019060010190808311611413575b50505050509050919050565b6000600a5411801561145d5750600a54600c60008381526020019081526020016000208054905010155b80156114985750600115156013600083815260200190815260200160002060009054906101000a900460ff16151514806114975750600181145b5b156114be576114a561121f565b600b60008282546114b69190612c36565b925050819055505b50565b600560009054906101000a900473ffffffffffffffffffffffffffffffffffffffff1673ffffffffffffffffffffffffffffffffffffffff163273ffffffffffffffffffffffffffffffffffffffff1614611551576040517f08c379a000000000000000000000000000000000000000000000000000000000815260040161154890612ae6565b60405180910390fd5b80600a8190555050565b600560009054906101000a900473ffffffffffffffffffffffffffffffffffffffff1673ffffffffffffffffffffffffffffffffffffffff163273ffffffffffffffffffffffffffffffffffffffff16146115eb576040517f08c379a00000000000000000000000000000000000000000000000000000000081526004016115e290612ae6565b60405180910390fd5b60005b8251811015611698576012600083815260200190815260200160002083828151811061161d5761161c612ef7565b5b60200260200101519080600181540180825580915050600190039060005260206000200160009091909190916101000a81548173ffffffffffffffffffffffffffffffffffffffff021916908373ffffffffffffffffffffffffffffffffffffffff160217905550808061169090612df0565b9150506115ee565b505050565b600060146000838152602001908152602001600020549050919050565b60606012600083815260200190815260200160002080548060200260200160405190810160405280929190818152602001828054801561174f57602002820191906000526020600020905b8160009054906101000a900473ffffffffffffffffffffffffffffffffffffffff1673ffffffffffffffffffffffffffffffffffffffff1681526020019060010190808311611705575b50505050509050919050565b6000600160008473ffffffffffffffffffffffffffffffffffffffff1673ffffffffffffffffffffffffffffffffffffffff16815260200190815260200160002060008373ffffffffffffffffffffffffffffffffffffffff1673ffffffffffffffffffffffffffffffffffffffff16815260200190815260200160002054905092915050565b600560009054906101000a900473ffffffffffffffffffffffffffffffffffffffff1673ffffffffffffffffffffffffffffffffffffffff163273ffffffffffffffffffffffffffffffffffffffff1614611872576040517f08c379a000000000000000000000000000000000000000000000000000000000815260040161186990612ae6565b60405180910390fd5b60405180604001604052808373ffffffffffffffffffffffffffffffffffffffff168152602001828152506015600085815260200190815260200160002060008201518160000160006101000a81548173ffffffffffffffffffffffffffffffffffffffff021916908373ffffffffffffffffffffffffffffffffffffffff16021790555060208201518160010155905050505050565b600080600190505b6119196111df565b8111611a2f576000600c600083815260200190815260200160002080548060200260200160405190810160405280929190818152602001828054801561197e57602002820191906000526020600020905b81548152602001906001019080831161196a575b5050505050905060005b8151811015611a1a5760008282815181106119a6576119a5612ef7565b5b6020026020010151905085600d60008381526020019081526020016000205411611a0657601160008484815181106119e1576119e0612ef7565b5b602002602001015181526020019081526020016000205485611a039190612c36565b94505b508080611a1290612df0565b915050611988565b50508080611a2790612df0565b915050611911565b50919050565b6000600a54905090565b6000600f600083815260200190815260200160002060009054906101000a900473ffffffffffffffffffffffffffffffffffffffff169050919050565b60008060001b6008541415611ac6576040517f08c379a0000000000000000000000000000000000000000000000000000000008152600401611abd90612a86565b60405180910390fd5b600854905090565b611ad66120cc565b600560009054906101000a900473ffffffffffffffffffffffffffffffffffffffff1673ffffffffffffffffffffffffffffffffffffffff163273ffffffffffffffffffffffffffffffffffffffff1614611b66576040517f08c379a0000000000000000000000000000000000000000000000000000000008152600401611b5d90612ae6565b60405180910390fd5b601560008381526020019081526020016000206040518060400160405290816000820160009054906101000a900473ffffffffffffffffffffffffffffffffffffffff1673ffffffffffffffffffffffffffffffffffffffff1673ffffffffffffffffffffffffffffffffffffffff1681526020016001820154815250509050919050565b600033905090565b600073ffffffffffffffffffffffffffffffffffffffff168373ffffffffffffffffffffffffffffffffffffffff161415611c63576040517f08c379a0000000000000000000000000000000000000000000000000000000008152600401611c5a90612a46565b60405180910390fd5b600073ffffffffffffffffffffffffffffffffffffffff168273ffffffffffffffffffffffffffffffffffffffff161415611cd3576040517f08c379a0000000000000000000000000000000000000000000000000000000008152600401611cca9061290a565b60405180910390fd5b80600160008573ffffffffffffffffffffffffffffffffffffffff1673ffffffffffffffffffffffffffffffffffffffff16815260200190815260200160002060008473ffffffffffffffffffffffffffffffffffffffff1673ffffffffffffffffffffffffffffffffffffffff168152602001908152602001600020819055508173ffffffffffffffffffffffffffffffffffffffff168373ffffffffffffffffffffffffffffffffffffffff167f8c5be1e5ebec7d5bd14f71427d1e84f3dd0314c0f7b2291e5b200ac8c7c3b92583604051611db19190612b21565b60405180910390a3505050565b6000611dca848461175b565b90507fffffffffffffffffffffffffffffffffffffffffffffffffffffffffffffffff8114611e445781811015611e36576040517f08c379a0000000000000000000000000000000000000000000000000000000008152600401611e2d9061292a565b60405180910390fd5b611e438484848403611bf3565b5b50505050565b600073ffffffffffffffffffffffffffffffffffffffff168373ffffffffffffffffffffffffffffffffffffffff161415611eba576040517f08c379a0000000000000000000000000000000000000000000000000000000008152600401611eb190612a26565b60405180910390fd5b600073ffffffffffffffffffffffffffffffffffffffff168273ffffffffffffffffffffffffffffffffffffffff161415611f2a576040517f08c379a0000000000000000000000000000000000000000000000000000000008152600401611f21906128ea565b60405180910390fd5b611f358383836120c2565b60008060008573ffffffffffffffffffffffffffffffffffffffff1673ffffffffffffffffffffffffffffffffffffffff16815260200190815260200160002054905081811015611fbb576040517f08c379a0000000000000000000000000000000000000000000000000000000008152600401611fb29061296a565b60405180910390fd5b8181036000808673ffffffffffffffffffffffffffffffffffffffff1673ffffffffffffffffffffffffffffffffffffffff16815260200190815260200160002081905550816000808573ffffffffffffffffffffffffffffffffffffffff1673ffffffffffffffffffffffffffffffffffffffff168152602001908152602001600020600082825401925050819055508273ffffffffffffffffffffffffffffffffffffffff168473ffffffffffffffffffffffffffffffffffffffff167fddf252ad1be2c89b69c2b068fc378daa952ba7f163c4a11628f55a4df523b3ef846040516120a99190612b21565b60405180910390a36120bc8484846120c7565b50505050565b505050565b505050565b6040518060400160405280600073ffffffffffffffffffffffffffffffffffffffff168152602001600081525090565b600061210f61210a84612b7c565b612b57565b9050808382526020820190508285602086028201111561213257612131612f5a565b5b60005b858110156121625781612148888261216c565b845260208401935060208301925050600181019050612135565b5050509392505050565b60008135905061217b81613360565b92915050565b600082601f83011261219657612195612f55565b5b81356121a68482602086016120fc565b91505092915050565b6000813590506121be81613377565b92915050565b6000813590506121d38161338e565b92915050565b6000813590506121e8816133a5565b92915050565b60006020828403121561220457612203612f64565b5b60006122128482850161216c565b91505092915050565b6000806040838503121561223257612231612f64565b5b60006122408582860161216c565b92505060206122518582860161216c565b9150509250929050565b60008060006060848603121561227457612273612f64565b5b60006122828682870161216c565b93505060206122938682870161216c565b92505060406122a4868287016121d9565b9150509250925092565b600080604083850312156122c5576122c4612f64565b5b60006122d38582860161216c565b92505060206122e4858286016121d9565b9150509250929050565b6000806040838503121561230557612304612f64565b5b600083013567ffffffffffffffff81111561232357612322612f5f565b5b61232f85828601612181565b9250506020612340858286016121d9565b9150509250929050565b6000602082840312156123605761235f612f64565b5b600061236e848285016121af565b91505092915050565b6000806000606084860312156123905761238f612f64565b5b600061239e868287016121af565b93505060206123af8682870161216c565b92505060406123c0868287016121c4565b9150509250925092565b600080604083850312156123e1576123e0612f64565b5b60006123ef858286016121af565b9250506020612400858286016121d9565b9150509250929050565b6000602082840312156124205761241f612f64565b5b600061242e848285016121d9565b91505092915050565b60006124438383612467565b60208301905092915050565b600061245b8383612550565b60208301905092915050565b61247081612cf1565b82525050565b61247f81612cf1565b82525050565b600061249082612bc8565b61249a8185612c03565b93506124a583612ba8565b8060005b838110156124d65781516124bd8882612437565b97506124c883612be9565b9250506001810190506124a9565b5085935050505092915050565b60006124ee82612bd3565b6124f88185612c14565b935061250383612bb8565b8060005b8381101561253457815161251b888261244f565b975061252683612bf6565b925050600181019050612507565b5085935050505092915050565b61254a81612d03565b82525050565b61255981612d0f565b82525050565b61256881612d0f565b82525050565b61257781612d19565b82525050565b600061258882612bde565b6125928185612c25565b93506125a2818560208601612d5a565b6125ab81612f69565b840191505092915050565b60006125c3602383612c25565b91506125ce82612f7a565b604082019050919050565b60006125e6602283612c25565b91506125f182612fc9565b604082019050919050565b6000612609601d83612c25565b915061261482613018565b602082019050919050565b600061262c602783612c25565b915061263782613041565b604082019050919050565b600061264f602683612c25565b915061265a82613090565b604082019050919050565b6000612672601183612c25565b915061267d826130df565b602082019050919050565b6000612695601783612c25565b91506126a082613108565b602082019050919050565b60006126b8602083612c25565b91506126c382613131565b602082019050919050565b60006126db600b83612c25565b91506126e68261315a565b602082019050919050565b60006126fe602583612c25565b915061270982613183565b604082019050919050565b6000612721602483612c25565b915061272c826131d2565b604082019050919050565b6000612744602583612c25565b915061274f82613221565b604082019050919050565b6000612767601c83612c25565b915061277282613270565b602082019050919050565b600061278a602583612c25565b915061279582613299565b604082019050919050565b60006127ad602a83612c25565b91506127b8826132e8565b604082019050919050565b60006127d0601c83612c25565b91506127db82613337565b602082019050919050565b6040820160008201516127fc6000850182612467565b50602082015161280f602085018261256e565b50505050565b61281e81612d43565b82525050565b61282d81612d4d565b82525050565b60006020820190506128486000830184612476565b92915050565b600060208201905081810360008301526128688184612485565b905092915050565b6000602082019050818103600083015261288a81846124e3565b905092915050565b60006020820190506128a76000830184612541565b92915050565b60006020820190506128c2600083018461255f565b92915050565b600060208201905081810360008301526128e2818461257d565b905092915050565b60006020820190508181036000830152612903816125b6565b9050919050565b60006020820190508181036000830152612923816125d9565b9050919050565b60006020820190508181036000830152612943816125fc565b9050919050565b600060208201905081810360008301526129638161261f565b9050919050565b6000602082019050818103600083015261298381612642565b9050919050565b600060408201905081810360008301526129a381612665565b90506129b26020830184612815565b92915050565b600060208201905081810360008301526129d181612688565b9050919050565b600060208201905081810360008301526129f1816126ab565b9050919050565b60006040820190508181036000830152612a11816126ce565b9050612a206020830184612815565b92915050565b60006020820190508181036000830152612a3f816126f1565b9050919050565b60006020820190508181036000830152612a5f81612714565b9050919050565b60006020820190508181036000830152612a7f81612737565b9050919050565b60006020820190508181036000830152612a9f8161275a565b9050919050565b60006020820190508181036000830152612abf8161277d565b9050919050565b60006020820190508181036000830152612adf816127a0565b9050919050565b60006020820190508181036000830152612aff816127c3565b9050919050565b6000604082019050612b1b60008301846127e6565b92915050565b6000602082019050612b366000830184612815565b92915050565b6000602082019050612b516000830184612824565b92915050565b6000612b61612b72565b9050612b6d8282612dbf565b919050565b6000604051905090565b600067ffffffffffffffff821115612b9757612b96612f26565b5b602082029050602081019050919050565b6000819050602082019050919050565b6000819050602082019050919050565b600081519050919050565b600081519050919050565b600081519050919050565b6000602082019050919050565b6000602082019050919050565b600082825260208201905092915050565b600082825260208201905092915050565b600082825260208201905092915050565b6000612c4182612d43565b9150612c4c83612d43565b9250827fffffffffffffffffffffffffffffffffffffffffffffffffffffffffffffffff03821115612c8157612c80612e6a565b5b828201905092915050565b6000612c9782612d43565b9150612ca283612d43565b925082612cb257612cb1612e99565b5b828204905092915050565b6000612cc882612d43565b9150612cd383612d43565b925082821015612ce657612ce5612e6a565b5b828203905092915050565b6000612cfc82612d23565b9050919050565b60008115159050919050565b6000819050919050565b6000819050919050565b600073ffffffffffffffffffffffffffffffffffffffff82169050919050565b6000819050919050565b600060ff82169050919050565b60005b83811015612d78578082015181840152602081019050612d5d565b83811115612d87576000848401525b50505050565b60006002820490506001821680612da557607f821691505b60208210811415612db957612db8612ec8565b5b50919050565b612dc882612f69565b810181811067ffffffffffffffff82111715612de757612de6612f26565b5b80604052505050565b6000612dfb82612d43565b91507fffffffffffffffffffffffffffffffffffffffffffffffffffffffffffffffff821415612e2e57612e2d612e6a565b5b600182019050919050565b6000612e4482612d43565b9150612e4f83612d43565b925082612e5f57612e5e612e99565b5b828206905092915050565b7f4e487b7100000000000000000000000000000000000000000000000000000000600052601160045260246000fd5b7f4e487b7100000000000000000000000000000000000000000000000000000000600052601260045260246000fd5b7f4e487b7100000000000000000000000000000000000000000000000000000000600052602260045260246000fd5b7f4e487b7100000000000000000000000000000000000000000000000000000000600052603260045260246000fd5b7f4e487b7100000000000000000000000000000000000000000000000000000000600052604160045260246000fd5b600080fd5b600080fd5b600080fd5b600080fd5b6000601f19601f8301169050919050565b7f45524332303a207472616e7366657220746f20746865207a65726f206164647260008201527f6573730000000000000000000000000000000000000000000000000000000000602082015250565b7f45524332303a20617070726f766520746f20746865207a65726f20616464726560008201527f7373000000000000000000000000000000000000000000000000000000000000602082015250565b7f45524332303a20696e73756666696369656e7420616c6c6f77616e6365000000600082015250565b7f43616e6e6f742061646420616e2075706461746520666f72206120667574757260008201527f6520726f756e6400000000000000000000000000000000000000000000000000602082015250565b7f45524332303a207472616e7366657220616d6f756e742065786365656473206260008201527f616c616e63650000000000000000000000000000000000000000000000000000602082015250565b7f696e73657274656420526f756e64203a20000000000000000000000000000000600082015250565b7f47656e65736973206d6f64656c206e6f74206578697374000000000000000000600082015250565b7f5570646174652068617320616c7265616479206265656e207265776172646564600082015250565b7f637572526f756e64203a20000000000000000000000000000000000000000000600082015250565b7f45524332303a207472616e736665722066726f6d20746865207a65726f20616460008201527f6472657373000000000000000000000000000000000000000000000000000000602082015250565b7f45524332303a20617070726f76652066726f6d20746865207a65726f2061646460008201527f7265737300000000000000000000000000000000000000000000000000000000602082015250565b7f43616e6e6f742061646420616e2075706461746520666f72206120706173742060008201527f726f756e64000000000000000000000000000000000000000000000000000000602082015250565b7f4d6f64656c20617263686974656374757265206e6f7420657869737400000000600082015250565b7f45524332303a2064656372656173656420616c6c6f77616e63652062656c6f7760008201527f207a65726f000000000000000000000000000000000000000000000000000000602082015250565b7f43616e6e6f742061646420616e2075706461746520666f72207468652067656e60008201527f6573697320726f756e6400000000000000000000000000000000000000000000602082015250565b7f4e6f74207468652072656769737465726564206576616c7561746f7200000000600082015250565b61336981612cf1565b811461337457600080fd5b50565b61338081612d0f565b811461338b57600080fd5b50565b61339781612d19565b81146133a257600080fd5b50565b6133ae81612d43565b81146133b957600080fd5b5056fea264697066735822122027946f5e3681c62cf00b79b2525cf38b1fe2071036c64f7e219bbdede81892d664736f6c63430008060033",
  "immutableReferences": {},
  "source": "// pragma solidity >=0.4.21 <0.7.0;\npragma solidity ^0.8.6;\npragma experimental ABIEncoderV2;\nimport \"@openzeppelin/contracts/token/ERC20/ERC20.sol\";\n\n/// @title Records contributions made to a Crowdsourcing Federated Learning process\n/// @author Harry Cai\ncontract Crowdsource is ERC20 {\n    /// @notice Address of contract creator, who evaluates updates\n    address public evaluator;\n\n    /// @notice IPFS CID of genesis model\n    bytes32 public genesis;\n\n    /// @dev The timestamp when the genesis model was upload\n    uint256 internal genesisTimestamp;\n\n    /// @notice IPFS CID of model architecture\n    bytes32 public modelArchitecture;\n\n    /// @dev Duration of each training round in seconds\n    uint256 internal roundDuration;\n\n    /// @dev Number of updates before training round automatically ends. (If 0, always wait the full roundDuration)\n    uint256 internal maxNumUpdates;\n\n    /// @dev Total number of seconds skipped when training rounds finish early\n    uint256 internal timeSkipped;\n\n    /// @dev The IPFS CIDs of model updates in each round\n    mapping(uint256 => bytes32[]) internal updatesInRound;\n\n    /// @dev The round to which each model update belongs\n    mapping(bytes32 => uint256) internal updateRound;\n\n    /// @dev The IPFS CIDs of model updates made by each address\n    mapping(address => bytes32[]) internal updatesFromAddress;\n\n    /// @dev The Account of model updates\n    mapping( bytes32 => address) internal accountsFromUpdate;\n\n    /// @dev Whether or not each model update has been evaluated\n    mapping(bytes32 => bool) internal tokensAssigned;\n\n    /// @dev The contributivity score for each model update, if evaluated\n    mapping(bytes32 => uint256) internal tokens;\n\n    /// @dev Current Round's Trainer list\n    mapping(uint256 => address[]) internal curTrainers;\n\n    /// @dev Current Round's Evaluation complete flag\n    mapping(uint256 => bool) internal evalflag;\n\n    /// @dev Global model for each rounds\n    mapping(uint256 => bytes32) internal globalmodel;\n\n    struct ScoreandAccount {\n        address account;\n        int256 score;\n    }\n\n    /// @dev Account, Scores by cids\n    mapping(bytes32 => ScoreandAccount) internal score;\n\n    event Log(string _myString , uint256 round);\n\n    /// @notice Constructor. The address that deploys the contract is set as the evaluator.\n       constructor() public ERC20(\"FLToken\",\"FLT\"){\n        // evaluator = msg.sender;\n        _mint(msg.sender,1e25);\n        evaluator = tx.origin;\n        }\n\n    modifier evaluatorOnly() {\n        // require(msg.sender == evaluator, \"Not the registered evaluator\");\n        require(tx.origin == evaluator, \"Not the registered evaluator\");\n        _;\n    }\n\n    function saveGlobalmodel(bytes32 _cid, uint256 _round) external {\n        globalmodel[_round] = _cid;\n    }\n\n    function getGlobalmodel (uint256 _round) external view returns (bytes32){\n        return globalmodel[_round];\n    }\n\n    function saveScores(bytes32 _cid, address _address, int256 _score) external evaluatorOnly(){\n        score[_cid] = ScoreandAccount(_address,_score);\n    }\n\n    function getScores(bytes32 _cid) external view evaluatorOnly returns(ScoreandAccount memory){\n        return score[_cid];\n    }\n\n    function completeEval(uint256 _round) external {\n//        require(evalflag[_round] == false,\"evaluation completed already.\");\n        evalflag[_round] = true;\n    }\n\n    function getCurTrainers (uint256 _round) external view returns (address[] memory  trainers){\n        trainers = curTrainers[_round];\n    }\n\n    function isTrainer(address _address, uint256 _round) external view returns (bool trainCheckFlag){\n        trainCheckFlag=false;\n\n        for(uint i = 0; i < curTrainers[_round].length ; i++){\n            if(curTrainers[_round][i] == _address){\n                trainCheckFlag= true;\n            }else{\n                continue;\n            }\n        }\n        return trainCheckFlag;\n    }\n\n    function setCurTrainer(address[] memory _address, uint256 _round) public evaluatorOnly() {\n        for (uint i = 0; i<_address.length; i++){\n             curTrainers[_round].push(_address[i]);\n        }\n    }\n\n    function changeMaxNumUpdates(uint256 _maxNum) external evaluatorOnly(){\n        maxNumUpdates = _maxNum;\n    }\n\n    /// @return round The index of the current training round.\n    function currentRound() public view returns (uint256 round) {\n        uint256 timeElapsed = timeSkipped + block.timestamp - genesisTimestamp;\n        round = 1 + (timeElapsed / roundDuration);\n    }\n\n\n    /// @return remaining The number of seconds remaining in the current training round.\n    function secondsRemaining() public view returns (uint256 remaining) {\n        uint256 timeElapsed = timeSkipped + block.timestamp - genesisTimestamp;\n        remaining = roundDuration - (timeElapsed % roundDuration);\n    }\n\n    /// @return The CID's of updates in the given training round.\n    function updates(uint256 _round) external view returns (bytes32[] memory) {\n        return updatesInRound[_round];\n    }\n\n    /// @return count Token count of the given address up to and including the given round.\n    function countTokens(address _address, uint256 _round)\n        external\n        view\n        returns (uint256 count)\n    {\n        bytes32[] memory updates = updatesFromAddress[_address];\n        for (uint256 i = 0; i < updates.length; i++) {\n            bytes32 update = updates[i];\n            if (updateRound[update] <= _round) {\n                count += tokens[updates[i]];\n            }\n        }\n    }\n\n    /// @return count Total number of tokens up to and including the given round.\n    function countTotalTokens(uint256 _round) external view returns (uint256 count) {\n        for (uint256 i = 1; i <= currentRound(); i++) {\n            bytes32[] memory updates = updatesInRound[i];\n            for (uint256 j = 0; j < updates.length; j++) {\n                bytes32 update = updates[j];\n                if (updateRound[update] <= _round){\n                    count += tokens[updates[j]];\n                }\n            }\n        }\n    }\n\n    /// @return Whether the given address made a contribution in the given round.\n    function madeContribution(address _address, uint256 _round)\n        public\n        view\n        returns (bool)\n    {\n        for (uint256 i = 0; i < updatesFromAddress[_address].length; i++) {\n            bytes32 update = updatesFromAddress[_address][i];\n            if (updateRound[update] == _round) {\n                return true;\n            }\n        }\n        return false;\n    }\n\n    /// @notice Sets a new evaluator.\n    function setEvaluator(address _newEvaluator) external evaluatorOnly() {\n        evaluator = _newEvaluator;\n    }\n\n    /// @notice Starts training by setting the genesis model. Can only be called once.\n    /// @param _cid The CID of the genesis model\n    function setGenesis(\n        bytes32 _cid\n    ) public {\n        //require(genesis == 0, \"Genesis has already been set\");\n        genesis = _cid;\n        genesisTimestamp = block.timestamp;\n        roundDuration = 20000;\n        maxNumUpdates = 2;\n    }\n\n    function setModelArchitecture(\n        bytes32 _cid\n    ) public {\n        modelArchitecture = _cid;\n    }\n\n    function getModelArchitecture() external view returns (bytes32){\n        require(modelArchitecture != 0, \"Model architecture not exist\");\n        return modelArchitecture;\n    }\n\n    function getGenesis() external view returns (bytes32){\n        require(genesis != 0, \"Genesis model not exist\");\n        return genesis;\n    }\n    /// @notice Records a training contribution in the current round.\n    function addModelUpdate(bytes32 _cid, uint256 _round) external {\n        emit Log(\"curRound : \", currentRound());\n        emit Log(\"inserted Round : \", _round);\n        require(_round > 0, \"Cannot add an update for the genesis round\");\n        require(\n            _round >= currentRound(),\n            \"Cannot add an update for a past round\"\n        );\n        require(\n            _round <= currentRound(),\n            \"Cannot add an update for a future round\"\n        );\n//        require(\n//            // !madeContribution(msg.sender, _round),\n//            !madeContribution(tx.origin, _round),\n//            \"Already added an update for this round\"\n//        );\n\n        updatesInRound[_round].push(_cid);\n        // updatesFromAddress[msg.sender].push(_cid);\n        // accountsFromUpdate[_cid] = msg.sender;\n        updatesFromAddress[tx.origin].push(_cid);\n        accountsFromUpdate[_cid] = tx.origin;\n        updateRound[_cid] = _round;\n\n        // if (\n        //     maxNumUpdates > 0 && updatesInRound[_round].length >= maxNumUpdates && _round == 1\n        // ) {\n        //     // Skip to the end of training round\n        //     timeSkipped += secondsRemaining();\n        // }\n    }\n\n     function skipRound(uint256 _round) \n        external\n    {\n        // require( maxNumUpdates > 0 && updatesInRound[_round].length >= maxNumUpdates, \"trainers did not finish their training process\");\n        // require( evalflag[_round] == true, \"evaluation is not completed\");\n        // timeSkipped += secondsRemaining();\n        if (\n            maxNumUpdates > 0 && updatesInRound[_round].length >= maxNumUpdates && (evalflag[_round] == true || _round ==1)\n        ) {\n            // Skip to the end of training round\n            timeSkipped += secondsRemaining();\n        }\n    }\n\n    function waitTrainers (uint256 _round) external view returns (bool) {\n        if(updatesInRound[_round].length >= maxNumUpdates){\n            return true;\n        }else{\n            return false;\n        }\n    }\n\n    function getmaxNum () public view returns (uint256) {\n        return maxNumUpdates;\n    }\n\n    function getAccountfromUpdate (bytes32 _cid) external view returns(address ){\n        return accountsFromUpdate[_cid];\n    }\n\n    /// @notice Assigns a token count to an update.\n    /// @param _cid The update being rewarded\n    /// @param _numTokens The number of tokens to award; should be based on marginal value contribution\n    function setTokens(bytes32 _cid, uint256 _numTokens)\n        external\n        evaluatorOnly()\n    {\n        require(!tokensAssigned[_cid], \"Update has already been rewarded\");\n        tokens[_cid] = _numTokens;\n        tokensAssigned[_cid] = true;\n    }\n}\n",
  "sourcePath": "/media/hdd1/es_workspace/D-DES/src/py/flwr/client/eth_client/contracts/Crowdsource.sol",
  "compiler": {
    "name": "solc",
    "version": "0.8.6+commit.11564f7e.Emscripten.clang"
  },
  "schemaVersion": "3.4.11",
  "updatedAt": "2023-07-04T05:09:23.987Z",
  "networkType": "ethereum",
  "devdoc": {
    "author": "Harry Cai",
    "kind": "dev",
    "methods": {
      "allowance(address,address)": {
        "details": "See {IERC20-allowance}."
      },
      "approve(address,uint256)": {
        "details": "See {IERC20-approve}. NOTE: If `amount` is the maximum `uint256`, the allowance is not updated on `transferFrom`. This is semantically equivalent to an infinite approval. Requirements: - `spender` cannot be the zero address."
      },
      "balanceOf(address)": {
        "details": "See {IERC20-balanceOf}."
      },
      "countTokens(address,uint256)": {
        "returns": {
          "count": "Token count of the given address up to and including the given round."
        }
      },
      "countTotalTokens(uint256)": {
        "returns": {
          "count": "Total number of tokens up to and including the given round."
        }
      },
      "currentRound()": {
        "returns": {
          "round": "The index of the current training round."
        }
      },
      "decimals()": {
        "details": "Returns the number of decimals used to get its user representation. For example, if `decimals` equals `2`, a balance of `505` tokens should be displayed to a user as `5.05` (`505 / 10 ** 2`). Tokens usually opt for a value of 18, imitating the relationship between Ether and Wei. This is the value {ERC20} uses, unless this function is overridden; NOTE: This information is only used for _display_ purposes: it in no way affects any of the arithmetic of the contract, including {IERC20-balanceOf} and {IERC20-transfer}."
      },
      "decreaseAllowance(address,uint256)": {
        "details": "Atomically decreases the allowance granted to `spender` by the caller. This is an alternative to {approve} that can be used as a mitigation for problems described in {IERC20-approve}. Emits an {Approval} event indicating the updated allowance. Requirements: - `spender` cannot be the zero address. - `spender` must have allowance for the caller of at least `subtractedValue`."
      },
      "increaseAllowance(address,uint256)": {
        "details": "Atomically increases the allowance granted to `spender` by the caller. This is an alternative to {approve} that can be used as a mitigation for problems described in {IERC20-approve}. Emits an {Approval} event indicating the updated allowance. Requirements: - `spender` cannot be the zero address."
      },
      "madeContribution(address,uint256)": {
        "returns": {
          "_0": "Whether the given address made a contribution in the given round."
        }
      },
      "name()": {
        "details": "Returns the name of the token."
      },
      "secondsRemaining()": {
        "returns": {
          "remaining": "The number of seconds remaining in the current training round."
        }
      },
      "setGenesis(bytes32)": {
        "params": {
          "_cid": "The CID of the genesis model"
        }
      },
      "setTokens(bytes32,uint256)": {
        "params": {
          "_cid": "The update being rewarded",
          "_numTokens": "The number of tokens to award; should be based on marginal value contribution"
        }
      },
      "symbol()": {
        "details": "Returns the symbol of the token, usually a shorter version of the name."
      },
      "totalSupply()": {
        "details": "See {IERC20-totalSupply}."
      },
      "transfer(address,uint256)": {
        "details": "See {IERC20-transfer}. Requirements: - `to` cannot be the zero address. - the caller must have a balance of at least `amount`."
      },
      "transferFrom(address,address,uint256)": {
        "details": "See {IERC20-transferFrom}. Emits an {Approval} event indicating the updated allowance. This is not required by the EIP. See the note at the beginning of {ERC20}. NOTE: Does not update the allowance if the current allowance is the maximum `uint256`. Requirements: - `from` and `to` cannot be the zero address. - `from` must have a balance of at least `amount`. - the caller must have allowance for ``from``'s tokens of at least `amount`."
      },
      "updates(uint256)": {
        "returns": {
          "_0": "The CID's of updates in the given training round."
        }
      }
    },
    "stateVariables": {
      "accountsFromUpdate": {
        "details": "The Account of model updates"
      },
      "curTrainers": {
        "details": "Current Round's Trainer list"
      },
      "evalflag": {
        "details": "Current Round's Evaluation complete flag"
      },
      "genesisTimestamp": {
        "details": "The timestamp when the genesis model was upload"
      },
      "globalmodel": {
        "details": "Global model for each rounds"
      },
      "maxNumUpdates": {
        "details": "Number of updates before training round automatically ends. (If 0, always wait the full roundDuration)"
      },
      "roundDuration": {
        "details": "Duration of each training round in seconds"
      },
      "score": {
        "details": "Account, Scores by cids"
      },
      "timeSkipped": {
        "details": "Total number of seconds skipped when training rounds finish early"
      },
      "tokens": {
        "details": "The contributivity score for each model update, if evaluated"
      },
      "tokensAssigned": {
        "details": "Whether or not each model update has been evaluated"
      },
      "updateRound": {
        "details": "The round to which each model update belongs"
      },
      "updatesFromAddress": {
        "details": "The IPFS CIDs of model updates made by each address"
      },
      "updatesInRound": {
        "details": "The IPFS CIDs of model updates in each round"
      }
    },
    "title": "Records contributions made to a Crowdsourcing Federated Learning process",
    "version": 1
  },
  "userdoc": {
    "kind": "user",
    "methods": {
      "addModelUpdate(bytes32,uint256)": {
        "notice": "Records a training contribution in the current round."
      },
      "constructor": {
        "notice": "Constructor. The address that deploys the contract is set as the evaluator."
      },
      "evaluator()": {
        "notice": "Address of contract creator, who evaluates updates"
      },
      "genesis()": {
        "notice": "IPFS CID of genesis model"
      },
      "modelArchitecture()": {
        "notice": "IPFS CID of model architecture"
      },
      "setEvaluator(address)": {
        "notice": "Sets a new evaluator."
      },
      "setGenesis(bytes32)": {
        "notice": "Starts training by setting the genesis model. Can only be called once."
      },
      "setTokens(bytes32,uint256)": {
        "notice": "Assigns a token count to an update."
      }
    },
    "version": 1
  }
}