{
  "contractName": "ERC721",
  "abi": [
    {
      "inputs": [
        {
          "internalType": "string",
          "name": "name_",
          "type": "string"
        },
        {
          "internalType": "string",
          "name": "symbol_",
          "type": "string"
        }
      ],
      "stateMutability": "nonpayable",
      "type": "constructor"
    },
    {
      "anonymous": false,
      "inputs": [
        {
          "indexed": true,
          "internalType": "address",
          "name": "owner",
          "type": "address"
        },
        {
          "indexed": true,
          "internalType": "address",
          "name": "approved",
          "type": "address"
        },
        {
          "indexed": true,
          "internalType": "uint256",
          "name": "tokenId",
          "type": "uint256"
        }
      ],
      "name": "Approval",
      "type": "event"
    },
    {
      "anonymous": false,
      "inputs": [
        {
          "indexed": true,
          "internalType": "address",
          "name": "owner",
          "type": "address"
        },
        {
          "indexed": true,
          "internalType": "address",
          "name": "operator",
          "type": "address"
        },
        {
          "indexed": false,
          "internalType": "bool",
          "name": "approved",
          "type": "bool"
        }
      ],
      "name": "ApprovalForAll",
      "type": "event"
    },
    {
      "anonymous": false,
      "inputs": [
        {
          "indexed": true,
          "internalType": "address",
          "name": "from",
          "type": "address"
        },
        {
          "indexed": true,
          "internalType": "address",
          "name": "to",
          "type": "address"
        },
        {
          "indexed": true,
          "internalType": "uint256",
          "name": "tokenId",
          "type": "uint256"
        }
      ],
      "name": "Transfer",
      "type": "event"
    },
    {
      "inputs": [
        {
          "internalType": "bytes4",
          "name": "interfaceId",
          "type": "bytes4"
        }
      ],
      "name": "supportsInterface",
      "outputs": [
        {
          "internalType": "bool",
          "name": "",
          "type": "bool"
        }
      ],
      "stateMutability": "view",
      "type": "function"
    },
    {
      "inputs": [
        {
          "internalType": "address",
          "name": "owner",
          "type": "address"
        }
      ],
      "name": "balanceOf",
      "outputs": [
        {
          "internalType": "uint256",
          "name": "",
          "type": "uint256"
        }
      ],
      "stateMutability": "view",
      "type": "function"
    },
    {
      "inputs": [
        {
          "internalType": "uint256",
          "name": "tokenId",
          "type": "uint256"
        }
      ],
      "name": "ownerOf",
      "outputs": [
        {
          "internalType": "address",
          "name": "",
          "type": "address"
        }
      ],
      "stateMutability": "view",
      "type": "function"
    },
    {
      "inputs": [],
      "name": "name",
      "outputs": [
        {
          "internalType": "string",
          "name": "",
          "type": "string"
        }
      ],
      "stateMutability": "view",
      "type": "function"
    },
    {
      "inputs": [],
      "name": "symbol",
      "outputs": [
        {
          "internalType": "string",
          "name": "",
          "type": "string"
        }
      ],
      "stateMutability": "view",
      "type": "function"
    },
    {
      "inputs": [
        {
          "internalType": "uint256",
          "name": "tokenId",
          "type": "uint256"
        }
      ],
      "name": "tokenURI",
      "outputs": [
        {
          "internalType": "string",
          "name": "",
          "type": "string"
        }
      ],
      "stateMutability": "view",
      "type": "function"
    },
    {
      "inputs": [
        {
          "internalType": "address",
          "name": "to",
          "type": "address"
        },
        {
          "internalType": "uint256",
          "name": "tokenId",
          "type": "uint256"
        }
      ],
      "name": "approve",
      "outputs": [],
      "stateMutability": "nonpayable",
      "type": "function"
    },
    {
      "inputs": [
        {
          "internalType": "uint256",
          "name": "tokenId",
          "type": "uint256"
        }
      ],
      "name": "getApproved",
      "outputs": [
        {
          "internalType": "address",
          "name": "",
          "type": "address"
        }
      ],
      "stateMutability": "view",
      "type": "function"
    },
    {
      "inputs": [
        {
          "internalType": "address",
          "name": "operator",
          "type": "address"
        },
        {
          "internalType": "bool",
          "name": "approved",
          "type": "bool"
        }
      ],
      "name": "setApprovalForAll",
      "outputs": [],
      "stateMutability": "nonpayable",
      "type": "function"
    },
    {
      "inputs": [
        {
          "internalType": "address",
          "name": "owner",
          "type": "address"
        },
        {
          "internalType": "address",
          "name": "operator",
          "type": "address"
        }
      ],
      "name": "isApprovedForAll",
      "outputs": [
        {
          "internalType": "bool",
          "name": "",
          "type": "bool"
        }
      ],
      "stateMutability": "view",
      "type": "function"
    },
    {
      "inputs": [
        {
          "internalType": "address",
          "name": "from",
          "type": "address"
        },
        {
          "internalType": "address",
          "name": "to",
          "type": "address"
        },
        {
          "internalType": "uint256",
          "name": "tokenId",
          "type": "uint256"
        }
      ],
      "name": "transferFrom",
      "outputs": [],
      "stateMutability": "nonpayable",
      "type": "function"
    },
    {
      "inputs": [
        {
          "internalType": "address",
          "name": "from",
          "type": "address"
        },
        {
          "internalType": "address",
          "name": "to",
          "type": "address"
        },
        {
          "internalType": "uint256",
          "name": "tokenId",
          "type": "uint256"
        }
      ],
      "name": "safeTransferFrom",
      "outputs": [],
      "stateMutability": "nonpayable",
      "type": "function"
    },
    {
      "inputs": [
        {
          "internalType": "address",
          "name": "from",
          "type": "address"
        },
        {
          "internalType": "address",
          "name": "to",
          "type": "address"
        },
        {
          "internalType": "uint256",
          "name": "tokenId",
          "type": "uint256"
        },
        {
          "internalType": "bytes",
          "name": "data",
          "type": "bytes"
        }
      ],
      "name": "safeTransferFrom",
      "outputs": [],
      "stateMutability": "nonpayable",
      "type": "function"
    }
  ],
  "bytecode": "0x60806040523480156200001157600080fd5b50604051620025013803806200250183398181016040528101906200003791906200019f565b81600090805190602001906200004f92919062000071565b5080600190805190602001906200006892919062000071565b505050620003a8565b8280546200007f90620002b9565b90600052602060002090601f016020900481019282620000a35760008555620000ef565b82601f10620000be57805160ff1916838001178555620000ef565b82800160010185558215620000ef579182015b82811115620000ee578251825591602001919060010190620000d1565b5b509050620000fe919062000102565b5090565b5b808211156200011d57600081600090555060010162000103565b5090565b60006200013862000132846200024d565b62000224565b90508281526020810184848401111562000157576200015662000388565b5b6200016484828562000283565b509392505050565b600082601f83011262000184576200018362000383565b5b81516200019684826020860162000121565b91505092915050565b60008060408385031215620001b957620001b862000392565b5b600083015167ffffffffffffffff811115620001da57620001d96200038d565b5b620001e8858286016200016c565b925050602083015167ffffffffffffffff8111156200020c576200020b6200038d565b5b6200021a858286016200016c565b9150509250929050565b60006200023062000243565b90506200023e8282620002ef565b919050565b6000604051905090565b600067ffffffffffffffff8211156200026b576200026a62000354565b5b620002768262000397565b9050602081019050919050565b60005b83811015620002a357808201518184015260208101905062000286565b83811115620002b3576000848401525b50505050565b60006002820490506001821680620002d257607f821691505b60208210811415620002e957620002e862000325565b5b50919050565b620002fa8262000397565b810181811067ffffffffffffffff821117156200031c576200031b62000354565b5b80604052505050565b7f4e487b7100000000000000000000000000000000000000000000000000000000600052602260045260246000fd5b7f4e487b7100000000000000000000000000000000000000000000000000000000600052604160045260246000fd5b600080fd5b600080fd5b600080fd5b600080fd5b6000601f19601f8301169050919050565b61214980620003b86000396000f3fe608060405234801561001057600080fd5b50600436106100cf5760003560e01c80636352211e1161008c578063a22cb46511610066578063a22cb46514610224578063b88d4fde14610240578063c87b56dd1461025c578063e985e9c51461028c576100cf565b80636352211e146101a657806370a08231146101d657806395d89b4114610206576100cf565b806301ffc9a7146100d457806306fdde0314610104578063081812fc14610122578063095ea7b31461015257806323b872dd1461016e57806342842e0e1461018a575b600080fd5b6100ee60048036038101906100e99190611743565b6102bc565b6040516100fb9190611a60565b60405180910390f35b61010c61039e565b6040516101199190611a7b565b60405180910390f35b61013c6004803603810190610137919061179d565b610430565b60405161014991906119f9565b60405180910390f35b61016c60048036038101906101679190611703565b610476565b005b610188600480360381019061018391906115ed565b61058e565b005b6101a4600480360381019061019f91906115ed565b6105ee565b005b6101c060048036038101906101bb919061179d565b61060e565b6040516101cd91906119f9565b60405180910390f35b6101f060048036038101906101eb9190611580565b610695565b6040516101fd9190611bbd565b60405180910390f35b61020e61074d565b60405161021b9190611a7b565b60405180910390f35b61023e600480360381019061023991906116c3565b6107df565b005b61025a60048036038101906102559190611640565b6107f5565b005b6102766004803603810190610271919061179d565b610857565b6040516102839190611a7b565b60405180910390f35b6102a660048036038101906102a191906115ad565b6108bf565b6040516102b39190611a60565b60405180910390f35b60007f80ac58cd000000000000000000000000000000000000000000000000000000007bffffffffffffffffffffffffffffffffffffffffffffffffffffffff1916827bffffffffffffffffffffffffffffffffffffffffffffffffffffffff1916148061038757507f5b5e139f000000000000000000000000000000000000000000000000000000007bffffffffffffffffffffffffffffffffffffffffffffffffffffffff1916827bffffffffffffffffffffffffffffffffffffffffffffffffffffffff1916145b80610397575061039682610953565b5b9050919050565b6060600080546103ad90611d27565b80601f01602080910402602001604051908101604052809291908181526020018280546103d990611d27565b80156104265780601f106103fb57610100808354040283529160200191610426565b820191906000526020600020905b81548152906001019060200180831161040957829003601f168201915b5050505050905090565b600061043b826109bd565b6004600083815260200190815260200160002060009054906101000a900473ffffffffffffffffffffffffffffffffffffffff169050919050565b60006104818261060e565b90508073ffffffffffffffffffffffffffffffffffffffff168373ffffffffffffffffffffffffffffffffffffffff1614156104f2576040517f08c379a00000000000000000000000000000000000000000000000000000000081526004016104e990611b7d565b60405180910390fd5b8073ffffffffffffffffffffffffffffffffffffffff16610511610a08565b73ffffffffffffffffffffffffffffffffffffffff161480610540575061053f8161053a610a08565b6108bf565b5b61057f576040517f08c379a000000000000000000000000000000000000000000000000000000000815260040161057690611b9d565b60405180910390fd5b6105898383610a10565b505050565b61059f610599610a08565b82610ac9565b6105de576040517f08c379a00000000000000000000000000000000000000000000000000000000081526004016105d590611a9d565b60405180910390fd5b6105e9838383610b5e565b505050565b610609838383604051806020016040528060008152506107f5565b505050565b60008061061a83610e58565b9050600073ffffffffffffffffffffffffffffffffffffffff168173ffffffffffffffffffffffffffffffffffffffff16141561068c576040517f08c379a000000000000000000000000000000000000000000000000000000000815260040161068390611b5d565b60405180910390fd5b80915050919050565b60008073ffffffffffffffffffffffffffffffffffffffff168273ffffffffffffffffffffffffffffffffffffffff161415610706576040517f08c379a00000000000000000000000000000000000000000000000000000000081526004016106fd90611b3d565b60405180910390fd5b600360008373ffffffffffffffffffffffffffffffffffffffff1673ffffffffffffffffffffffffffffffffffffffff168152602001908152602001600020549050919050565b60606001805461075c90611d27565b80601f016020809104026020016040519081016040528092919081815260200182805461078890611d27565b80156107d55780601f106107aa576101008083540402835291602001916107d5565b820191906000526020600020905b8154815290600101906020018083116107b857829003601f168201915b5050505050905090565b6107f16107ea610a08565b8383610e95565b5050565b610806610800610a08565b83610ac9565b610845576040517f08c379a000000000000000000000000000000000000000000000000000000000815260040161083c90611a9d565b60405180910390fd5b61085184848484611002565b50505050565b6060610862826109bd565b600061086c61105e565b9050600081511161088c57604051806020016040528060008152506108b7565b8061089684611075565b6040516020016108a79291906119d5565b6040516020818303038152906040525b915050919050565b6000600560008473ffffffffffffffffffffffffffffffffffffffff1673ffffffffffffffffffffffffffffffffffffffff16815260200190815260200160002060008373ffffffffffffffffffffffffffffffffffffffff1673ffffffffffffffffffffffffffffffffffffffff16815260200190815260200160002060009054906101000a900460ff16905092915050565b60007f01ffc9a7000000000000000000000000000000000000000000000000000000007bffffffffffffffffffffffffffffffffffffffffffffffffffffffff1916827bffffffffffffffffffffffffffffffffffffffffffffffffffffffff1916149050919050565b6109c68161114d565b610a05576040517f08c379a00000000000000000000000000000000000000000000000000000000081526004016109fc90611b5d565b60405180910390fd5b50565b600033905090565b816004600083815260200190815260200160002060006101000a81548173ffffffffffffffffffffffffffffffffffffffff021916908373ffffffffffffffffffffffffffffffffffffffff160217905550808273ffffffffffffffffffffffffffffffffffffffff16610a838361060e565b73ffffffffffffffffffffffffffffffffffffffff167f8c5be1e5ebec7d5bd14f71427d1e84f3dd0314c0f7b2291e5b200ac8c7c3b92560405160405180910390a45050565b600080610ad58361060e565b90508073ffffffffffffffffffffffffffffffffffffffff168473ffffffffffffffffffffffffffffffffffffffff161480610b175750610b1681856108bf565b5b80610b5557508373ffffffffffffffffffffffffffffffffffffffff16610b3d84610430565b73ffffffffffffffffffffffffffffffffffffffff16145b91505092915050565b8273ffffffffffffffffffffffffffffffffffffffff16610b7e8261060e565b73ffffffffffffffffffffffffffffffffffffffff1614610bd4576040517f08c379a0000000000000000000000000000000000000000000000000000000008152600401610bcb90611add565b60405180910390fd5b600073ffffffffffffffffffffffffffffffffffffffff168273ffffffffffffffffffffffffffffffffffffffff161415610c44576040517f08c379a0000000000000000000000000000000000000000000000000000000008152600401610c3b90611afd565b60405180910390fd5b610c51838383600161118e565b8273ffffffffffffffffffffffffffffffffffffffff16610c718261060e565b73ffffffffffffffffffffffffffffffffffffffff1614610cc7576040517f08c379a0000000000000000000000000000000000000000000000000000000008152600401610cbe90611add565b60405180910390fd5b6004600082815260200190815260200160002060006101000a81549073ffffffffffffffffffffffffffffffffffffffff02191690556001600360008573ffffffffffffffffffffffffffffffffffffffff1673ffffffffffffffffffffffffffffffffffffffff168152602001908152602001600020600082825403925050819055506001600360008473ffffffffffffffffffffffffffffffffffffffff1673ffffffffffffffffffffffffffffffffffffffff16815260200190815260200160002060008282540192505081905550816002600083815260200190815260200160002060006101000a81548173ffffffffffffffffffffffffffffffffffffffff021916908373ffffffffffffffffffffffffffffffffffffffff160217905550808273ffffffffffffffffffffffffffffffffffffffff168473ffffffffffffffffffffffffffffffffffffffff167fddf252ad1be2c89b69c2b068fc378daa952ba7f163c4a11628f55a4df523b3ef60405160405180910390a4610e538383836001611194565b505050565b60006002600083815260200190815260200160002060009054906101000a900473ffffffffffffffffffffffffffffffffffffffff169050919050565b8173ffffffffffffffffffffffffffffffffffffffff168373ffffffffffffffffffffffffffffffffffffffff161415610f04576040517f08c379a0000000000000000000000000000000000000000000000000000000008152600401610efb90611b1d565b60405180910390fd5b80600560008573ffffffffffffffffffffffffffffffffffffffff1673ffffffffffffffffffffffffffffffffffffffff16815260200190815260200160002060008473ffffffffffffffffffffffffffffffffffffffff1673ffffffffffffffffffffffffffffffffffffffff16815260200190815260200160002060006101000a81548160ff0219169083151502179055508173ffffffffffffffffffffffffffffffffffffffff168373ffffffffffffffffffffffffffffffffffffffff167f17307eab39ab6107e8899845ad3d59bd9653f200f220920489ca2b5937696c3183604051610ff59190611a60565b60405180910390a3505050565b61100d848484610b5e565b6110198484848461119a565b611058576040517f08c379a000000000000000000000000000000000000000000000000000000000815260040161104f90611abd565b60405180910390fd5b50505050565b606060405180602001604052806000815250905090565b60606000600161108484611331565b01905060008167ffffffffffffffff8111156110a3576110a2611de8565b5b6040519080825280601f01601f1916602001820160405280156110d55781602001600182028036833780820191505090505b509050600082602001820190505b600115611142578080600190039150507f3031323334353637383961626364656600000000000000000000000000000000600a86061a8153600a858161112c5761112b611d8a565b5b049450600085141561113d57611142565b6110e3565b819350505050919050565b60008073ffffffffffffffffffffffffffffffffffffffff1661116f83610e58565b73ffffffffffffffffffffffffffffffffffffffff1614159050919050565b50505050565b50505050565b60006111bb8473ffffffffffffffffffffffffffffffffffffffff16611484565b15611324578373ffffffffffffffffffffffffffffffffffffffff1663150b7a026111e4610a08565b8786866040518563ffffffff1660e01b81526004016112069493929190611a14565b602060405180830381600087803b15801561122057600080fd5b505af192505050801561125157506040513d601f19601f8201168201806040525081019061124e9190611770565b60015b6112d4573d8060008114611281576040519150601f19603f3d011682016040523d82523d6000602084013e611286565b606091505b506000815114156112cc576040517f08c379a00000000000000000000000000000000000000000000000000000000081526004016112c390611abd565b60405180910390fd5b805181602001fd5b63150b7a0260e01b7bffffffffffffffffffffffffffffffffffffffffffffffffffffffff1916817bffffffffffffffffffffffffffffffffffffffffffffffffffffffff191614915050611329565b600190505b949350505050565b600080600090507a184f03e93ff9f4daa797ed6e38ed64bf6a1f010000000000000000831061138f577a184f03e93ff9f4daa797ed6e38ed64bf6a1f010000000000000000838161138557611384611d8a565b5b0492506040810190505b6d04ee2d6d415b85acef810000000083106113cc576d04ee2d6d415b85acef810000000083816113c2576113c1611d8a565b5b0492506020810190505b662386f26fc1000083106113fb57662386f26fc1000083816113f1576113f0611d8a565b5b0492506010810190505b6305f5e1008310611424576305f5e100838161141a57611419611d8a565b5b0492506008810190505b612710831061144957612710838161143f5761143e611d8a565b5b0492506004810190505b6064831061146c576064838161146257611461611d8a565b5b0492506002810190505b600a831061147b576001810190505b80915050919050565b6000808273ffffffffffffffffffffffffffffffffffffffff163b119050919050565b60006114ba6114b584611bfd565b611bd8565b9050828152602081018484840111156114d6576114d5611e1c565b5b6114e1848285611ce5565b509392505050565b6000813590506114f8816120b7565b92915050565b60008135905061150d816120ce565b92915050565b600081359050611522816120e5565b92915050565b600081519050611537816120e5565b92915050565b600082601f83011261155257611551611e17565b5b81356115628482602086016114a7565b91505092915050565b60008135905061157a816120fc565b92915050565b60006020828403121561159657611595611e26565b5b60006115a4848285016114e9565b91505092915050565b600080604083850312156115c4576115c3611e26565b5b60006115d2858286016114e9565b92505060206115e3858286016114e9565b9150509250929050565b60008060006060848603121561160657611605611e26565b5b6000611614868287016114e9565b9350506020611625868287016114e9565b92505060406116368682870161156b565b9150509250925092565b6000806000806080858703121561165a57611659611e26565b5b6000611668878288016114e9565b9450506020611679878288016114e9565b935050604061168a8782880161156b565b925050606085013567ffffffffffffffff8111156116ab576116aa611e21565b5b6116b78782880161153d565b91505092959194509250565b600080604083850312156116da576116d9611e26565b5b60006116e8858286016114e9565b92505060206116f9858286016114fe565b9150509250929050565b6000806040838503121561171a57611719611e26565b5b6000611728858286016114e9565b92505060206117398582860161156b565b9150509250929050565b60006020828403121561175957611758611e26565b5b600061176784828501611513565b91505092915050565b60006020828403121561178657611785611e26565b5b600061179484828501611528565b91505092915050565b6000602082840312156117b3576117b2611e26565b5b60006117c18482850161156b565b91505092915050565b6117d381611c71565b82525050565b6117e281611c83565b82525050565b60006117f382611c2e565b6117fd8185611c44565b935061180d818560208601611cf4565b61181681611e2b565b840191505092915050565b600061182c82611c39565b6118368185611c55565b9350611846818560208601611cf4565b61184f81611e2b565b840191505092915050565b600061186582611c39565b61186f8185611c66565b935061187f818560208601611cf4565b80840191505092915050565b6000611898602d83611c55565b91506118a382611e3c565b604082019050919050565b60006118bb603283611c55565b91506118c682611e8b565b604082019050919050565b60006118de602583611c55565b91506118e982611eda565b604082019050919050565b6000611901602483611c55565b915061190c82611f29565b604082019050919050565b6000611924601983611c55565b915061192f82611f78565b602082019050919050565b6000611947602983611c55565b915061195282611fa1565b604082019050919050565b600061196a601883611c55565b915061197582611ff0565b602082019050919050565b600061198d602183611c55565b915061199882612019565b604082019050919050565b60006119b0603d83611c55565b91506119bb82612068565b604082019050919050565b6119cf81611cdb565b82525050565b60006119e1828561185a565b91506119ed828461185a565b91508190509392505050565b6000602082019050611a0e60008301846117ca565b92915050565b6000608082019050611a2960008301876117ca565b611a3660208301866117ca565b611a4360408301856119c6565b8181036060830152611a5581846117e8565b905095945050505050565b6000602082019050611a7560008301846117d9565b92915050565b60006020820190508181036000830152611a958184611821565b905092915050565b60006020820190508181036000830152611ab68161188b565b9050919050565b60006020820190508181036000830152611ad6816118ae565b9050919050565b60006020820190508181036000830152611af6816118d1565b9050919050565b60006020820190508181036000830152611b16816118f4565b9050919050565b60006020820190508181036000830152611b3681611917565b9050919050565b60006020820190508181036000830152611b568161193a565b9050919050565b60006020820190508181036000830152611b768161195d565b9050919050565b60006020820190508181036000830152611b9681611980565b9050919050565b60006020820190508181036000830152611bb6816119a3565b9050919050565b6000602082019050611bd260008301846119c6565b92915050565b6000611be2611bf3565b9050611bee8282611d59565b919050565b6000604051905090565b600067ffffffffffffffff821115611c1857611c17611de8565b5b611c2182611e2b565b9050602081019050919050565b600081519050919050565b600081519050919050565b600082825260208201905092915050565b600082825260208201905092915050565b600081905092915050565b6000611c7c82611cbb565b9050919050565b60008115159050919050565b60007fffffffff0000000000000000000000000000000000000000000000000000000082169050919050565b600073ffffffffffffffffffffffffffffffffffffffff82169050919050565b6000819050919050565b82818337600083830152505050565b60005b83811015611d12578082015181840152602081019050611cf7565b83811115611d21576000848401525b50505050565b60006002820490506001821680611d3f57607f821691505b60208210811415611d5357611d52611db9565b5b50919050565b611d6282611e2b565b810181811067ffffffffffffffff82111715611d8157611d80611de8565b5b80604052505050565b7f4e487b7100000000000000000000000000000000000000000000000000000000600052601260045260246000fd5b7f4e487b7100000000000000000000000000000000000000000000000000000000600052602260045260246000fd5b7f4e487b7100000000000000000000000000000000000000000000000000000000600052604160045260246000fd5b600080fd5b600080fd5b600080fd5b600080fd5b6000601f19601f8301169050919050565b7f4552433732313a2063616c6c6572206973206e6f7420746f6b656e206f776e6560008201527f72206f7220617070726f76656400000000000000000000000000000000000000602082015250565b7f4552433732313a207472616e7366657220746f206e6f6e20455243373231526560008201527f63656976657220696d706c656d656e7465720000000000000000000000000000602082015250565b7f4552433732313a207472616e736665722066726f6d20696e636f72726563742060008201527f6f776e6572000000000000000000000000000000000000000000000000000000602082015250565b7f4552433732313a207472616e7366657220746f20746865207a65726f2061646460008201527f7265737300000000000000000000000000000000000000000000000000000000602082015250565b7f4552433732313a20617070726f766520746f2063616c6c657200000000000000600082015250565b7f4552433732313a2061646472657373207a65726f206973206e6f74206120766160008201527f6c6964206f776e65720000000000000000000000000000000000000000000000602082015250565b7f4552433732313a20696e76616c696420746f6b656e2049440000000000000000600082015250565b7f4552433732313a20617070726f76616c20746f2063757272656e74206f776e6560008201527f7200000000000000000000000000000000000000000000000000000000000000602082015250565b7f4552433732313a20617070726f76652063616c6c6572206973206e6f7420746f60008201527f6b656e206f776e6572206f7220617070726f76656420666f7220616c6c000000602082015250565b6120c081611c71565b81146120cb57600080fd5b50565b6120d781611c83565b81146120e257600080fd5b50565b6120ee81611c8f565b81146120f957600080fd5b50565b61210581611cdb565b811461211057600080fd5b5056fea2646970667358221220ad7c18d6a0736aa02a5a64eddda02dfd0ea2ce72217fa356cbbacb0452de60f964736f6c63430008060033",
  "immutableReferences": {},
  "source": "// SPDX-License-Identifier: MIT\n// OpenZeppelin Contracts (last updated v4.8.2) (token/ERC721/ERC721.sol)\n\npragma solidity ^0.8.0;\n\nimport \"./IERC721.sol\";\nimport \"./IERC721Receiver.sol\";\nimport \"./extensions/IERC721Metadata.sol\";\nimport \"../../utils/Address.sol\";\nimport \"../../utils/Context.sol\";\nimport \"../../utils/Strings.sol\";\nimport \"../../utils/introspection/ERC165.sol\";\n\n/**\n * @dev Implementation of https://eips.ethereum.org/EIPS/eip-721[ERC721] Non-Fungible Token Standard, including\n * the Metadata extension, but not including the Enumerable extension, which is available separately as\n * {ERC721Enumerable}.\n */\ncontract ERC721 is Context, ERC165, IERC721, IERC721Metadata {\n    using Address for address;\n    using Strings for uint256;\n\n    // Token name\n    string private _name;\n\n    // Token symbol\n    string private _symbol;\n\n    // Mapping from token ID to owner address\n    mapping(uint256 => address) private _owners;\n\n    // Mapping owner address to token count\n    mapping(address => uint256) private _balances;\n\n    // Mapping from token ID to approved address\n    mapping(uint256 => address) private _tokenApprovals;\n\n    // Mapping from owner to operator approvals\n    mapping(address => mapping(address => bool)) private _operatorApprovals;\n\n    /**\n     * @dev Initializes the contract by setting a `name` and a `symbol` to the token collection.\n     */\n    constructor(string memory name_, string memory symbol_) {\n        _name = name_;\n        _symbol = symbol_;\n    }\n\n    /**\n     * @dev See {IERC165-supportsInterface}.\n     */\n    function supportsInterface(bytes4 interfaceId) public view virtual override(ERC165, IERC165) returns (bool) {\n        return\n            interfaceId == type(IERC721).interfaceId ||\n            interfaceId == type(IERC721Metadata).interfaceId ||\n            super.supportsInterface(interfaceId);\n    }\n\n    /**\n     * @dev See {IERC721-balanceOf}.\n     */\n    function balanceOf(address owner) public view virtual override returns (uint256) {\n        require(owner != address(0), \"ERC721: address zero is not a valid owner\");\n        return _balances[owner];\n    }\n\n    /**\n     * @dev See {IERC721-ownerOf}.\n     */\n    function ownerOf(uint256 tokenId) public view virtual override returns (address) {\n        address owner = _ownerOf(tokenId);\n        require(owner != address(0), \"ERC721: invalid token ID\");\n        return owner;\n    }\n\n    /**\n     * @dev See {IERC721Metadata-name}.\n     */\n    function name() public view virtual override returns (string memory) {\n        return _name;\n    }\n\n    /**\n     * @dev See {IERC721Metadata-symbol}.\n     */\n    function symbol() public view virtual override returns (string memory) {\n        return _symbol;\n    }\n\n    /**\n     * @dev See {IERC721Metadata-tokenURI}.\n     */\n    function tokenURI(uint256 tokenId) public view virtual override returns (string memory) {\n        _requireMinted(tokenId);\n\n        string memory baseURI = _baseURI();\n        return bytes(baseURI).length > 0 ? string(abi.encodePacked(baseURI, tokenId.toString())) : \"\";\n    }\n\n    /**\n     * @dev Base URI for computing {tokenURI}. If set, the resulting URI for each\n     * token will be the concatenation of the `baseURI` and the `tokenId`. Empty\n     * by default, can be overridden in child contracts.\n     */\n    function _baseURI() internal view virtual returns (string memory) {\n        return \"\";\n    }\n\n    /**\n     * @dev See {IERC721-approve}.\n     */\n    function approve(address to, uint256 tokenId) public virtual override {\n        address owner = ERC721.ownerOf(tokenId);\n        require(to != owner, \"ERC721: approval to current owner\");\n\n        require(\n            _msgSender() == owner || isApprovedForAll(owner, _msgSender()),\n            \"ERC721: approve caller is not token owner or approved for all\"\n        );\n\n        _approve(to, tokenId);\n    }\n\n    /**\n     * @dev See {IERC721-getApproved}.\n     */\n    function getApproved(uint256 tokenId) public view virtual override returns (address) {\n        _requireMinted(tokenId);\n\n        return _tokenApprovals[tokenId];\n    }\n\n    /**\n     * @dev See {IERC721-setApprovalForAll}.\n     */\n    function setApprovalForAll(address operator, bool approved) public virtual override {\n        _setApprovalForAll(_msgSender(), operator, approved);\n    }\n\n    /**\n     * @dev See {IERC721-isApprovedForAll}.\n     */\n    function isApprovedForAll(address owner, address operator) public view virtual override returns (bool) {\n        return _operatorApprovals[owner][operator];\n    }\n\n    /**\n     * @dev See {IERC721-transferFrom}.\n     */\n    function transferFrom(\n        address from,\n        address to,\n        uint256 tokenId\n    ) public virtual override {\n        //solhint-disable-next-line max-line-length\n        require(_isApprovedOrOwner(_msgSender(), tokenId), \"ERC721: caller is not token owner or approved\");\n\n        _transfer(from, to, tokenId);\n    }\n\n    /**\n     * @dev See {IERC721-safeTransferFrom}.\n     */\n    function safeTransferFrom(\n        address from,\n        address to,\n        uint256 tokenId\n    ) public virtual override {\n        safeTransferFrom(from, to, tokenId, \"\");\n    }\n\n    /**\n     * @dev See {IERC721-safeTransferFrom}.\n     */\n    function safeTransferFrom(\n        address from,\n        address to,\n        uint256 tokenId,\n        bytes memory data\n    ) public virtual override {\n        require(_isApprovedOrOwner(_msgSender(), tokenId), \"ERC721: caller is not token owner or approved\");\n        _safeTransfer(from, to, tokenId, data);\n    }\n\n    /**\n     * @dev Safely transfers `tokenId` token from `from` to `to`, checking first that contract recipients\n     * are aware of the ERC721 protocol to prevent tokens from being forever locked.\n     *\n     * `data` is additional data, it has no specified format and it is sent in call to `to`.\n     *\n     * This internal function is equivalent to {safeTransferFrom}, and can be used to e.g.\n     * implement alternative mechanisms to perform token transfer, such as signature-based.\n     *\n     * Requirements:\n     *\n     * - `from` cannot be the zero address.\n     * - `to` cannot be the zero address.\n     * - `tokenId` token must exist and be owned by `from`.\n     * - If `to` refers to a smart contract, it must implement {IERC721Receiver-onERC721Received}, which is called upon a safe transfer.\n     *\n     * Emits a {Transfer} event.\n     */\n    function _safeTransfer(\n        address from,\n        address to,\n        uint256 tokenId,\n        bytes memory data\n    ) internal virtual {\n        _transfer(from, to, tokenId);\n        require(_checkOnERC721Received(from, to, tokenId, data), \"ERC721: transfer to non ERC721Receiver implementer\");\n    }\n\n    /**\n     * @dev Returns the owner of the `tokenId`. Does NOT revert if token doesn't exist\n     */\n    function _ownerOf(uint256 tokenId) internal view virtual returns (address) {\n        return _owners[tokenId];\n    }\n\n    /**\n     * @dev Returns whether `tokenId` exists.\n     *\n     * Tokens can be managed by their owner or approved accounts via {approve} or {setApprovalForAll}.\n     *\n     * Tokens start existing when they are minted (`_mint`),\n     * and stop existing when they are burned (`_burn`).\n     */\n    function _exists(uint256 tokenId) internal view virtual returns (bool) {\n        return _ownerOf(tokenId) != address(0);\n    }\n\n    /**\n     * @dev Returns whether `spender` is allowed to manage `tokenId`.\n     *\n     * Requirements:\n     *\n     * - `tokenId` must exist.\n     */\n    function _isApprovedOrOwner(address spender, uint256 tokenId) internal view virtual returns (bool) {\n        address owner = ERC721.ownerOf(tokenId);\n        return (spender == owner || isApprovedForAll(owner, spender) || getApproved(tokenId) == spender);\n    }\n\n    /**\n     * @dev Safely mints `tokenId` and transfers it to `to`.\n     *\n     * Requirements:\n     *\n     * - `tokenId` must not exist.\n     * - If `to` refers to a smart contract, it must implement {IERC721Receiver-onERC721Received}, which is called upon a safe transfer.\n     *\n     * Emits a {Transfer} event.\n     */\n    function _safeMint(address to, uint256 tokenId) internal virtual {\n        _safeMint(to, tokenId, \"\");\n    }\n\n    /**\n     * @dev Same as {xref-ERC721-_safeMint-address-uint256-}[`_safeMint`], with an additional `data` parameter which is\n     * forwarded in {IERC721Receiver-onERC721Received} to contract recipients.\n     */\n    function _safeMint(\n        address to,\n        uint256 tokenId,\n        bytes memory data\n    ) internal virtual {\n        _mint(to, tokenId);\n        require(\n            _checkOnERC721Received(address(0), to, tokenId, data),\n            \"ERC721: transfer to non ERC721Receiver implementer\"\n        );\n    }\n\n    /**\n     * @dev Mints `tokenId` and transfers it to `to`.\n     *\n     * WARNING: Usage of this method is discouraged, use {_safeMint} whenever possible\n     *\n     * Requirements:\n     *\n     * - `tokenId` must not exist.\n     * - `to` cannot be the zero address.\n     *\n     * Emits a {Transfer} event.\n     */\n    function _mint(address to, uint256 tokenId) internal virtual {\n        require(to != address(0), \"ERC721: mint to the zero address\");\n        require(!_exists(tokenId), \"ERC721: token already minted\");\n\n        _beforeTokenTransfer(address(0), to, tokenId, 1);\n\n        // Check that tokenId was not minted by `_beforeTokenTransfer` hook\n        require(!_exists(tokenId), \"ERC721: token already minted\");\n\n        unchecked {\n            // Will not overflow unless all 2**256 token ids are minted to the same owner.\n            // Given that tokens are minted one by one, it is impossible in practice that\n            // this ever happens. Might change if we allow batch minting.\n            // The ERC fails to describe this case.\n            _balances[to] += 1;\n        }\n\n        _owners[tokenId] = to;\n\n        emit Transfer(address(0), to, tokenId);\n\n        _afterTokenTransfer(address(0), to, tokenId, 1);\n    }\n\n    /**\n     * @dev Destroys `tokenId`.\n     * The approval is cleared when the token is burned.\n     * This is an internal function that does not check if the sender is authorized to operate on the token.\n     *\n     * Requirements:\n     *\n     * - `tokenId` must exist.\n     *\n     * Emits a {Transfer} event.\n     */\n    function _burn(uint256 tokenId) internal virtual {\n        address owner = ERC721.ownerOf(tokenId);\n\n        _beforeTokenTransfer(owner, address(0), tokenId, 1);\n\n        // Update ownership in case tokenId was transferred by `_beforeTokenTransfer` hook\n        owner = ERC721.ownerOf(tokenId);\n\n        // Clear approvals\n        delete _tokenApprovals[tokenId];\n\n        unchecked {\n            // Cannot overflow, as that would require more tokens to be burned/transferred\n            // out than the owner initially received through minting and transferring in.\n            _balances[owner] -= 1;\n        }\n        delete _owners[tokenId];\n\n        emit Transfer(owner, address(0), tokenId);\n\n        _afterTokenTransfer(owner, address(0), tokenId, 1);\n    }\n\n    /**\n     * @dev Transfers `tokenId` from `from` to `to`.\n     *  As opposed to {transferFrom}, this imposes no restrictions on msg.sender.\n     *\n     * Requirements:\n     *\n     * - `to` cannot be the zero address.\n     * - `tokenId` token must be owned by `from`.\n     *\n     * Emits a {Transfer} event.\n     */\n    function _transfer(\n        address from,\n        address to,\n        uint256 tokenId\n    ) internal virtual {\n        require(ERC721.ownerOf(tokenId) == from, \"ERC721: transfer from incorrect owner\");\n        require(to != address(0), \"ERC721: transfer to the zero address\");\n\n        _beforeTokenTransfer(from, to, tokenId, 1);\n\n        // Check that tokenId was not transferred by `_beforeTokenTransfer` hook\n        require(ERC721.ownerOf(tokenId) == from, \"ERC721: transfer from incorrect owner\");\n\n        // Clear approvals from the previous owner\n        delete _tokenApprovals[tokenId];\n\n        unchecked {\n            // `_balances[from]` cannot overflow for the same reason as described in `_burn`:\n            // `from`'s balance is the number of token held, which is at least one before the current\n            // transfer.\n            // `_balances[to]` could overflow in the conditions described in `_mint`. That would require\n            // all 2**256 token ids to be minted, which in practice is impossible.\n            _balances[from] -= 1;\n            _balances[to] += 1;\n        }\n        _owners[tokenId] = to;\n\n        emit Transfer(from, to, tokenId);\n\n        _afterTokenTransfer(from, to, tokenId, 1);\n    }\n\n    /**\n     * @dev Approve `to` to operate on `tokenId`\n     *\n     * Emits an {Approval} event.\n     */\n    function _approve(address to, uint256 tokenId) internal virtual {\n        _tokenApprovals[tokenId] = to;\n        emit Approval(ERC721.ownerOf(tokenId), to, tokenId);\n    }\n\n    /**\n     * @dev Approve `operator` to operate on all of `owner` tokens\n     *\n     * Emits an {ApprovalForAll} event.\n     */\n    function _setApprovalForAll(\n        address owner,\n        address operator,\n        bool approved\n    ) internal virtual {\n        require(owner != operator, \"ERC721: approve to caller\");\n        _operatorApprovals[owner][operator] = approved;\n        emit ApprovalForAll(owner, operator, approved);\n    }\n\n    /**\n     * @dev Reverts if the `tokenId` has not been minted yet.\n     */\n    function _requireMinted(uint256 tokenId) internal view virtual {\n        require(_exists(tokenId), \"ERC721: invalid token ID\");\n    }\n\n    /**\n     * @dev Internal function to invoke {IERC721Receiver-onERC721Received} on a target address.\n     * The call is not executed if the target address is not a contract.\n     *\n     * @param from address representing the previous owner of the given token ID\n     * @param to target address that will receive the tokens\n     * @param tokenId uint256 ID of the token to be transferred\n     * @param data bytes optional data to send along with the call\n     * @return bool whether the call correctly returned the expected magic value\n     */\n    function _checkOnERC721Received(\n        address from,\n        address to,\n        uint256 tokenId,\n        bytes memory data\n    ) private returns (bool) {\n        if (to.isContract()) {\n            try IERC721Receiver(to).onERC721Received(_msgSender(), from, tokenId, data) returns (bytes4 retval) {\n                return retval == IERC721Receiver.onERC721Received.selector;\n            } catch (bytes memory reason) {\n                if (reason.length == 0) {\n                    revert(\"ERC721: transfer to non ERC721Receiver implementer\");\n                } else {\n                    /// @solidity memory-safe-assembly\n                    assembly {\n                        revert(add(32, reason), mload(reason))\n                    }\n                }\n            }\n        } else {\n            return true;\n        }\n    }\n\n    /**\n     * @dev Hook that is called before any token transfer. This includes minting and burning. If {ERC721Consecutive} is\n     * used, the hook may be called as part of a consecutive (batch) mint, as indicated by `batchSize` greater than 1.\n     *\n     * Calling conditions:\n     *\n     * - When `from` and `to` are both non-zero, ``from``'s tokens will be transferred to `to`.\n     * - When `from` is zero, the tokens will be minted for `to`.\n     * - When `to` is zero, ``from``'s tokens will be burned.\n     * - `from` and `to` are never both zero.\n     * - `batchSize` is non-zero.\n     *\n     * To learn more about hooks, head to xref:ROOT:extending-contracts.adoc#using-hooks[Using Hooks].\n     */\n    function _beforeTokenTransfer(\n        address from,\n        address to,\n        uint256 firstTokenId,\n        uint256 batchSize\n    ) internal virtual {}\n\n    /**\n     * @dev Hook that is called after any token transfer. This includes minting and burning. If {ERC721Consecutive} is\n     * used, the hook may be called as part of a consecutive (batch) mint, as indicated by `batchSize` greater than 1.\n     *\n     * Calling conditions:\n     *\n     * - When `from` and `to` are both non-zero, ``from``'s tokens were transferred to `to`.\n     * - When `from` is zero, the tokens were minted for `to`.\n     * - When `to` is zero, ``from``'s tokens were burned.\n     * - `from` and `to` are never both zero.\n     * - `batchSize` is non-zero.\n     *\n     * To learn more about hooks, head to xref:ROOT:extending-contracts.adoc#using-hooks[Using Hooks].\n     */\n    function _afterTokenTransfer(\n        address from,\n        address to,\n        uint256 firstTokenId,\n        uint256 batchSize\n    ) internal virtual {}\n\n    /**\n     * @dev Unsafe write access to the balances, used by extensions that \"mint\" tokens using an {ownerOf} override.\n     *\n     * WARNING: Anyone calling this MUST ensure that the balances remain consistent with the ownership. The invariant\n     * being that for any address `a` the value returned by `balanceOf(a)` must be equal to the number of tokens such\n     * that `ownerOf(tokenId)` is `a`.\n     */\n    // solhint-disable-next-line func-name-mixedcase\n    function __unsafe_increaseBalance(address account, uint256 amount) internal {\n        _balances[account] += amount;\n    }\n}\n",
  "sourcePath": "@openzeppelin/contracts/token/ERC721/ERC721.sol",
  "compiler": {
    "name": "solc",
    "version": "0.8.6+commit.11564f7e.Emscripten.clang"
  },
  "schemaVersion": "3.4.11",
  "updatedAt": "2023-07-06T04:50:44.175Z",
  "devdoc": {
    "details": "Implementation of https://eips.ethereum.org/EIPS/eip-721[ERC721] Non-Fungible Token Standard, including the Metadata extension, but not including the Enumerable extension, which is available separately as {ERC721Enumerable}.",
    "kind": "dev",
    "methods": {
      "approve(address,uint256)": {
        "details": "See {IERC721-approve}."
      },
      "balanceOf(address)": {
        "details": "See {IERC721-balanceOf}."
      },
      "constructor": {
        "details": "Initializes the contract by setting a `name` and a `symbol` to the token collection."
      },
      "getApproved(uint256)": {
        "details": "See {IERC721-getApproved}."
      },
      "isApprovedForAll(address,address)": {
        "details": "See {IERC721-isApprovedForAll}."
      },
      "name()": {
        "details": "See {IERC721Metadata-name}."
      },
      "ownerOf(uint256)": {
        "details": "See {IERC721-ownerOf}."
      },
      "safeTransferFrom(address,address,uint256)": {
        "details": "See {IERC721-safeTransferFrom}."
      },
      "safeTransferFrom(address,address,uint256,bytes)": {
        "details": "See {IERC721-safeTransferFrom}."
      },
      "setApprovalForAll(address,bool)": {
        "details": "See {IERC721-setApprovalForAll}."
      },
      "supportsInterface(bytes4)": {
        "details": "See {IERC165-supportsInterface}."
      },
      "symbol()": {
        "details": "See {IERC721Metadata-symbol}."
      },
      "tokenURI(uint256)": {
        "details": "See {IERC721Metadata-tokenURI}."
      },
      "transferFrom(address,address,uint256)": {
        "details": "See {IERC721-transferFrom}."
      }
    },
    "version": 1
  },
  "userdoc": {
    "kind": "user",
    "methods": {},
    "version": 1
  }
}