{
  "contractName": "NFT",
  "abi": [
    {
      "inputs": [],
      "stateMutability": "nonpayable",
      "type": "constructor"
    },
    {
      "anonymous": false,
      "inputs": [
        {
          "indexed": true,
          "internalType": "address",
          "name": "owner",
          "type": "address"
        },
        {
          "indexed": true,
          "internalType": "address",
          "name": "approved",
          "type": "address"
        },
        {
          "indexed": true,
          "internalType": "uint256",
          "name": "tokenId",
          "type": "uint256"
        }
      ],
      "name": "Approval",
      "type": "event"
    },
    {
      "anonymous": false,
      "inputs": [
        {
          "indexed": true,
          "internalType": "address",
          "name": "owner",
          "type": "address"
        },
        {
          "indexed": true,
          "internalType": "address",
          "name": "operator",
          "type": "address"
        },
        {
          "indexed": false,
          "internalType": "bool",
          "name": "approved",
          "type": "bool"
        }
      ],
      "name": "ApprovalForAll",
      "type": "event"
    },
    {
      "anonymous": false,
      "inputs": [
        {
          "indexed": true,
          "internalType": "address",
          "name": "previousOwner",
          "type": "address"
        },
        {
          "indexed": true,
          "internalType": "address",
          "name": "newOwner",
          "type": "address"
        }
      ],
      "name": "OwnershipTransferred",
      "type": "event"
    },
    {
      "anonymous": false,
      "inputs": [
        {
          "indexed": true,
          "internalType": "address",
          "name": "from",
          "type": "address"
        },
        {
          "indexed": true,
          "internalType": "address",
          "name": "to",
          "type": "address"
        },
        {
          "indexed": true,
          "internalType": "uint256",
          "name": "tokenId",
          "type": "uint256"
        }
      ],
      "name": "Transfer",
      "type": "event"
    },
    {
      "inputs": [
        {
          "internalType": "uint256",
          "name": "",
          "type": "uint256"
        }
      ],
      "name": "_tokenPrice",
      "outputs": [
        {
          "internalType": "uint256",
          "name": "",
          "type": "uint256"
        }
      ],
      "stateMutability": "view",
      "type": "function",
      "constant": true
    },
    {
      "inputs": [
        {
          "internalType": "address",
          "name": "to",
          "type": "address"
        },
        {
          "internalType": "uint256",
          "name": "tokenId",
          "type": "uint256"
        }
      ],
      "name": "approve",
      "outputs": [],
      "stateMutability": "nonpayable",
      "type": "function"
    },
    {
      "inputs": [
        {
          "internalType": "address",
          "name": "owner",
          "type": "address"
        }
      ],
      "name": "balanceOf",
      "outputs": [
        {
          "internalType": "uint256",
          "name": "",
          "type": "uint256"
        }
      ],
      "stateMutability": "view",
      "type": "function",
      "constant": true
    },
    {
      "inputs": [
        {
          "internalType": "uint256",
          "name": "tokenId",
          "type": "uint256"
        }
      ],
      "name": "getApproved",
      "outputs": [
        {
          "internalType": "address",
          "name": "",
          "type": "address"
        }
      ],
      "stateMutability": "view",
      "type": "function",
      "constant": true
    },
    {
      "inputs": [
        {
          "internalType": "address",
          "name": "owner",
          "type": "address"
        },
        {
          "internalType": "address",
          "name": "operator",
          "type": "address"
        }
      ],
      "name": "isApprovedForAll",
      "outputs": [
        {
          "internalType": "bool",
          "name": "",
          "type": "bool"
        }
      ],
      "stateMutability": "view",
      "type": "function",
      "constant": true
    },
    {
      "inputs": [],
      "name": "name",
      "outputs": [
        {
          "internalType": "string",
          "name": "",
          "type": "string"
        }
      ],
      "stateMutability": "view",
      "type": "function",
      "constant": true
    },
    {
      "inputs": [],
      "name": "owner",
      "outputs": [
        {
          "internalType": "address",
          "name": "",
          "type": "address"
        }
      ],
      "stateMutability": "view",
      "type": "function",
      "constant": true
    },
    {
      "inputs": [
        {
          "internalType": "uint256",
          "name": "tokenId",
          "type": "uint256"
        }
      ],
      "name": "ownerOf",
      "outputs": [
        {
          "internalType": "address",
          "name": "",
          "type": "address"
        }
      ],
      "stateMutability": "view",
      "type": "function",
      "constant": true
    },
    {
      "inputs": [],
      "name": "renounceOwnership",
      "outputs": [],
      "stateMutability": "nonpayable",
      "type": "function"
    },
    {
      "inputs": [
        {
          "internalType": "address",
          "name": "from",
          "type": "address"
        },
        {
          "internalType": "address",
          "name": "to",
          "type": "address"
        },
        {
          "internalType": "uint256",
          "name": "tokenId",
          "type": "uint256"
        }
      ],
      "name": "safeTransferFrom",
      "outputs": [],
      "stateMutability": "nonpayable",
      "type": "function"
    },
    {
      "inputs": [
        {
          "internalType": "address",
          "name": "from",
          "type": "address"
        },
        {
          "internalType": "address",
          "name": "to",
          "type": "address"
        },
        {
          "internalType": "uint256",
          "name": "tokenId",
          "type": "uint256"
        },
        {
          "internalType": "bytes",
          "name": "data",
          "type": "bytes"
        }
      ],
      "name": "safeTransferFrom",
      "outputs": [],
      "stateMutability": "nonpayable",
      "type": "function"
    },
    {
      "inputs": [
        {
          "internalType": "address",
          "name": "operator",
          "type": "address"
        },
        {
          "internalType": "bool",
          "name": "approved",
          "type": "bool"
        }
      ],
      "name": "setApprovalForAll",
      "outputs": [],
      "stateMutability": "nonpayable",
      "type": "function"
    },
    {
      "inputs": [
        {
          "internalType": "bytes4",
          "name": "interfaceId",
          "type": "bytes4"
        }
      ],
      "name": "supportsInterface",
      "outputs": [
        {
          "internalType": "bool",
          "name": "",
          "type": "bool"
        }
      ],
      "stateMutability": "view",
      "type": "function",
      "constant": true
    },
    {
      "inputs": [],
      "name": "symbol",
      "outputs": [
        {
          "internalType": "string",
          "name": "",
          "type": "string"
        }
      ],
      "stateMutability": "view",
      "type": "function",
      "constant": true
    },
    {
      "inputs": [
        {
          "internalType": "uint256",
          "name": "index",
          "type": "uint256"
        }
      ],
      "name": "tokenByIndex",
      "outputs": [
        {
          "internalType": "uint256",
          "name": "",
          "type": "uint256"
        }
      ],
      "stateMutability": "view",
      "type": "function",
      "constant": true
    },
    {
      "inputs": [
        {
          "internalType": "address",
          "name": "owner",
          "type": "address"
        },
        {
          "internalType": "uint256",
          "name": "index",
          "type": "uint256"
        }
      ],
      "name": "tokenOfOwnerByIndex",
      "outputs": [
        {
          "internalType": "uint256",
          "name": "",
          "type": "uint256"
        }
      ],
      "stateMutability": "view",
      "type": "function",
      "constant": true
    },
    {
      "inputs": [
        {
          "internalType": "uint256",
          "name": "tokenId",
          "type": "uint256"
        }
      ],
      "name": "tokenURI",
      "outputs": [
        {
          "internalType": "string",
          "name": "",
          "type": "string"
        }
      ],
      "stateMutability": "view",
      "type": "function",
      "constant": true
    },
    {
      "inputs": [],
      "name": "totalSupply",
      "outputs": [
        {
          "internalType": "uint256",
          "name": "",
          "type": "uint256"
        }
      ],
      "stateMutability": "view",
      "type": "function",
      "constant": true
    },
    {
      "inputs": [
        {
          "internalType": "address",
          "name": "from",
          "type": "address"
        },
        {
          "internalType": "address",
          "name": "to",
          "type": "address"
        },
        {
          "internalType": "uint256",
          "name": "tokenId",
          "type": "uint256"
        }
      ],
      "name": "transferFrom",
      "outputs": [],
      "stateMutability": "nonpayable",
      "type": "function"
    },
    {
      "inputs": [
        {
          "internalType": "address",
          "name": "newOwner",
          "type": "address"
        }
      ],
      "name": "transferOwnership",
      "outputs": [],
      "stateMutability": "nonpayable",
      "type": "function"
    },
    {
      "inputs": [
        {
          "internalType": "address",
          "name": "recipient",
          "type": "address"
        },
        {
          "internalType": "string",
          "name": "tokenURI",
          "type": "string"
        },
        {
          "internalType": "uint256",
          "name": "tokenPrice",
          "type": "uint256"
        }
      ],
      "name": "mintNFT",
      "outputs": [
        {
          "internalType": "uint256",
          "name": "",
          "type": "uint256"
        }
      ],
      "stateMutability": "nonpayable",
      "type": "function"
    },
    {
      "inputs": [
        {
          "internalType": "uint256",
          "name": "tokenId",
          "type": "uint256"
        },
        {
          "internalType": "uint256",
          "name": "_price",
          "type": "uint256"
        }
      ],
      "name": "updateTokenPrice",
      "outputs": [],
      "stateMutability": "nonpayable",
      "type": "function"
    },
    {
      "inputs": [
        {
          "internalType": "uint256",
          "name": "_tokenId",
          "type": "uint256"
        }
      ],
      "name": "buyToken",
      "outputs": [],
      "stateMutability": "payable",
      "type": "function",
      "payable": true
    },
    {
      "inputs": [
        {
          "internalType": "uint256",
          "name": "_tokenId",
          "type": "uint256"
        },
        {
          "internalType": "address",
          "name": "buyer",
          "type": "address"
        }
      ],
      "name": "transferNFT",
      "outputs": [],
      "stateMutability": "payable",
      "type": "function",
      "payable": true
    },
    {
      "inputs": [
        {
          "internalType": "uint256",
          "name": "tokenId",
          "type": "uint256"
        }
      ],
      "name": "getTokenURI",
      "outputs": [
        {
          "internalType": "string",
          "name": "tokenURI",
          "type": "string"
        }
      ],
      "stateMutability": "view",
      "type": "function",
      "constant": true
    }
  ],
  "bytecode": "0x60806040523480156200001157600080fd5b506040518060400160405280600481526020017f4e465473000000000000000000000000000000000000000000000000000000008152506040518060400160405280600381526020017f4e46540000000000000000000000000000000000000000000000000000000000815250816000908051906020019062000096929190620001a6565b508060019080519060200190620000af929190620001a6565b505050620000d2620000c6620000d860201b60201c565b620000e060201b60201c565b620002bb565b600033905090565b6000600a60009054906101000a900473ffffffffffffffffffffffffffffffffffffffff16905081600a60006101000a81548173ffffffffffffffffffffffffffffffffffffffff021916908373ffffffffffffffffffffffffffffffffffffffff1602179055508173ffffffffffffffffffffffffffffffffffffffff168173ffffffffffffffffffffffffffffffffffffffff167f8be0079c531659141344cd1fd0a4f28419497f9722a3daafe3b4186f6b6457e060405160405180910390a35050565b828054620001b49062000256565b90600052602060002090601f016020900481019282620001d8576000855562000224565b82601f10620001f357805160ff191683800117855562000224565b8280016001018555821562000224579182015b828111156200022357825182559160200191906001019062000206565b5b50905062000233919062000237565b5090565b5b808211156200025257600081600090555060010162000238565b5090565b600060028204905060018216806200026f57607f821691505b602082108114156200028657620002856200028c565b5b50919050565b7f4e487b7100000000000000000000000000000000000000000000000000000000600052602260045260246000fd5b613d6280620002cb6000396000f3fe6080604052600436106101665760003560e01c80636352211e116100d15780639036c0501161008a578063b88d4fde11610064578063b88d4fde14610558578063c87b56dd14610581578063e985e9c5146105be578063f2fde38b146105fb57610166565b80639036c050146104e857806395d89b4114610504578063a22cb4651461052f57610166565b80636352211e146103c65780636866d1441461040357806370a0823114610440578063715018a61461047d578063897925f5146104945780638da5cb5b146104bd57610166565b806323b872dd1161012357806323b872dd146102a15780632d296bf1146102ca5780632f745c59146102e65780633bb3a24d1461032357806342842e0e146103605780634f6ccce71461038957610166565b806301ffc9a71461016b57806306fdde03146101a8578063081812fc146101d357806308598df014610210578063095ea7b31461024d57806318160ddd14610276575b600080fd5b34801561017757600080fd5b50610192600480360381019061018d9190612bb0565b610624565b60405161019f9190613114565b60405180910390f35b3480156101b457600080fd5b506101bd61069e565b6040516101ca919061312f565b60405180910390f35b3480156101df57600080fd5b506101fa60048036038101906101f59190612c0a565b610730565b60405161020791906130ad565b60405180910390f35b34801561021c57600080fd5b5061023760048036038101906102329190612b01565b610776565b6040516102449190613411565b60405180910390f35b34801561025957600080fd5b50610274600480360381019061026f9190612b70565b6107c7565b005b34801561028257600080fd5b5061028b6108df565b6040516102989190613411565b60405180910390f35b3480156102ad57600080fd5b506102c860048036038101906102c391906129eb565b6108ec565b005b6102e460048036038101906102df9190612c0a565b61094c565b005b3480156102f257600080fd5b5061030d60048036038101906103089190612b70565b610acd565b60405161031a9190613411565b60405180910390f35b34801561032f57600080fd5b5061034a60048036038101906103459190612c0a565b610b72565b604051610357919061312f565b60405180910390f35b34801561036c57600080fd5b50610387600480360381019061038291906129eb565b610c17565b005b34801561039557600080fd5b506103b060048036038101906103ab9190612c0a565b610c37565b6040516103bd9190613411565b60405180910390f35b3480156103d257600080fd5b506103ed60048036038101906103e89190612c0a565b610ca8565b6040516103fa91906130ad565b60405180910390f35b34801561040f57600080fd5b5061042a60048036038101906104259190612c0a565b610d2f565b6040516104379190613411565b60405180910390f35b34801561044c57600080fd5b506104676004803603810190610462919061297e565b610d47565b6040516104749190613411565b60405180910390f35b34801561048957600080fd5b50610492610dff565b005b3480156104a057600080fd5b506104bb60048036038101906104b69190612c77565b610e13565b005b3480156104c957600080fd5b506104d2610eed565b6040516104df91906130ad565b60405180910390f35b61050260048036038101906104fd9190612c37565b610f17565b005b34801561051057600080fd5b50610519611072565b604051610526919061312f565b60405180910390f35b34801561053b57600080fd5b5061055660048036038101906105519190612ac1565b611104565b005b34801561056457600080fd5b5061057f600480360381019061057a9190612a3e565b61111a565b005b34801561058d57600080fd5b506105a860048036038101906105a39190612c0a565b61117c565b6040516105b5919061312f565b60405180910390f35b3480156105ca57600080fd5b506105e560048036038101906105e091906129ab565b6111e4565b6040516105f29190613114565b60405180910390f35b34801561060757600080fd5b50610622600480360381019061061d919061297e565b611278565b005b60007f780e9d63000000000000000000000000000000000000000000000000000000007bffffffffffffffffffffffffffffffffffffffffffffffffffffffff1916827bffffffffffffffffffffffffffffffffffffffffffffffffffffffff191614806106975750610696826112fc565b5b9050919050565b6060600080546106ad906135e0565b80601f01602080910402602001604051908101604052809291908181526020018280546106d9906135e0565b80156107265780601f106106fb57610100808354040283529160200191610726565b820191906000526020600020905b81548152906001019060200180831161070957829003601f168201915b5050505050905090565b600061073b826113de565b6004600083815260200190815260200160002060009054906101000a900473ffffffffffffffffffffffffffffffffffffffff169050919050565b6000610782600b611429565b600061078e600b61143f565b905061079a858261144d565b6107a4818561166b565b82600d600083815260200190815260200160002081905550809150509392505050565b60006107d282610ca8565b90508073ffffffffffffffffffffffffffffffffffffffff168373ffffffffffffffffffffffffffffffffffffffff161415610843576040517f08c379a000000000000000000000000000000000000000000000000000000000815260040161083a90613391565b60405180910390fd5b8073ffffffffffffffffffffffffffffffffffffffff166108626116df565b73ffffffffffffffffffffffffffffffffffffffff16148061089157506108908161088b6116df565b6111e4565b5b6108d0576040517f08c379a00000000000000000000000000000000000000000000000000000000081526004016108c7906133b1565b60405180910390fd5b6108da83836116e7565b505050565b6000600880549050905090565b6108fd6108f76116df565b826117a0565b61093c576040517f08c379a000000000000000000000000000000000000000000000000000000000815260040161093390613151565b60405180910390fd5b610947838383611835565b505050565b61095581611b2f565b610994576040517f08c379a000000000000000000000000000000000000000000000000000000000815260040161098b90613271565b60405180910390fd5b600d60008281526020019081526020016000205434146109e9576040517f08c379a00000000000000000000000000000000000000000000000000000000081526004016109e090613251565b60405180910390fd5b6109f281610ca8565b73ffffffffffffffffffffffffffffffffffffffff163373ffffffffffffffffffffffffffffffffffffffff161415610a60576040517f08c379a0000000000000000000000000000000000000000000000000000000008152600401610a5790613311565b60405180910390fd5b34600e60008381526020019081526020016000208190555033600f600083815260200190815260200160002060006101000a81548173ffffffffffffffffffffffffffffffffffffffff021916908373ffffffffffffffffffffffffffffffffffffffff16021790555050565b6000610ad883610d47565b8210610b19576040517f08c379a0000000000000000000000000000000000000000000000000000000008152600401610b1090613171565b60405180910390fd5b600660008473ffffffffffffffffffffffffffffffffffffffff1673ffffffffffffffffffffffffffffffffffffffff168152602001908152602001600020600083815260200190815260200160002054905092915050565b6060600c60008381526020019081526020016000208054610b92906135e0565b80601f0160208091040260200160405190810160405280929190818152602001828054610bbe906135e0565b8015610c0b5780601f10610be057610100808354040283529160200191610c0b565b820191906000526020600020905b815481529060010190602001808311610bee57829003601f168201915b50505050509050919050565b610c328383836040518060200160405280600081525061111a565b505050565b6000610c416108df565b8210610c82576040517f08c379a0000000000000000000000000000000000000000000000000000000008152600401610c79906133d1565b60405180910390fd5b60088281548110610c9657610c956136ff565b5b90600052602060002001549050919050565b600080610cb483611b70565b9050600073ffffffffffffffffffffffffffffffffffffffff168173ffffffffffffffffffffffffffffffffffffffff161415610d26576040517f08c379a0000000000000000000000000000000000000000000000000000000008152600401610d1d90613371565b60405180910390fd5b80915050919050565b600d6020528060005260406000206000915090505481565b60008073ffffffffffffffffffffffffffffffffffffffff168273ffffffffffffffffffffffffffffffffffffffff161415610db8576040517f08c379a0000000000000000000000000000000000000000000000000000000008152600401610daf906132d1565b60405180910390fd5b600360008373ffffffffffffffffffffffffffffffffffffffff1673ffffffffffffffffffffffffffffffffffffffff168152602001908152602001600020549050919050565b610e07611bad565b610e116000611c2b565b565b610e1c82611b2f565b610e5b576040517f08c379a0000000000000000000000000000000000000000000000000000000008152600401610e5290613271565b60405180910390fd5b3373ffffffffffffffffffffffffffffffffffffffff16610e7b83610ca8565b73ffffffffffffffffffffffffffffffffffffffff1614610ed1576040517f08c379a0000000000000000000000000000000000000000000000000000000008152600401610ec8906132b1565b60405180910390fd5b80600d6000848152602001908152602001600020819055505050565b6000600a60009054906101000a900473ffffffffffffffffffffffffffffffffffffffff16905090565b610f1f611bad565b610f2882611b2f565b610f67576040517f08c379a0000000000000000000000000000000000000000000000000000000008152600401610f5e90613271565b60405180910390fd5b8073ffffffffffffffffffffffffffffffffffffffff16600f600084815260200190815260200160002060009054906101000a900473ffffffffffffffffffffffffffffffffffffffff1673ffffffffffffffffffffffffffffffffffffffff1614611008576040517f08c379a0000000000000000000000000000000000000000000000000000000008152600401610fff90613291565b60405180910390fd5b600061101383610ca8565b905060008190508073ffffffffffffffffffffffffffffffffffffffff166108fc479081150290604051600060405180830381858888f19350505050158015611060573d6000803e3d6000fd5b5061106c8284866108ec565b50505050565b606060018054611081906135e0565b80601f01602080910402602001604051908101604052809291908181526020018280546110ad906135e0565b80156110fa5780601f106110cf576101008083540402835291602001916110fa565b820191906000526020600020905b8154815290600101906020018083116110dd57829003601f168201915b5050505050905090565b61111661110f6116df565b8383611cf1565b5050565b61112b6111256116df565b836117a0565b61116a576040517f08c379a000000000000000000000000000000000000000000000000000000000815260040161116190613151565b60405180910390fd5b61117684848484611e5e565b50505050565b6060611187826113de565b6000611191611eba565b905060008151116111b157604051806020016040528060008152506111dc565b806111bb84611ed1565b6040516020016111cc929190613089565b6040516020818303038152906040525b915050919050565b6000600560008473ffffffffffffffffffffffffffffffffffffffff1673ffffffffffffffffffffffffffffffffffffffff16815260200190815260200160002060008373ffffffffffffffffffffffffffffffffffffffff1673ffffffffffffffffffffffffffffffffffffffff16815260200190815260200160002060009054906101000a900460ff16905092915050565b611280611bad565b600073ffffffffffffffffffffffffffffffffffffffff168173ffffffffffffffffffffffffffffffffffffffff1614156112f0576040517f08c379a00000000000000000000000000000000000000000000000000000000081526004016112e7906131b1565b60405180910390fd5b6112f981611c2b565b50565b60007f80ac58cd000000000000000000000000000000000000000000000000000000007bffffffffffffffffffffffffffffffffffffffffffffffffffffffff1916827bffffffffffffffffffffffffffffffffffffffffffffffffffffffff191614806113c757507f5b5e139f000000000000000000000000000000000000000000000000000000007bffffffffffffffffffffffffffffffffffffffffffffffffffffffff1916827bffffffffffffffffffffffffffffffffffffffffffffffffffffffff1916145b806113d757506113d682611fa9565b5b9050919050565b6113e781611b2f565b611426576040517f08c379a000000000000000000000000000000000000000000000000000000000815260040161141d90613371565b60405180910390fd5b50565b6001816000016000828254019250508190555050565b600081600001549050919050565b600073ffffffffffffffffffffffffffffffffffffffff168273ffffffffffffffffffffffffffffffffffffffff1614156114bd576040517f08c379a00000000000000000000000000000000000000000000000000000000081526004016114b490613331565b60405180910390fd5b6114c681611b2f565b15611506576040517f08c379a00000000000000000000000000000000000000000000000000000000081526004016114fd906131f1565b60405180910390fd5b611514600083836001612013565b61151d81611b2f565b1561155d576040517f08c379a0000000000000000000000000000000000000000000000000000000008152600401611554906131f1565b60405180910390fd5b6001600360008473ffffffffffffffffffffffffffffffffffffffff1673ffffffffffffffffffffffffffffffffffffffff16815260200190815260200160002060008282540192505081905550816002600083815260200190815260200160002060006101000a81548173ffffffffffffffffffffffffffffffffffffffff021916908373ffffffffffffffffffffffffffffffffffffffff160217905550808273ffffffffffffffffffffffffffffffffffffffff16600073ffffffffffffffffffffffffffffffffffffffff167fddf252ad1be2c89b69c2b068fc378daa952ba7f163c4a11628f55a4df523b3ef60405160405180910390a4611667600083836001612173565b5050565b61167482611b2f565b6116b3576040517f08c379a00000000000000000000000000000000000000000000000000000000081526004016116aa906132f1565b60405180910390fd5b80600c600084815260200190815260200160002090805190602001906116da929190612792565b505050565b600033905090565b816004600083815260200190815260200160002060006101000a81548173ffffffffffffffffffffffffffffffffffffffff021916908373ffffffffffffffffffffffffffffffffffffffff160217905550808273ffffffffffffffffffffffffffffffffffffffff1661175a83610ca8565b73ffffffffffffffffffffffffffffffffffffffff167f8c5be1e5ebec7d5bd14f71427d1e84f3dd0314c0f7b2291e5b200ac8c7c3b92560405160405180910390a45050565b6000806117ac83610ca8565b90508073ffffffffffffffffffffffffffffffffffffffff168473ffffffffffffffffffffffffffffffffffffffff1614806117ee57506117ed81856111e4565b5b8061182c57508373ffffffffffffffffffffffffffffffffffffffff1661181484610730565b73ffffffffffffffffffffffffffffffffffffffff16145b91505092915050565b8273ffffffffffffffffffffffffffffffffffffffff1661185582610ca8565b73ffffffffffffffffffffffffffffffffffffffff16146118ab576040517f08c379a00000000000000000000000000000000000000000000000000000000081526004016118a2906131d1565b60405180910390fd5b600073ffffffffffffffffffffffffffffffffffffffff168273ffffffffffffffffffffffffffffffffffffffff16141561191b576040517f08c379a000000000000000000000000000000000000000000000000000000000815260040161191290613211565b60405180910390fd5b6119288383836001612013565b8273ffffffffffffffffffffffffffffffffffffffff1661194882610ca8565b73ffffffffffffffffffffffffffffffffffffffff161461199e576040517f08c379a0000000000000000000000000000000000000000000000000000000008152600401611995906131d1565b60405180910390fd5b6004600082815260200190815260200160002060006101000a81549073ffffffffffffffffffffffffffffffffffffffff02191690556001600360008573ffffffffffffffffffffffffffffffffffffffff1673ffffffffffffffffffffffffffffffffffffffff168152602001908152602001600020600082825403925050819055506001600360008473ffffffffffffffffffffffffffffffffffffffff1673ffffffffffffffffffffffffffffffffffffffff16815260200190815260200160002060008282540192505081905550816002600083815260200190815260200160002060006101000a81548173ffffffffffffffffffffffffffffffffffffffff021916908373ffffffffffffffffffffffffffffffffffffffff160217905550808273ffffffffffffffffffffffffffffffffffffffff168473ffffffffffffffffffffffffffffffffffffffff167fddf252ad1be2c89b69c2b068fc378daa952ba7f163c4a11628f55a4df523b3ef60405160405180910390a4611b2a8383836001612173565b505050565b60008073ffffffffffffffffffffffffffffffffffffffff16611b5183611b70565b73ffffffffffffffffffffffffffffffffffffffff1614159050919050565b60006002600083815260200190815260200160002060009054906101000a900473ffffffffffffffffffffffffffffffffffffffff169050919050565b611bb56116df565b73ffffffffffffffffffffffffffffffffffffffff16611bd3610eed565b73ffffffffffffffffffffffffffffffffffffffff1614611c29576040517f08c379a0000000000000000000000000000000000000000000000000000000008152600401611c2090613351565b60405180910390fd5b565b6000600a60009054906101000a900473ffffffffffffffffffffffffffffffffffffffff16905081600a60006101000a81548173ffffffffffffffffffffffffffffffffffffffff021916908373ffffffffffffffffffffffffffffffffffffffff1602179055508173ffffffffffffffffffffffffffffffffffffffff168173ffffffffffffffffffffffffffffffffffffffff167f8be0079c531659141344cd1fd0a4f28419497f9722a3daafe3b4186f6b6457e060405160405180910390a35050565b8173ffffffffffffffffffffffffffffffffffffffff168373ffffffffffffffffffffffffffffffffffffffff161415611d60576040517f08c379a0000000000000000000000000000000000000000000000000000000008152600401611d5790613231565b60405180910390fd5b80600560008573ffffffffffffffffffffffffffffffffffffffff1673ffffffffffffffffffffffffffffffffffffffff16815260200190815260200160002060008473ffffffffffffffffffffffffffffffffffffffff1673ffffffffffffffffffffffffffffffffffffffff16815260200190815260200160002060006101000a81548160ff0219169083151502179055508173ffffffffffffffffffffffffffffffffffffffff168373ffffffffffffffffffffffffffffffffffffffff167f17307eab39ab6107e8899845ad3d59bd9653f200f220920489ca2b5937696c3183604051611e519190613114565b60405180910390a3505050565b611e69848484611835565b611e7584848484612179565b611eb4576040517f08c379a0000000000000000000000000000000000000000000000000000000008152600401611eab90613191565b60405180910390fd5b50505050565b606060405180602001604052806000815250905090565b606060006001611ee084612310565b01905060008167ffffffffffffffff811115611eff57611efe61372e565b5b6040519080825280601f01601f191660200182016040528015611f315781602001600182028036833780820191505090505b509050600082602001820190505b600115611f9e578080600190039150507f3031323334353637383961626364656600000000000000000000000000000000600a86061a8153600a8581611f8857611f87613672565b5b0494506000851415611f9957611f9e565b611f3f565b819350505050919050565b60007f01ffc9a7000000000000000000000000000000000000000000000000000000007bffffffffffffffffffffffffffffffffffffffffffffffffffffffff1916827bffffffffffffffffffffffffffffffffffffffffffffffffffffffff1916149050919050565b61201f84848484612463565b6001811115612063576040517f08c379a000000000000000000000000000000000000000000000000000000000815260040161205a906133f1565b60405180910390fd5b6000829050600073ffffffffffffffffffffffffffffffffffffffff168573ffffffffffffffffffffffffffffffffffffffff1614156120ab576120a681612469565b6120ea565b8373ffffffffffffffffffffffffffffffffffffffff168573ffffffffffffffffffffffffffffffffffffffff16146120e9576120e885826124b2565b5b5b600073ffffffffffffffffffffffffffffffffffffffff168473ffffffffffffffffffffffffffffffffffffffff16141561212d576121288161261f565b61216c565b8473ffffffffffffffffffffffffffffffffffffffff168473ffffffffffffffffffffffffffffffffffffffff161461216b5761216a84826126f0565b5b5b5050505050565b50505050565b600061219a8473ffffffffffffffffffffffffffffffffffffffff1661276f565b15612303578373ffffffffffffffffffffffffffffffffffffffff1663150b7a026121c36116df565b8786866040518563ffffffff1660e01b81526004016121e594939291906130c8565b602060405180830381600087803b1580156121ff57600080fd5b505af192505050801561223057506040513d601f19601f8201168201806040525081019061222d9190612bdd565b60015b6122b3573d8060008114612260576040519150601f19603f3d011682016040523d82523d6000602084013e612265565b606091505b506000815114156122ab576040517f08c379a00000000000000000000000000000000000000000000000000000000081526004016122a290613191565b60405180910390fd5b805181602001fd5b63150b7a0260e01b7bffffffffffffffffffffffffffffffffffffffffffffffffffffffff1916817bffffffffffffffffffffffffffffffffffffffffffffffffffffffff191614915050612308565b600190505b949350505050565b600080600090507a184f03e93ff9f4daa797ed6e38ed64bf6a1f010000000000000000831061236e577a184f03e93ff9f4daa797ed6e38ed64bf6a1f010000000000000000838161236457612363613672565b5b0492506040810190505b6d04ee2d6d415b85acef810000000083106123ab576d04ee2d6d415b85acef810000000083816123a1576123a0613672565b5b0492506020810190505b662386f26fc1000083106123da57662386f26fc1000083816123d0576123cf613672565b5b0492506010810190505b6305f5e1008310612403576305f5e10083816123f9576123f8613672565b5b0492506008810190505b612710831061242857612710838161241e5761241d613672565b5b0492506004810190505b6064831061244b576064838161244157612440613672565b5b0492506002810190505b600a831061245a576001810190505b80915050919050565b50505050565b6008805490506009600083815260200190815260200160002081905550600881908060018154018082558091505060019003906000526020600020016000909190919091505550565b600060016124bf84610d47565b6124c991906134f6565b90506000600760008481526020019081526020016000205490508181146125ae576000600660008673ffffffffffffffffffffffffffffffffffffffff1673ffffffffffffffffffffffffffffffffffffffff168152602001908152602001600020600084815260200190815260200160002054905080600660008773ffffffffffffffffffffffffffffffffffffffff1673ffffffffffffffffffffffffffffffffffffffff168152602001908152602001600020600084815260200190815260200160002081905550816007600083815260200190815260200160002081905550505b6007600084815260200190815260200160002060009055600660008573ffffffffffffffffffffffffffffffffffffffff1673ffffffffffffffffffffffffffffffffffffffff16815260200190815260200160002060008381526020019081526020016000206000905550505050565b6000600160088054905061263391906134f6565b9050600060096000848152602001908152602001600020549050600060088381548110612663576126626136ff565b5b906000526020600020015490508060088381548110612685576126846136ff565b5b9060005260206000200181905550816009600083815260200190815260200160002081905550600960008581526020019081526020016000206000905560088054806126d4576126d36136d0565b5b6001900381819060005260206000200160009055905550505050565b60006126fb83610d47565b905081600660008573ffffffffffffffffffffffffffffffffffffffff1673ffffffffffffffffffffffffffffffffffffffff168152602001908152602001600020600083815260200190815260200160002081905550806007600084815260200190815260200160002081905550505050565b6000808273ffffffffffffffffffffffffffffffffffffffff163b119050919050565b82805461279e906135e0565b90600052602060002090601f0160209004810192826127c05760008555612807565b82601f106127d957805160ff1916838001178555612807565b82800160010185558215612807579182015b828111156128065782518255916020019190600101906127eb565b5b5090506128149190612818565b5090565b5b80821115612831576000816000905550600101612819565b5090565b600061284861284384613451565b61342c565b90508281526020810184848401111561286457612863613762565b5b61286f84828561359e565b509392505050565b600061288a61288584613482565b61342c565b9050828152602081018484840111156128a6576128a5613762565b5b6128b184828561359e565b509392505050565b6000813590506128c881613cd0565b92915050565b6000813590506128dd81613ce7565b92915050565b6000813590506128f281613cfe565b92915050565b60008151905061290781613cfe565b92915050565b600082601f8301126129225761292161375d565b5b8135612932848260208601612835565b91505092915050565b600082601f8301126129505761294f61375d565b5b8135612960848260208601612877565b91505092915050565b60008135905061297881613d15565b92915050565b6000602082840312156129945761299361376c565b5b60006129a2848285016128b9565b91505092915050565b600080604083850312156129c2576129c161376c565b5b60006129d0858286016128b9565b92505060206129e1858286016128b9565b9150509250929050565b600080600060608486031215612a0457612a0361376c565b5b6000612a12868287016128b9565b9350506020612a23868287016128b9565b9250506040612a3486828701612969565b9150509250925092565b60008060008060808587031215612a5857612a5761376c565b5b6000612a66878288016128b9565b9450506020612a77878288016128b9565b9350506040612a8887828801612969565b925050606085013567ffffffffffffffff811115612aa957612aa8613767565b5b612ab58782880161290d565b91505092959194509250565b60008060408385031215612ad857612ad761376c565b5b6000612ae6858286016128b9565b9250506020612af7858286016128ce565b9150509250929050565b600080600060608486031215612b1a57612b1961376c565b5b6000612b28868287016128b9565b935050602084013567ffffffffffffffff811115612b4957612b48613767565b5b612b558682870161293b565b9250506040612b6686828701612969565b9150509250925092565b60008060408385031215612b8757612b8661376c565b5b6000612b95858286016128b9565b9250506020612ba685828601612969565b9150509250929050565b600060208284031215612bc657612bc561376c565b5b6000612bd4848285016128e3565b91505092915050565b600060208284031215612bf357612bf261376c565b5b6000612c01848285016128f8565b91505092915050565b600060208284031215612c2057612c1f61376c565b5b6000612c2e84828501612969565b91505092915050565b60008060408385031215612c4e57612c4d61376c565b5b6000612c5c85828601612969565b9250506020612c6d858286016128b9565b9150509250929050565b60008060408385031215612c8e57612c8d61376c565b5b6000612c9c85828601612969565b9250506020612cad85828601612969565b9150509250929050565b612cc08161352a565b82525050565b612ccf8161353c565b82525050565b6000612ce0826134b3565b612cea81856134c9565b9350612cfa8185602086016135ad565b612d0381613771565b840191505092915050565b6000612d19826134be565b612d2381856134da565b9350612d338185602086016135ad565b612d3c81613771565b840191505092915050565b6000612d52826134be565b612d5c81856134eb565b9350612d6c8185602086016135ad565b80840191505092915050565b6000612d85602d836134da565b9150612d9082613782565b604082019050919050565b6000612da8602b836134da565b9150612db3826137d1565b604082019050919050565b6000612dcb6032836134da565b9150612dd682613820565b604082019050919050565b6000612dee6026836134da565b9150612df98261386f565b604082019050919050565b6000612e116025836134da565b9150612e1c826138be565b604082019050919050565b6000612e34601c836134da565b9150612e3f8261390d565b602082019050919050565b6000612e576024836134da565b9150612e6282613936565b604082019050919050565b6000612e7a6019836134da565b9150612e8582613985565b602082019050919050565b6000612e9d6010836134da565b9150612ea8826139ae565b602082019050919050565b6000612ec06014836134da565b9150612ecb826139d7565b602082019050919050565b6000612ee3601a836134da565b9150612eee82613a00565b602082019050919050565b6000612f066013836134da565b9150612f1182613a29565b602082019050919050565b6000612f296029836134da565b9150612f3482613a52565b604082019050919050565b6000612f4c602e836134da565b9150612f5782613aa1565b604082019050919050565b6000612f6f6019836134da565b9150612f7a82613af0565b602082019050919050565b6000612f926020836134da565b9150612f9d82613b19565b602082019050919050565b6000612fb56020836134da565b9150612fc082613b42565b602082019050919050565b6000612fd86018836134da565b9150612fe382613b6b565b602082019050919050565b6000612ffb6021836134da565b915061300682613b94565b604082019050919050565b600061301e603d836134da565b915061302982613be3565b604082019050919050565b6000613041602c836134da565b915061304c82613c32565b604082019050919050565b60006130646035836134da565b915061306f82613c81565b604082019050919050565b61308381613594565b82525050565b60006130958285612d47565b91506130a18284612d47565b91508190509392505050565b60006020820190506130c26000830184612cb7565b92915050565b60006080820190506130dd6000830187612cb7565b6130ea6020830186612cb7565b6130f7604083018561307a565b81810360608301526131098184612cd5565b905095945050505050565b60006020820190506131296000830184612cc6565b92915050565b600060208201905081810360008301526131498184612d0e565b905092915050565b6000602082019050818103600083015261316a81612d78565b9050919050565b6000602082019050818103600083015261318a81612d9b565b9050919050565b600060208201905081810360008301526131aa81612dbe565b9050919050565b600060208201905081810360008301526131ca81612de1565b9050919050565b600060208201905081810360008301526131ea81612e04565b9050919050565b6000602082019050818103600083015261320a81612e27565b9050919050565b6000602082019050818103600083015261322a81612e4a565b9050919050565b6000602082019050818103600083015261324a81612e6d565b9050919050565b6000602082019050818103600083015261326a81612e90565b9050919050565b6000602082019050818103600083015261328a81612eb3565b9050919050565b600060208201905081810360008301526132aa81612ed6565b9050919050565b600060208201905081810360008301526132ca81612ef9565b9050919050565b600060208201905081810360008301526132ea81612f1c565b9050919050565b6000602082019050818103600083015261330a81612f3f565b9050919050565b6000602082019050818103600083015261332a81612f62565b9050919050565b6000602082019050818103600083015261334a81612f85565b9050919050565b6000602082019050818103600083015261336a81612fa8565b9050919050565b6000602082019050818103600083015261338a81612fcb565b9050919050565b600060208201905081810360008301526133aa81612fee565b9050919050565b600060208201905081810360008301526133ca81613011565b9050919050565b600060208201905081810360008301526133ea81613034565b9050919050565b6000602082019050818103600083015261340a81613057565b9050919050565b6000602082019050613426600083018461307a565b92915050565b6000613436613447565b90506134428282613612565b919050565b6000604051905090565b600067ffffffffffffffff82111561346c5761346b61372e565b5b61347582613771565b9050602081019050919050565b600067ffffffffffffffff82111561349d5761349c61372e565b5b6134a682613771565b9050602081019050919050565b600081519050919050565b600081519050919050565b600082825260208201905092915050565b600082825260208201905092915050565b600081905092915050565b600061350182613594565b915061350c83613594565b92508282101561351f5761351e613643565b5b828203905092915050565b600061353582613574565b9050919050565b60008115159050919050565b60007fffffffff0000000000000000000000000000000000000000000000000000000082169050919050565b600073ffffffffffffffffffffffffffffffffffffffff82169050919050565b6000819050919050565b82818337600083830152505050565b60005b838110156135cb5780820151818401526020810190506135b0565b838111156135da576000848401525b50505050565b600060028204905060018216806135f857607f821691505b6020821081141561360c5761360b6136a1565b5b50919050565b61361b82613771565b810181811067ffffffffffffffff8211171561363a5761363961372e565b5b80604052505050565b7f4e487b7100000000000000000000000000000000000000000000000000000000600052601160045260246000fd5b7f4e487b7100000000000000000000000000000000000000000000000000000000600052601260045260246000fd5b7f4e487b7100000000000000000000000000000000000000000000000000000000600052602260045260246000fd5b7f4e487b7100000000000000000000000000000000000000000000000000000000600052603160045260246000fd5b7f4e487b7100000000000000000000000000000000000000000000000000000000600052603260045260246000fd5b7f4e487b7100000000000000000000000000000000000000000000000000000000600052604160045260246000fd5b600080fd5b600080fd5b600080fd5b600080fd5b6000601f19601f8301169050919050565b7f4552433732313a2063616c6c6572206973206e6f7420746f6b656e206f776e6560008201527f72206f7220617070726f76656400000000000000000000000000000000000000602082015250565b7f455243373231456e756d657261626c653a206f776e657220696e646578206f7560008201527f74206f6620626f756e6473000000000000000000000000000000000000000000602082015250565b7f4552433732313a207472616e7366657220746f206e6f6e20455243373231526560008201527f63656976657220696d706c656d656e7465720000000000000000000000000000602082015250565b7f4f776e61626c653a206e6577206f776e657220697320746865207a65726f206160008201527f6464726573730000000000000000000000000000000000000000000000000000602082015250565b7f4552433732313a207472616e736665722066726f6d20696e636f72726563742060008201527f6f776e6572000000000000000000000000000000000000000000000000000000602082015250565b7f4552433732313a20746f6b656e20616c7265616479206d696e74656400000000600082015250565b7f4552433732313a207472616e7366657220746f20746865207a65726f2061646460008201527f7265737300000000000000000000000000000000000000000000000000000000602082015250565b7f4552433732313a20617070726f766520746f2063616c6c657200000000000000600082015250565b7f496e61636375726174652066756e647300000000000000000000000000000000600082015250565b7f546f6b656e20646f6573206e6f74206578697374000000000000000000000000600082015250565b7f4e6f7420636f727265637420627579657220616464726573732e000000000000600082015250565b7f4e6f742074686520746f6b656e206f776e657200000000000000000000000000600082015250565b7f4552433732313a2061646472657373207a65726f206973206e6f74206120766160008201527f6c6964206f776e65720000000000000000000000000000000000000000000000602082015250565b7f45524337323155524953746f726167653a2055524920736574206f66206e6f6e60008201527f6578697374656e7420746f6b656e000000000000000000000000000000000000602082015250565b7f43616e6e6f742062757920796f7572206f776e20746f6b656e00000000000000600082015250565b7f4552433732313a206d696e7420746f20746865207a65726f2061646472657373600082015250565b7f4f776e61626c653a2063616c6c6572206973206e6f7420746865206f776e6572600082015250565b7f4552433732313a20696e76616c696420746f6b656e2049440000000000000000600082015250565b7f4552433732313a20617070726f76616c20746f2063757272656e74206f776e6560008201527f7200000000000000000000000000000000000000000000000000000000000000602082015250565b7f4552433732313a20617070726f76652063616c6c6572206973206e6f7420746f60008201527f6b656e206f776e6572206f7220617070726f76656420666f7220616c6c000000602082015250565b7f455243373231456e756d657261626c653a20676c6f62616c20696e646578206f60008201527f7574206f6620626f756e64730000000000000000000000000000000000000000602082015250565b7f455243373231456e756d657261626c653a20636f6e736563757469766520747260008201527f616e7366657273206e6f7420737570706f727465640000000000000000000000602082015250565b613cd98161352a565b8114613ce457600080fd5b50565b613cf08161353c565b8114613cfb57600080fd5b50565b613d0781613548565b8114613d1257600080fd5b50565b613d1e81613594565b8114613d2957600080fd5b5056fea264697066735822122003e81d1238f9f1d4fa42e0f753600b430c4a1d32d76ba193df6d4312041e5a6664736f6c63430008060033",
  "immutableReferences": {},
  "source": "//Contract based on [https://docs.openzeppelin.com/contracts/3.x/erc721](https://docs.openzeppelin.com/contracts/3.x/erc721)\r\n// SPDX-License-Identifier: MIT\r\npragma solidity ^0.8.6;\r\n\r\nimport \"@openzeppelin/contracts/token/ERC721/ERC721.sol\";\r\nimport \"@openzeppelin/contracts/utils/Counters.sol\";\r\nimport \"@openzeppelin/contracts/access/Ownable.sol\";\r\nimport \"@openzeppelin/contracts/token/ERC721/extensions/ERC721URIStorage.sol\";\r\nimport \"@openzeppelin/contracts/token/ERC721/extensions/ERC721Enumerable.sol\";\r\n\r\ncontract NFT is ERC721Enumerable, Ownable {\r\n    using Counters for Counters.Counter;\r\n    Counters.Counter private _tokenIds;\r\n\r\n    constructor() ERC721(\"NFTs\", \"NFT\") {\r\n    }\r\n\r\n    mapping(uint256 => string) private _tokenURIs;\r\n    mapping(uint256 => uint256) public _tokenPrice;\r\n    mapping(uint256 => uint256) private _balance;\r\n    mapping(uint256 => address) private _buyer;\r\n\r\n\r\n\r\n    function mintNFT(address recipient, string memory tokenURI, uint256 tokenPrice)\r\n        public\r\n        returns (uint256)\r\n    {\r\n        _tokenIds.increment();\r\n\r\n        uint256 newItemId = _tokenIds.current();\r\n        _mint(recipient, newItemId);\r\n        _setTokenURI(newItemId, tokenURI);\r\n        _tokenPrice[newItemId] = tokenPrice;\r\n        return newItemId;\r\n    }\r\n\r\n    function updateTokenPrice(uint256 tokenId, uint256 _price) external {\r\n        require(_exists(tokenId), \"Token does not exist\");\r\n        require(ownerOf(tokenId) == msg.sender, \"Not the token owner\");\r\n\r\n        _tokenPrice[tokenId] = _price;\r\n    }\r\n\r\n    function buyToken(uint256 _tokenId) external payable{\r\n        require(_exists(_tokenId),\"Token does not exist\");\r\n        require(msg.value == _tokenPrice[_tokenId], \"Inaccurate funds\");\r\n        require(msg.sender != ownerOf(_tokenId),\"Cannot buy your own token\");\r\n        // address seller = ownerOf(_tokenId);\r\n        // address payable sellerPayable = payable(seller);\r\n        // sellerPayable.transfer(msg.value);\r\n        _balance[_tokenId] = msg.value;\r\n        _buyer[_tokenId] = msg.sender;\r\n    }\r\n\r\n    function transferNFT(uint256 _tokenId, address buyer) external payable onlyOwner(){\r\n        require(_exists(_tokenId),\"Token does not exist\");\r\n        require(_buyer[_tokenId] == buyer,\"Not correct buyer address.\");\r\n        address seller = ownerOf(_tokenId);\r\n        address payable sellerPayable = payable(seller);\r\n        sellerPayable.transfer(address(this).balance);\r\n        transferFrom(seller,buyer,_tokenId);\r\n    }\r\n\r\n    function _setTokenURI(uint256 tokenId, string memory _tokenURI) internal virtual {\r\n        require(_exists(tokenId), \"ERC721URIStorage: URI set of nonexistent token\");\r\n        _tokenURIs[tokenId] = _tokenURI;\r\n    }\r\n\r\n    function getTokenURI(uint256 tokenId) public view returns (string memory tokenURI){\r\n        tokenURI = _tokenURIs[tokenId];\r\n        return tokenURI;\r\n    }\r\n\r\n}",
  "sourcePath": "/media/hdd1/es_workspace/D-DES/src/py/flwr/client/eth_client/contracts/NFT.sol",
  "compiler": {
    "name": "solc",
    "version": "0.8.6+commit.11564f7e.Emscripten.clang"
  },
  "schemaVersion": "3.4.11",
  "updatedAt": "2023-07-06T07:56:01.033Z",
  "networkType": "ethereum",
  "devdoc": {
    "kind": "dev",
    "methods": {
      "approve(address,uint256)": {
        "details": "See {IERC721-approve}."
      },
      "balanceOf(address)": {
        "details": "See {IERC721-balanceOf}."
      },
      "getApproved(uint256)": {
        "details": "See {IERC721-getApproved}."
      },
      "isApprovedForAll(address,address)": {
        "details": "See {IERC721-isApprovedForAll}."
      },
      "name()": {
        "details": "See {IERC721Metadata-name}."
      },
      "owner()": {
        "details": "Returns the address of the current owner."
      },
      "ownerOf(uint256)": {
        "details": "See {IERC721-ownerOf}."
      },
      "renounceOwnership()": {
        "details": "Leaves the contract without owner. It will not be possible to call `onlyOwner` functions anymore. Can only be called by the current owner. NOTE: Renouncing ownership will leave the contract without an owner, thereby removing any functionality that is only available to the owner."
      },
      "safeTransferFrom(address,address,uint256)": {
        "details": "See {IERC721-safeTransferFrom}."
      },
      "safeTransferFrom(address,address,uint256,bytes)": {
        "details": "See {IERC721-safeTransferFrom}."
      },
      "setApprovalForAll(address,bool)": {
        "details": "See {IERC721-setApprovalForAll}."
      },
      "supportsInterface(bytes4)": {
        "details": "See {IERC165-supportsInterface}."
      },
      "symbol()": {
        "details": "See {IERC721Metadata-symbol}."
      },
      "tokenByIndex(uint256)": {
        "details": "See {IERC721Enumerable-tokenByIndex}."
      },
      "tokenOfOwnerByIndex(address,uint256)": {
        "details": "See {IERC721Enumerable-tokenOfOwnerByIndex}."
      },
      "tokenURI(uint256)": {
        "details": "See {IERC721Metadata-tokenURI}."
      },
      "totalSupply()": {
        "details": "See {IERC721Enumerable-totalSupply}."
      },
      "transferFrom(address,address,uint256)": {
        "details": "See {IERC721-transferFrom}."
      },
      "transferOwnership(address)": {
        "details": "Transfers ownership of the contract to a new account (`newOwner`). Can only be called by the current owner."
      }
    },
    "version": 1
  },
  "userdoc": {
    "kind": "user",
    "methods": {},
    "version": 1
  }
}