{
  "contractName": "NFT",
  "abi": [
    {
      "inputs": [],
      "stateMutability": "nonpayable",
      "type": "constructor"
    },
    {
      "anonymous": false,
      "inputs": [
        {
          "indexed": true,
          "internalType": "address",
          "name": "owner",
          "type": "address"
        },
        {
          "indexed": true,
          "internalType": "address",
          "name": "approved",
          "type": "address"
        },
        {
          "indexed": true,
          "internalType": "uint256",
          "name": "tokenId",
          "type": "uint256"
        }
      ],
      "name": "Approval",
      "type": "event"
    },
    {
      "anonymous": false,
      "inputs": [
        {
          "indexed": true,
          "internalType": "address",
          "name": "owner",
          "type": "address"
        },
        {
          "indexed": true,
          "internalType": "address",
          "name": "operator",
          "type": "address"
        },
        {
          "indexed": false,
          "internalType": "bool",
          "name": "approved",
          "type": "bool"
        }
      ],
      "name": "ApprovalForAll",
      "type": "event"
    },
    {
      "anonymous": false,
      "inputs": [
        {
          "indexed": true,
          "internalType": "address",
          "name": "from",
          "type": "address"
        },
        {
          "indexed": true,
          "internalType": "address",
          "name": "to",
          "type": "address"
        },
        {
          "indexed": true,
          "internalType": "uint256",
          "name": "tokenId",
          "type": "uint256"
        }
      ],
      "name": "Transfer",
      "type": "event"
    },
    {
      "inputs": [
        {
          "internalType": "address",
          "name": "to",
          "type": "address"
        },
        {
          "internalType": "uint256",
          "name": "tokenId",
          "type": "uint256"
        }
      ],
      "name": "approve",
      "outputs": [],
      "stateMutability": "nonpayable",
      "type": "function"
    },
    {
      "inputs": [
        {
          "internalType": "address",
          "name": "owner",
          "type": "address"
        }
      ],
      "name": "balanceOf",
      "outputs": [
        {
          "internalType": "uint256",
          "name": "",
          "type": "uint256"
        }
      ],
      "stateMutability": "view",
      "type": "function",
      "constant": true
    },
    {
      "inputs": [
        {
          "internalType": "uint256",
          "name": "tokenId",
          "type": "uint256"
        }
      ],
      "name": "getApproved",
      "outputs": [
        {
          "internalType": "address",
          "name": "",
          "type": "address"
        }
      ],
      "stateMutability": "view",
      "type": "function",
      "constant": true
    },
    {
      "inputs": [
        {
          "internalType": "address",
          "name": "owner",
          "type": "address"
        },
        {
          "internalType": "address",
          "name": "operator",
          "type": "address"
        }
      ],
      "name": "isApprovedForAll",
      "outputs": [
        {
          "internalType": "bool",
          "name": "",
          "type": "bool"
        }
      ],
      "stateMutability": "view",
      "type": "function",
      "constant": true
    },
    {
      "inputs": [],
      "name": "name",
      "outputs": [
        {
          "internalType": "string",
          "name": "",
          "type": "string"
        }
      ],
      "stateMutability": "view",
      "type": "function",
      "constant": true
    },
    {
      "inputs": [
        {
          "internalType": "uint256",
          "name": "tokenId",
          "type": "uint256"
        }
      ],
      "name": "ownerOf",
      "outputs": [
        {
          "internalType": "address",
          "name": "",
          "type": "address"
        }
      ],
      "stateMutability": "view",
      "type": "function",
      "constant": true
    },
    {
      "inputs": [
        {
          "internalType": "address",
          "name": "from",
          "type": "address"
        },
        {
          "internalType": "address",
          "name": "to",
          "type": "address"
        },
        {
          "internalType": "uint256",
          "name": "tokenId",
          "type": "uint256"
        }
      ],
      "name": "safeTransferFrom",
      "outputs": [],
      "stateMutability": "nonpayable",
      "type": "function"
    },
    {
      "inputs": [
        {
          "internalType": "address",
          "name": "from",
          "type": "address"
        },
        {
          "internalType": "address",
          "name": "to",
          "type": "address"
        },
        {
          "internalType": "uint256",
          "name": "tokenId",
          "type": "uint256"
        },
        {
          "internalType": "bytes",
          "name": "data",
          "type": "bytes"
        }
      ],
      "name": "safeTransferFrom",
      "outputs": [],
      "stateMutability": "nonpayable",
      "type": "function"
    },
    {
      "inputs": [
        {
          "internalType": "address",
          "name": "operator",
          "type": "address"
        },
        {
          "internalType": "bool",
          "name": "approved",
          "type": "bool"
        }
      ],
      "name": "setApprovalForAll",
      "outputs": [],
      "stateMutability": "nonpayable",
      "type": "function"
    },
    {
      "inputs": [
        {
          "internalType": "bytes4",
          "name": "interfaceId",
          "type": "bytes4"
        }
      ],
      "name": "supportsInterface",
      "outputs": [
        {
          "internalType": "bool",
          "name": "",
          "type": "bool"
        }
      ],
      "stateMutability": "view",
      "type": "function",
      "constant": true
    },
    {
      "inputs": [],
      "name": "symbol",
      "outputs": [
        {
          "internalType": "string",
          "name": "",
          "type": "string"
        }
      ],
      "stateMutability": "view",
      "type": "function",
      "constant": true
    },
    {
      "inputs": [
        {
          "internalType": "uint256",
          "name": "index",
          "type": "uint256"
        }
      ],
      "name": "tokenByIndex",
      "outputs": [
        {
          "internalType": "uint256",
          "name": "",
          "type": "uint256"
        }
      ],
      "stateMutability": "view",
      "type": "function",
      "constant": true
    },
    {
      "inputs": [
        {
          "internalType": "address",
          "name": "owner",
          "type": "address"
        },
        {
          "internalType": "uint256",
          "name": "index",
          "type": "uint256"
        }
      ],
      "name": "tokenOfOwnerByIndex",
      "outputs": [
        {
          "internalType": "uint256",
          "name": "",
          "type": "uint256"
        }
      ],
      "stateMutability": "view",
      "type": "function",
      "constant": true
    },
    {
      "inputs": [
        {
          "internalType": "uint256",
          "name": "tokenId",
          "type": "uint256"
        }
      ],
      "name": "tokenURI",
      "outputs": [
        {
          "internalType": "string",
          "name": "",
          "type": "string"
        }
      ],
      "stateMutability": "view",
      "type": "function",
      "constant": true
    },
    {
      "inputs": [],
      "name": "totalSupply",
      "outputs": [
        {
          "internalType": "uint256",
          "name": "",
          "type": "uint256"
        }
      ],
      "stateMutability": "view",
      "type": "function",
      "constant": true
    },
    {
      "inputs": [
        {
          "internalType": "address",
          "name": "from",
          "type": "address"
        },
        {
          "internalType": "address",
          "name": "to",
          "type": "address"
        },
        {
          "internalType": "uint256",
          "name": "tokenId",
          "type": "uint256"
        }
      ],
      "name": "transferFrom",
      "outputs": [],
      "stateMutability": "nonpayable",
      "type": "function"
    },
    {
      "inputs": [
        {
          "internalType": "address",
          "name": "recipient",
          "type": "address"
        },
        {
          "internalType": "string",
          "name": "tokenURI",
          "type": "string"
        }
      ],
      "name": "mintNFT",
      "outputs": [
        {
          "internalType": "uint256",
          "name": "",
          "type": "uint256"
        }
      ],
      "stateMutability": "nonpayable",
      "type": "function"
    }
  ],
  "bytecode": "0x60806040523480156200001157600080fd5b506040518060400160405280600481526020017f4e465473000000000000000000000000000000000000000000000000000000008152506040518060400160405280600381526020017f4e46540000000000000000000000000000000000000000000000000000000000815250816000908051906020019062000096929190620000b8565b508060019080519060200190620000af929190620000b8565b505050620001cd565b828054620000c69062000168565b90600052602060002090601f016020900481019282620000ea576000855562000136565b82601f106200010557805160ff191683800117855562000136565b8280016001018555821562000136579182015b828111156200013557825182559160200191906001019062000118565b5b50905062000145919062000149565b5090565b5b80821115620001645760008160009055506001016200014a565b5090565b600060028204905060018216806200018157607f821691505b602082108114156200019857620001976200019e565b5b50919050565b7f4e487b7100000000000000000000000000000000000000000000000000000000600052602260045260246000fd5b6130a580620001dd6000396000f3fe608060405234801561001057600080fd5b506004361061010b5760003560e01c80634f6ccce7116100a2578063a22cb46511610071578063a22cb465146102de578063b88d4fde146102fa578063c87b56dd14610316578063e985e9c514610346578063eacabe14146103765761010b565b80634f6ccce7146102305780636352211e1461026057806370a082311461029057806395d89b41146102c05761010b565b806318160ddd116100de57806318160ddd146101aa57806323b872dd146101c85780632f745c59146101e457806342842e0e146102145761010b565b806301ffc9a71461011057806306fdde0314610140578063081812fc1461015e578063095ea7b31461018e575b600080fd5b61012a6004803603810190610125919061228d565b6103a6565b604051610137919061267c565b60405180910390f35b610148610420565b6040516101559190612697565b60405180910390f35b610178600480360381019061017391906122e7565b6104b2565b6040516101859190612615565b60405180910390f35b6101a860048036038101906101a3919061224d565b6104f8565b005b6101b2610610565b6040516101bf9190612899565b60405180910390f35b6101e260048036038101906101dd91906120db565b61061d565b005b6101fe60048036038101906101f9919061224d565b61067d565b60405161020b9190612899565b60405180910390f35b61022e600480360381019061022991906120db565b610722565b005b61024a600480360381019061024591906122e7565b610742565b6040516102579190612899565b60405180910390f35b61027a600480360381019061027591906122e7565b6107b3565b6040516102879190612615565b60405180910390f35b6102aa60048036038101906102a5919061206e565b61083a565b6040516102b79190612899565b60405180910390f35b6102c86108f2565b6040516102d59190612697565b60405180910390f35b6102f860048036038101906102f391906121b1565b610984565b005b610314600480360381019061030f919061212e565b61099a565b005b610330600480360381019061032b91906122e7565b6109fc565b60405161033d9190612697565b60405180910390f35b610360600480360381019061035b919061209b565b610a64565b60405161036d919061267c565b60405180910390f35b610390600480360381019061038b91906121f1565b610af8565b60405161039d9190612899565b60405180910390f35b60007f780e9d63000000000000000000000000000000000000000000000000000000007bffffffffffffffffffffffffffffffffffffffffffffffffffffffff1916827bffffffffffffffffffffffffffffffffffffffffffffffffffffffff19161480610419575061041882610b30565b5b9050919050565b60606000805461042f90612a68565b80601f016020809104026020016040519081016040528092919081815260200182805461045b90612a68565b80156104a85780601f1061047d576101008083540402835291602001916104a8565b820191906000526020600020905b81548152906001019060200180831161048b57829003601f168201915b5050505050905090565b60006104bd82610c12565b6004600083815260200190815260200160002060009054906101000a900473ffffffffffffffffffffffffffffffffffffffff169050919050565b6000610503826107b3565b90508073ffffffffffffffffffffffffffffffffffffffff168373ffffffffffffffffffffffffffffffffffffffff161415610574576040517f08c379a000000000000000000000000000000000000000000000000000000000815260040161056b90612819565b60405180910390fd5b8073ffffffffffffffffffffffffffffffffffffffff16610593610c5d565b73ffffffffffffffffffffffffffffffffffffffff1614806105c257506105c1816105bc610c5d565b610a64565b5b610601576040517f08c379a00000000000000000000000000000000000000000000000000000000081526004016105f890612839565b60405180910390fd5b61060b8383610c65565b505050565b6000600880549050905090565b61062e610628610c5d565b82610d1e565b61066d576040517f08c379a0000000000000000000000000000000000000000000000000000000008152600401610664906126b9565b60405180910390fd5b610678838383610db3565b505050565b60006106888361083a565b82106106c9576040517f08c379a00000000000000000000000000000000000000000000000000000000081526004016106c0906126d9565b60405180910390fd5b600660008473ffffffffffffffffffffffffffffffffffffffff1673ffffffffffffffffffffffffffffffffffffffff168152602001908152602001600020600083815260200190815260200160002054905092915050565b61073d8383836040518060200160405280600081525061099a565b505050565b600061074c610610565b821061078d576040517f08c379a000000000000000000000000000000000000000000000000000000000815260040161078490612859565b60405180910390fd5b600882815481106107a1576107a0612b87565b5b90600052602060002001549050919050565b6000806107bf836110ad565b9050600073ffffffffffffffffffffffffffffffffffffffff168173ffffffffffffffffffffffffffffffffffffffff161415610831576040517f08c379a0000000000000000000000000000000000000000000000000000000008152600401610828906127f9565b60405180910390fd5b80915050919050565b60008073ffffffffffffffffffffffffffffffffffffffff168273ffffffffffffffffffffffffffffffffffffffff1614156108ab576040517f08c379a00000000000000000000000000000000000000000000000000000000081526004016108a290612799565b60405180910390fd5b600360008373ffffffffffffffffffffffffffffffffffffffff1673ffffffffffffffffffffffffffffffffffffffff168152602001908152602001600020549050919050565b60606001805461090190612a68565b80601f016020809104026020016040519081016040528092919081815260200182805461092d90612a68565b801561097a5780601f1061094f5761010080835404028352916020019161097a565b820191906000526020600020905b81548152906001019060200180831161095d57829003601f168201915b5050505050905090565b61099661098f610c5d565b83836110ea565b5050565b6109ab6109a5610c5d565b83610d1e565b6109ea576040517f08c379a00000000000000000000000000000000000000000000000000000000081526004016109e1906126b9565b60405180910390fd5b6109f684848484611257565b50505050565b6060610a0782610c12565b6000610a116112b3565b90506000815111610a315760405180602001604052806000815250610a5c565b80610a3b846112ca565b604051602001610a4c9291906125f1565b6040516020818303038152906040525b915050919050565b6000600560008473ffffffffffffffffffffffffffffffffffffffff1673ffffffffffffffffffffffffffffffffffffffff16815260200190815260200160002060008373ffffffffffffffffffffffffffffffffffffffff1673ffffffffffffffffffffffffffffffffffffffff16815260200190815260200160002060009054906101000a900460ff16905092915050565b6000610b04600a6113a2565b6000610b10600a6113b8565b9050610b1c84826113c6565b610b2681846115e4565b8091505092915050565b60007f80ac58cd000000000000000000000000000000000000000000000000000000007bffffffffffffffffffffffffffffffffffffffffffffffffffffffff1916827bffffffffffffffffffffffffffffffffffffffffffffffffffffffff19161480610bfb57507f5b5e139f000000000000000000000000000000000000000000000000000000007bffffffffffffffffffffffffffffffffffffffffffffffffffffffff1916827bffffffffffffffffffffffffffffffffffffffffffffffffffffffff1916145b80610c0b5750610c0a82611658565b5b9050919050565b610c1b816116c2565b610c5a576040517f08c379a0000000000000000000000000000000000000000000000000000000008152600401610c51906127f9565b60405180910390fd5b50565b600033905090565b816004600083815260200190815260200160002060006101000a81548173ffffffffffffffffffffffffffffffffffffffff021916908373ffffffffffffffffffffffffffffffffffffffff160217905550808273ffffffffffffffffffffffffffffffffffffffff16610cd8836107b3565b73ffffffffffffffffffffffffffffffffffffffff167f8c5be1e5ebec7d5bd14f71427d1e84f3dd0314c0f7b2291e5b200ac8c7c3b92560405160405180910390a45050565b600080610d2a836107b3565b90508073ffffffffffffffffffffffffffffffffffffffff168473ffffffffffffffffffffffffffffffffffffffff161480610d6c5750610d6b8185610a64565b5b80610daa57508373ffffffffffffffffffffffffffffffffffffffff16610d92846104b2565b73ffffffffffffffffffffffffffffffffffffffff16145b91505092915050565b8273ffffffffffffffffffffffffffffffffffffffff16610dd3826107b3565b73ffffffffffffffffffffffffffffffffffffffff1614610e29576040517f08c379a0000000000000000000000000000000000000000000000000000000008152600401610e2090612719565b60405180910390fd5b600073ffffffffffffffffffffffffffffffffffffffff168273ffffffffffffffffffffffffffffffffffffffff161415610e99576040517f08c379a0000000000000000000000000000000000000000000000000000000008152600401610e9090612759565b60405180910390fd5b610ea68383836001611703565b8273ffffffffffffffffffffffffffffffffffffffff16610ec6826107b3565b73ffffffffffffffffffffffffffffffffffffffff1614610f1c576040517f08c379a0000000000000000000000000000000000000000000000000000000008152600401610f1390612719565b60405180910390fd5b6004600082815260200190815260200160002060006101000a81549073ffffffffffffffffffffffffffffffffffffffff02191690556001600360008573ffffffffffffffffffffffffffffffffffffffff1673ffffffffffffffffffffffffffffffffffffffff168152602001908152602001600020600082825403925050819055506001600360008473ffffffffffffffffffffffffffffffffffffffff1673ffffffffffffffffffffffffffffffffffffffff16815260200190815260200160002060008282540192505081905550816002600083815260200190815260200160002060006101000a81548173ffffffffffffffffffffffffffffffffffffffff021916908373ffffffffffffffffffffffffffffffffffffffff160217905550808273ffffffffffffffffffffffffffffffffffffffff168473ffffffffffffffffffffffffffffffffffffffff167fddf252ad1be2c89b69c2b068fc378daa952ba7f163c4a11628f55a4df523b3ef60405160405180910390a46110a88383836001611863565b505050565b60006002600083815260200190815260200160002060009054906101000a900473ffffffffffffffffffffffffffffffffffffffff169050919050565b8173ffffffffffffffffffffffffffffffffffffffff168373ffffffffffffffffffffffffffffffffffffffff161415611159576040517f08c379a000000000000000000000000000000000000000000000000000000000815260040161115090612779565b60405180910390fd5b80600560008573ffffffffffffffffffffffffffffffffffffffff1673ffffffffffffffffffffffffffffffffffffffff16815260200190815260200160002060008473ffffffffffffffffffffffffffffffffffffffff1673ffffffffffffffffffffffffffffffffffffffff16815260200190815260200160002060006101000a81548160ff0219169083151502179055508173ffffffffffffffffffffffffffffffffffffffff168373ffffffffffffffffffffffffffffffffffffffff167f17307eab39ab6107e8899845ad3d59bd9653f200f220920489ca2b5937696c318360405161124a919061267c565b60405180910390a3505050565b611262848484610db3565b61126e84848484611869565b6112ad576040517f08c379a00000000000000000000000000000000000000000000000000000000081526004016112a4906126f9565b60405180910390fd5b50505050565b606060405180602001604052806000815250905090565b6060600060016112d984611a00565b01905060008167ffffffffffffffff8111156112f8576112f7612bb6565b5b6040519080825280601f01601f19166020018201604052801561132a5781602001600182028036833780820191505090505b509050600082602001820190505b600115611397578080600190039150507f3031323334353637383961626364656600000000000000000000000000000000600a86061a8153600a858161138157611380612afa565b5b049450600085141561139257611397565b611338565b819350505050919050565b6001816000016000828254019250508190555050565b600081600001549050919050565b600073ffffffffffffffffffffffffffffffffffffffff168273ffffffffffffffffffffffffffffffffffffffff161415611436576040517f08c379a000000000000000000000000000000000000000000000000000000000815260040161142d906127d9565b60405180910390fd5b61143f816116c2565b1561147f576040517f08c379a000000000000000000000000000000000000000000000000000000000815260040161147690612739565b60405180910390fd5b61148d600083836001611703565b611496816116c2565b156114d6576040517f08c379a00000000000000000000000000000000000000000000000000000000081526004016114cd90612739565b60405180910390fd5b6001600360008473ffffffffffffffffffffffffffffffffffffffff1673ffffffffffffffffffffffffffffffffffffffff16815260200190815260200160002060008282540192505081905550816002600083815260200190815260200160002060006101000a81548173ffffffffffffffffffffffffffffffffffffffff021916908373ffffffffffffffffffffffffffffffffffffffff160217905550808273ffffffffffffffffffffffffffffffffffffffff16600073ffffffffffffffffffffffffffffffffffffffff167fddf252ad1be2c89b69c2b068fc378daa952ba7f163c4a11628f55a4df523b3ef60405160405180910390a46115e0600083836001611863565b5050565b6115ed826116c2565b61162c576040517f08c379a0000000000000000000000000000000000000000000000000000000008152600401611623906127b9565b60405180910390fd5b80600b60008481526020019081526020016000209080519060200190611653929190611e82565b505050565b60007f01ffc9a7000000000000000000000000000000000000000000000000000000007bffffffffffffffffffffffffffffffffffffffffffffffffffffffff1916827bffffffffffffffffffffffffffffffffffffffffffffffffffffffff1916149050919050565b60008073ffffffffffffffffffffffffffffffffffffffff166116e4836110ad565b73ffffffffffffffffffffffffffffffffffffffff1614159050919050565b61170f84848484611b53565b6001811115611753576040517f08c379a000000000000000000000000000000000000000000000000000000000815260040161174a90612879565b60405180910390fd5b6000829050600073ffffffffffffffffffffffffffffffffffffffff168573ffffffffffffffffffffffffffffffffffffffff16141561179b5761179681611b59565b6117da565b8373ffffffffffffffffffffffffffffffffffffffff168573ffffffffffffffffffffffffffffffffffffffff16146117d9576117d88582611ba2565b5b5b600073ffffffffffffffffffffffffffffffffffffffff168473ffffffffffffffffffffffffffffffffffffffff16141561181d5761181881611d0f565b61185c565b8473ffffffffffffffffffffffffffffffffffffffff168473ffffffffffffffffffffffffffffffffffffffff161461185b5761185a8482611de0565b5b5b5050505050565b50505050565b600061188a8473ffffffffffffffffffffffffffffffffffffffff16611e5f565b156119f3578373ffffffffffffffffffffffffffffffffffffffff1663150b7a026118b3610c5d565b8786866040518563ffffffff1660e01b81526004016118d59493929190612630565b602060405180830381600087803b1580156118ef57600080fd5b505af192505050801561192057506040513d601f19601f8201168201806040525081019061191d91906122ba565b60015b6119a3573d8060008114611950576040519150601f19603f3d011682016040523d82523d6000602084013e611955565b606091505b5060008151141561199b576040517f08c379a0000000000000000000000000000000000000000000000000000000008152600401611992906126f9565b60405180910390fd5b805181602001fd5b63150b7a0260e01b7bffffffffffffffffffffffffffffffffffffffffffffffffffffffff1916817bffffffffffffffffffffffffffffffffffffffffffffffffffffffff1916149150506119f8565b600190505b949350505050565b600080600090507a184f03e93ff9f4daa797ed6e38ed64bf6a1f0100000000000000008310611a5e577a184f03e93ff9f4daa797ed6e38ed64bf6a1f0100000000000000008381611a5457611a53612afa565b5b0492506040810190505b6d04ee2d6d415b85acef81000000008310611a9b576d04ee2d6d415b85acef81000000008381611a9157611a90612afa565b5b0492506020810190505b662386f26fc100008310611aca57662386f26fc100008381611ac057611abf612afa565b5b0492506010810190505b6305f5e1008310611af3576305f5e1008381611ae957611ae8612afa565b5b0492506008810190505b6127108310611b18576127108381611b0e57611b0d612afa565b5b0492506004810190505b60648310611b3b5760648381611b3157611b30612afa565b5b0492506002810190505b600a8310611b4a576001810190505b80915050919050565b50505050565b6008805490506009600083815260200190815260200160002081905550600881908060018154018082558091505060019003906000526020600020016000909190919091505550565b60006001611baf8461083a565b611bb9919061297e565b9050600060076000848152602001908152602001600020549050818114611c9e576000600660008673ffffffffffffffffffffffffffffffffffffffff1673ffffffffffffffffffffffffffffffffffffffff168152602001908152602001600020600084815260200190815260200160002054905080600660008773ffffffffffffffffffffffffffffffffffffffff1673ffffffffffffffffffffffffffffffffffffffff168152602001908152602001600020600084815260200190815260200160002081905550816007600083815260200190815260200160002081905550505b6007600084815260200190815260200160002060009055600660008573ffffffffffffffffffffffffffffffffffffffff1673ffffffffffffffffffffffffffffffffffffffff16815260200190815260200160002060008381526020019081526020016000206000905550505050565b60006001600880549050611d23919061297e565b9050600060096000848152602001908152602001600020549050600060088381548110611d5357611d52612b87565b5b906000526020600020015490508060088381548110611d7557611d74612b87565b5b906000526020600020018190555081600960008381526020019081526020016000208190555060096000858152602001908152602001600020600090556008805480611dc457611dc3612b58565b5b6001900381819060005260206000200160009055905550505050565b6000611deb8361083a565b905081600660008573ffffffffffffffffffffffffffffffffffffffff1673ffffffffffffffffffffffffffffffffffffffff168152602001908152602001600020600083815260200190815260200160002081905550806007600084815260200190815260200160002081905550505050565b6000808273ffffffffffffffffffffffffffffffffffffffff163b119050919050565b828054611e8e90612a68565b90600052602060002090601f016020900481019282611eb05760008555611ef7565b82601f10611ec957805160ff1916838001178555611ef7565b82800160010185558215611ef7579182015b82811115611ef6578251825591602001919060010190611edb565b5b509050611f049190611f08565b5090565b5b80821115611f21576000816000905550600101611f09565b5090565b6000611f38611f33846128d9565b6128b4565b905082815260208101848484011115611f5457611f53612bea565b5b611f5f848285612a26565b509392505050565b6000611f7a611f758461290a565b6128b4565b905082815260208101848484011115611f9657611f95612bea565b5b611fa1848285612a26565b509392505050565b600081359050611fb881613013565b92915050565b600081359050611fcd8161302a565b92915050565b600081359050611fe281613041565b92915050565b600081519050611ff781613041565b92915050565b600082601f83011261201257612011612be5565b5b8135612022848260208601611f25565b91505092915050565b600082601f8301126120405761203f612be5565b5b8135612050848260208601611f67565b91505092915050565b60008135905061206881613058565b92915050565b60006020828403121561208457612083612bf4565b5b600061209284828501611fa9565b91505092915050565b600080604083850312156120b2576120b1612bf4565b5b60006120c085828601611fa9565b92505060206120d185828601611fa9565b9150509250929050565b6000806000606084860312156120f4576120f3612bf4565b5b600061210286828701611fa9565b935050602061211386828701611fa9565b925050604061212486828701612059565b9150509250925092565b6000806000806080858703121561214857612147612bf4565b5b600061215687828801611fa9565b945050602061216787828801611fa9565b935050604061217887828801612059565b925050606085013567ffffffffffffffff81111561219957612198612bef565b5b6121a587828801611ffd565b91505092959194509250565b600080604083850312156121c8576121c7612bf4565b5b60006121d685828601611fa9565b92505060206121e785828601611fbe565b9150509250929050565b6000806040838503121561220857612207612bf4565b5b600061221685828601611fa9565b925050602083013567ffffffffffffffff81111561223757612236612bef565b5b6122438582860161202b565b9150509250929050565b6000806040838503121561226457612263612bf4565b5b600061227285828601611fa9565b925050602061228385828601612059565b9150509250929050565b6000602082840312156122a3576122a2612bf4565b5b60006122b184828501611fd3565b91505092915050565b6000602082840312156122d0576122cf612bf4565b5b60006122de84828501611fe8565b91505092915050565b6000602082840312156122fd576122fc612bf4565b5b600061230b84828501612059565b91505092915050565b61231d816129b2565b82525050565b61232c816129c4565b82525050565b600061233d8261293b565b6123478185612951565b9350612357818560208601612a35565b61236081612bf9565b840191505092915050565b600061237682612946565b6123808185612962565b9350612390818560208601612a35565b61239981612bf9565b840191505092915050565b60006123af82612946565b6123b98185612973565b93506123c9818560208601612a35565b80840191505092915050565b60006123e2602d83612962565b91506123ed82612c0a565b604082019050919050565b6000612405602b83612962565b915061241082612c59565b604082019050919050565b6000612428603283612962565b915061243382612ca8565b604082019050919050565b600061244b602583612962565b915061245682612cf7565b604082019050919050565b600061246e601c83612962565b915061247982612d46565b602082019050919050565b6000612491602483612962565b915061249c82612d6f565b604082019050919050565b60006124b4601983612962565b91506124bf82612dbe565b602082019050919050565b60006124d7602983612962565b91506124e282612de7565b604082019050919050565b60006124fa602e83612962565b915061250582612e36565b604082019050919050565b600061251d602083612962565b915061252882612e85565b602082019050919050565b6000612540601883612962565b915061254b82612eae565b602082019050919050565b6000612563602183612962565b915061256e82612ed7565b604082019050919050565b6000612586603d83612962565b915061259182612f26565b604082019050919050565b60006125a9602c83612962565b91506125b482612f75565b604082019050919050565b60006125cc603583612962565b91506125d782612fc4565b604082019050919050565b6125eb81612a1c565b82525050565b60006125fd82856123a4565b915061260982846123a4565b91508190509392505050565b600060208201905061262a6000830184612314565b92915050565b60006080820190506126456000830187612314565b6126526020830186612314565b61265f60408301856125e2565b81810360608301526126718184612332565b905095945050505050565b60006020820190506126916000830184612323565b92915050565b600060208201905081810360008301526126b1818461236b565b905092915050565b600060208201905081810360008301526126d2816123d5565b9050919050565b600060208201905081810360008301526126f2816123f8565b9050919050565b600060208201905081810360008301526127128161241b565b9050919050565b600060208201905081810360008301526127328161243e565b9050919050565b6000602082019050818103600083015261275281612461565b9050919050565b6000602082019050818103600083015261277281612484565b9050919050565b60006020820190508181036000830152612792816124a7565b9050919050565b600060208201905081810360008301526127b2816124ca565b9050919050565b600060208201905081810360008301526127d2816124ed565b9050919050565b600060208201905081810360008301526127f281612510565b9050919050565b6000602082019050818103600083015261281281612533565b9050919050565b6000602082019050818103600083015261283281612556565b9050919050565b6000602082019050818103600083015261285281612579565b9050919050565b600060208201905081810360008301526128728161259c565b9050919050565b60006020820190508181036000830152612892816125bf565b9050919050565b60006020820190506128ae60008301846125e2565b92915050565b60006128be6128cf565b90506128ca8282612a9a565b919050565b6000604051905090565b600067ffffffffffffffff8211156128f4576128f3612bb6565b5b6128fd82612bf9565b9050602081019050919050565b600067ffffffffffffffff82111561292557612924612bb6565b5b61292e82612bf9565b9050602081019050919050565b600081519050919050565b600081519050919050565b600082825260208201905092915050565b600082825260208201905092915050565b600081905092915050565b600061298982612a1c565b915061299483612a1c565b9250828210156129a7576129a6612acb565b5b828203905092915050565b60006129bd826129fc565b9050919050565b60008115159050919050565b60007fffffffff0000000000000000000000000000000000000000000000000000000082169050919050565b600073ffffffffffffffffffffffffffffffffffffffff82169050919050565b6000819050919050565b82818337600083830152505050565b60005b83811015612a53578082015181840152602081019050612a38565b83811115612a62576000848401525b50505050565b60006002820490506001821680612a8057607f821691505b60208210811415612a9457612a93612b29565b5b50919050565b612aa382612bf9565b810181811067ffffffffffffffff82111715612ac257612ac1612bb6565b5b80604052505050565b7f4e487b7100000000000000000000000000000000000000000000000000000000600052601160045260246000fd5b7f4e487b7100000000000000000000000000000000000000000000000000000000600052601260045260246000fd5b7f4e487b7100000000000000000000000000000000000000000000000000000000600052602260045260246000fd5b7f4e487b7100000000000000000000000000000000000000000000000000000000600052603160045260246000fd5b7f4e487b7100000000000000000000000000000000000000000000000000000000600052603260045260246000fd5b7f4e487b7100000000000000000000000000000000000000000000000000000000600052604160045260246000fd5b600080fd5b600080fd5b600080fd5b600080fd5b6000601f19601f8301169050919050565b7f4552433732313a2063616c6c6572206973206e6f7420746f6b656e206f776e6560008201527f72206f7220617070726f76656400000000000000000000000000000000000000602082015250565b7f455243373231456e756d657261626c653a206f776e657220696e646578206f7560008201527f74206f6620626f756e6473000000000000000000000000000000000000000000602082015250565b7f4552433732313a207472616e7366657220746f206e6f6e20455243373231526560008201527f63656976657220696d706c656d656e7465720000000000000000000000000000602082015250565b7f4552433732313a207472616e736665722066726f6d20696e636f72726563742060008201527f6f776e6572000000000000000000000000000000000000000000000000000000602082015250565b7f4552433732313a20746f6b656e20616c7265616479206d696e74656400000000600082015250565b7f4552433732313a207472616e7366657220746f20746865207a65726f2061646460008201527f7265737300000000000000000000000000000000000000000000000000000000602082015250565b7f4552433732313a20617070726f766520746f2063616c6c657200000000000000600082015250565b7f4552433732313a2061646472657373207a65726f206973206e6f74206120766160008201527f6c6964206f776e65720000000000000000000000000000000000000000000000602082015250565b7f45524337323155524953746f726167653a2055524920736574206f66206e6f6e60008201527f6578697374656e7420746f6b656e000000000000000000000000000000000000602082015250565b7f4552433732313a206d696e7420746f20746865207a65726f2061646472657373600082015250565b7f4552433732313a20696e76616c696420746f6b656e2049440000000000000000600082015250565b7f4552433732313a20617070726f76616c20746f2063757272656e74206f776e6560008201527f7200000000000000000000000000000000000000000000000000000000000000602082015250565b7f4552433732313a20617070726f76652063616c6c6572206973206e6f7420746f60008201527f6b656e206f776e6572206f7220617070726f76656420666f7220616c6c000000602082015250565b7f455243373231456e756d657261626c653a20676c6f62616c20696e646578206f60008201527f7574206f6620626f756e64730000000000000000000000000000000000000000602082015250565b7f455243373231456e756d657261626c653a20636f6e736563757469766520747260008201527f616e7366657273206e6f7420737570706f727465640000000000000000000000602082015250565b61301c816129b2565b811461302757600080fd5b50565b613033816129c4565b811461303e57600080fd5b50565b61304a816129d0565b811461305557600080fd5b50565b61306181612a1c565b811461306c57600080fd5b5056fea2646970667358221220b2905800bf000c8f40630c6b91d89e58dea990c01934198030f517b1d58234df64736f6c63430008060033",
  "immutableReferences": {},
  "source": "//Contract based on [https://docs.openzeppelin.com/contracts/3.x/erc721](https://docs.openzeppelin.com/contracts/3.x/erc721)\n// SPDX-License-Identifier: MIT\npragma solidity ^0.8.6;\n\nimport \"@openzeppelin/contracts/token/ERC721/ERC721.sol\";\nimport \"@openzeppelin/contracts/utils/Counters.sol\";\nimport \"@openzeppelin/contracts/access/Ownable.sol\";\nimport \"@openzeppelin/contracts/token/ERC721/extensions/ERC721URIStorage.sol\";\nimport \"@openzeppelin/contracts/token/ERC721/extensions/ERC721Enumerable.sol\";\n\ncontract NFT is ERC721Enumerable {\n    using Counters for Counters.Counter;\n    Counters.Counter private _tokenIds;\n\n    constructor() ERC721(\"NFTs\", \"NFT\") {}\n    mapping(uint256 => string) private _tokenURIs;\n\n\n    function mintNFT(address recipient, string memory tokenURI)\n        public\n        returns (uint256)\n    {\n        _tokenIds.increment();\n\n        uint256 newItemId = _tokenIds.current();\n        _mint(recipient, newItemId);\n        _setTokenURI(newItemId, tokenURI);\n\n        return newItemId;\n    }\n\n    function _setTokenURI(uint256 tokenId, string memory _tokenURI) internal virtual {\n        require(_exists(tokenId), \"ERC721URIStorage: URI set of nonexistent token\");\n        _tokenURIs[tokenId] = _tokenURI;\n    }\n}",
  "sourcePath": "/media/hdd1/es_workspace/D-DES/src/py/flwr/client/eth_client/contracts/NFT.sol",
  "compiler": {
    "name": "solc",
    "version": "0.8.6+commit.11564f7e.Emscripten.clang"
  },
  "schemaVersion": "3.4.11",
  "updatedAt": "2023-05-16T05:39:44.600Z",
  "networkType": "ethereum",
  "devdoc": {
    "kind": "dev",
    "methods": {
      "approve(address,uint256)": {
        "details": "See {IERC721-approve}."
      },
      "balanceOf(address)": {
        "details": "See {IERC721-balanceOf}."
      },
      "getApproved(uint256)": {
        "details": "See {IERC721-getApproved}."
      },
      "isApprovedForAll(address,address)": {
        "details": "See {IERC721-isApprovedForAll}."
      },
      "name()": {
        "details": "See {IERC721Metadata-name}."
      },
      "ownerOf(uint256)": {
        "details": "See {IERC721-ownerOf}."
      },
      "safeTransferFrom(address,address,uint256)": {
        "details": "See {IERC721-safeTransferFrom}."
      },
      "safeTransferFrom(address,address,uint256,bytes)": {
        "details": "See {IERC721-safeTransferFrom}."
      },
      "setApprovalForAll(address,bool)": {
        "details": "See {IERC721-setApprovalForAll}."
      },
      "supportsInterface(bytes4)": {
        "details": "See {IERC165-supportsInterface}."
      },
      "symbol()": {
        "details": "See {IERC721Metadata-symbol}."
      },
      "tokenByIndex(uint256)": {
        "details": "See {IERC721Enumerable-tokenByIndex}."
      },
      "tokenOfOwnerByIndex(address,uint256)": {
        "details": "See {IERC721Enumerable-tokenOfOwnerByIndex}."
      },
      "tokenURI(uint256)": {
        "details": "See {IERC721Metadata-tokenURI}."
      },
      "totalSupply()": {
        "details": "See {IERC721Enumerable-totalSupply}."
      },
      "transferFrom(address,address,uint256)": {
        "details": "See {IERC721-transferFrom}."
      }
    },
    "version": 1
  },
  "userdoc": {
    "kind": "user",
    "methods": {},
    "version": 1
  }
}